{"contracts/VulnerableBank.sol":{"VulnerableBank":{"abi":[{"anonymous":false,"inputs":[{"indexed":true,"internalType":"address","name":"user","type":"address"},{"indexed":false,"internalType":"uint256","name":"amount","type":"uint256"}],"name":"Deposit","type":"event"},{"anonymous":false,"inputs":[{"indexed":true,"internalType":"address","name":"user","type":"address"},{"indexed":false,"internalType":"uint256","name":"amount","type":"uint256"}],"name":"Withdraw","type":"event"},{"inputs":[{"internalType":"address","name":"","type":"address"}],"name":"balances","outputs":[{"internalType":"uint256","name":"","type":"uint256"}],"stateMutability":"view","type":"function"},{"inputs":[],"name":"deposit","outputs":[],"stateMutability":"payable","type":"function"},{"inputs":[{"internalType":"address","name":"_user","type":"address"}],"name":"getBalance","outputs":[{"internalType":"uint256","name":"","type":"uint256"}],"stateMutability":"view","type":"function"},{"inputs":[],"name":"getContractBalance","outputs":[{"internalType":"uint256","name":"","type":"uint256"}],"stateMutability":"view","type":"function"},{"inputs":[{"internalType":"uint256","name":"_amount","type":"uint256"}],"name":"withdraw","outputs":[],"stateMutability":"nonpayable","type":"function"}],"evm":{"bytecode":{"linkReferences":{},"object":"608060405234801561001057600080fd5b50610391806100206000396000f3fe60806040526004361061004a5760003560e01c806327e235e31461004f5780632e1a7d4d1461008e5780636f9fb98a146100b0578063d0e30db0146100c3578063f8b2cb4f146100cb575b600080fd5b34801561005b57600080fd5b5061007c61006a3660046102eb565b60006020819052908152604090205481565b60405190815260200160405180910390f35b34801561009a57600080fd5b506100ae6100a936600461031b565b610101565b005b3480156100bc57600080fd5b504761007c565b6100ae610232565b3480156100d757600080fd5b5061007c6100e63660046102eb565b6001600160a01b031660009081526020819052604090205490565b3360009081526020819052604090205481111561015c5760405162461bcd60e51b8152602060048201526014602482015273496e73756666696369656e742062616c616e636560601b60448201526064015b60405180910390fd5b604051600090339083908381818185875af1925050503d806000811461019e576040519150601f19603f3d011682016040523d82523d6000602084013e6101a3565b606091505b50509050806101e65760405162461bcd60e51b815260206004820152600f60248201526e151c985b9cd9995c8819985a5b1959608a1b6044820152606401610153565b33600081815260208181526040918290208054869003905590518481527f884edad9ce6fa2440d8a54cc123490eb96d2768479d49ff9c7366125a9424364910160405180910390a25050565b600034116102905760405162461bcd60e51b815260206004820152602560248201527f4465706f73697420616d6f756e74206d75737420626520677265617465722074604482015264068616e20360dc1b6064820152608401610153565b33600090815260208190526040812080543492906102af908490610334565b909155505060405134815233907fe1fffcc4923d04b559f4d29a8bfc6cda04eb5b0d3c460751c2402c5c5cc9109c9060200160405180910390a2565b6000602082840312156102fd57600080fd5b81356001600160a01b038116811461031457600080fd5b9392505050565b60006020828403121561032d57600080fd5b5035919050565b8082018082111561035557634e487b7160e01b600052601160045260246000fd5b9291505056fea2646970667358221220c8769fd42d46f45ecd7e0fdbc2e57e0604fefeb982f77b5b3df57004fade9b8b64736f6c63430008140033","opcodes":"PUSH1 0x80 PUSH1 0x40 MSTORE CALLVALUE DUP1 ISZERO PUSH2 0x10 JUMPI PUSH1 0x0 DUP1 REVERT JUMPDEST POP PUSH2 0x391 DUP1 PUSH2 0x20 PUSH1 0x0 CODECOPY PUSH1 0x0 RETURN INVALID PUSH1 0x80 PUSH1 0x40 MSTORE PUSH1 0x4 CALLDATASIZE LT PUSH2 0x4A JUMPI PUSH1 0x0 CALLDATALOAD PUSH1 0xE0 SHR DUP1 PUSH4 0x27E235E3 EQ PUSH2 0x4F JUMPI DUP1 PUSH4 0x2E1A7D4D EQ PUSH2 0x8E JUMPI DUP1 PUSH4 0x6F9FB98A EQ PUSH2 0xB0 JUMPI DUP1 PUSH4 0xD0E30DB0 EQ PUSH2 0xC3 JUMPI DUP1 PUSH4 0xF8B2CB4F EQ PUSH2 0xCB JUMPI JUMPDEST PUSH1 0x0 DUP1 REVERT JUMPDEST CALLVALUE DUP1 ISZERO PUSH2 0x5B JUMPI PUSH1 0x0 DUP1 REVERT JUMPDEST POP PUSH2 0x7C PUSH2 0x6A CALLDATASIZE PUSH1 0x4 PUSH2 0x2EB JUMP JUMPDEST PUSH1 0x0 PUSH1 0x20 DUP2 SWAP1 MSTORE SWAP1 DUP2 MSTORE PUSH1 0x40 SWAP1 KECCAK256 SLOAD DUP2 JUMP JUMPDEST PUSH1 0x40 MLOAD SWAP1 DUP2 MSTORE PUSH1 0x20 ADD PUSH1 0x40 MLOAD DUP1 SWAP2 SUB SWAP1 RETURN JUMPDEST CALLVALUE DUP1 ISZERO PUSH2 0x9A JUMPI PUSH1 0x0 DUP1 REVERT JUMPDEST POP PUSH2 0xAE PUSH2 0xA9 CALLDATASIZE PUSH1 0x4 PUSH2 0x31B JUMP JUMPDEST PUSH2 0x101 JUMP JUMPDEST STOP JUMPDEST CALLVALUE DUP1 ISZERO PUSH2 0xBC JUMPI PUSH1 0x0 DUP1 REVERT JUMPDEST POP SELFBALANCE PUSH2 0x7C JUMP JUMPDEST PUSH2 0xAE PUSH2 0x232 JUMP JUMPDEST CALLVALUE DUP1 ISZERO PUSH2 0xD7 JUMPI PUSH1 0x0 DUP1 REVERT JUMPDEST POP PUSH2 0x7C PUSH2 0xE6 CALLDATASIZE PUSH1 0x4 PUSH2 0x2EB JUMP JUMPDEST PUSH1 0x1 PUSH1 0x1 PUSH1 0xA0 SHL SUB AND PUSH1 0x0 SWAP1 DUP2 MSTORE PUSH1 0x20 DUP2 SWAP1 MSTORE PUSH1 0x40 SWAP1 KECCAK256 SLOAD SWAP1 JUMP JUMPDEST CALLER PUSH1 0x0 SWAP1 DUP2 MSTORE PUSH1 0x20 DUP2 SWAP1 MSTORE PUSH1 0x40 SWAP1 KECCAK256 SLOAD DUP2 GT ISZERO PUSH2 0x15C JUMPI PUSH1 0x40 MLOAD PUSH3 0x461BCD PUSH1 0xE5 SHL DUP2 MSTORE PUSH1 0x20 PUSH1 0x4 DUP3 ADD MSTORE PUSH1 0x14 PUSH1 0x24 DUP3 ADD MSTORE PUSH20 0x496E73756666696369656E742062616C616E6365 PUSH1 0x60 SHL PUSH1 0x44 DUP3 ADD MSTORE PUSH1 0x64 ADD JUMPDEST PUSH1 0x40 MLOAD DUP1 SWAP2 SUB SWAP1 REVERT JUMPDEST PUSH1 0x40 MLOAD PUSH1 0x0 SWAP1 CALLER SWAP1 DUP4 SWAP1 DUP4 DUP2 DUP2 DUP2 DUP6 DUP8 GAS CALL SWAP3 POP POP POP RETURNDATASIZE DUP1 PUSH1 0x0 DUP2 EQ PUSH2 0x19E JUMPI PUSH1 0x40 MLOAD SWAP2 POP PUSH1 0x1F NOT PUSH1 0x3F RETURNDATASIZE ADD AND DUP3 ADD PUSH1 0x40 MSTORE RETURNDATASIZE DUP3 MSTORE RETURNDATASIZE PUSH1 0x0 PUSH1 0x20 DUP5 ADD RETURNDATACOPY PUSH2 0x1A3 JUMP JUMPDEST PUSH1 0x60 SWAP2 POP JUMPDEST POP POP SWAP1 POP DUP1 PUSH2 0x1E6 JUMPI PUSH1 0x40 MLOAD PUSH3 0x461BCD PUSH1 0xE5 SHL DUP2 MSTORE PUSH1 0x20 PUSH1 0x4 DUP3 ADD MSTORE PUSH1 0xF PUSH1 0x24 DUP3 ADD MSTORE PUSH15 0x151C985B9CD9995C8819985A5B1959 PUSH1 0x8A SHL PUSH1 0x44 DUP3 ADD MSTORE PUSH1 0x64 ADD PUSH2 0x153 JUMP JUMPDEST CALLER PUSH1 0x0 DUP2 DUP2 MSTORE PUSH1 0x20 DUP2 DUP2 MSTORE PUSH1 0x40 SWAP2 DUP3 SWAP1 KECCAK256 DUP1 SLOAD DUP7 SWAP1 SUB SWAP1 SSTORE SWAP1 MLOAD DUP5 DUP2 MSTORE PUSH32 0x884EDAD9CE6FA2440D8A54CC123490EB96D2768479D49FF9C7366125A9424364 SWAP2 ADD PUSH1 0x40 MLOAD DUP1 SWAP2 SUB SWAP1 LOG2 POP POP JUMP JUMPDEST PUSH1 0x0 CALLVALUE GT PUSH2 0x290 JUMPI PUSH1 0x40 MLOAD PUSH3 0x461BCD PUSH1 0xE5 SHL DUP2 MSTORE PUSH1 0x20 PUSH1 0x4 DUP3 ADD MSTORE PUSH1 0x25 PUSH1 0x24 DUP3 ADD MSTORE PUSH32 0x4465706F73697420616D6F756E74206D75737420626520677265617465722074 PUSH1 0x44 DUP3 ADD MSTORE PUSH5 0x68616E203 PUSH1 0xDC SHL PUSH1 0x64 DUP3 ADD MSTORE PUSH1 0x84 ADD PUSH2 0x153 JUMP JUMPDEST CALLER PUSH1 0x0 SWAP1 DUP2 MSTORE PUSH1 0x20 DUP2 SWAP1 MSTORE PUSH1 0x40 DUP2 KECCAK256 DUP1 SLOAD CALLVALUE SWAP3 SWAP1 PUSH2 0x2AF SWAP1 DUP5 SWAP1 PUSH2 0x334 JUMP JUMPDEST SWAP1 SWAP2 SSTORE POP POP PUSH1 0x40 MLOAD CALLVALUE DUP2 MSTORE CALLER SWAP1 PUSH32 0xE1FFFCC4923D04B559F4D29A8BFC6CDA04EB5B0D3C460751C2402C5C5CC9109C SWAP1 PUSH1 0x20 ADD PUSH1 0x40 MLOAD DUP1 SWAP2 SUB SWAP1 LOG2 JUMP JUMPDEST PUSH1 0x0 PUSH1 0x20 DUP3 DUP5 SUB SLT ISZERO PUSH2 0x2FD JUMPI PUSH1 0x0 DUP1 REVERT JUMPDEST DUP2 CALLDATALOAD PUSH1 0x1 PUSH1 0x1 PUSH1 0xA0 SHL SUB DUP2 AND DUP2 EQ PUSH2 0x314 JUMPI PUSH1 0x0 DUP1 REVERT JUMPDEST SWAP4 SWAP3 POP POP POP JUMP JUMPDEST PUSH1 0x0 PUSH1 0x20 DUP3 DUP5 SUB SLT ISZERO PUSH2 0x32D JUMPI PUSH1 0x0 DUP1 REVERT JUMPDEST POP CALLDATALOAD SWAP2 SWAP1 POP JUMP JUMPDEST DUP1 DUP3 ADD DUP1 DUP3 GT ISZERO PUSH2 0x355 JUMPI PUSH4 0x4E487B71 PUSH1 0xE0 SHL PUSH1 0x0 MSTORE PUSH1 0x11 PUSH1 0x4 MSTORE PUSH1 0x24 PUSH1 0x0 REVERT JUMPDEST SWAP3 SWAP2 POP POP JUMP INVALID LOG2 PUSH5 0x6970667358 0x22 SLT KECCAK256 0xC8 PUSH23 0x9FD42D46F45ECD7E0FDBC2E57E0604FEFEB982F77B5B3D CREATE2 PUSH17 0x4FADE9B8B64736F6C6343000814003300 "},"methodIdentifiers":{"balances(address)":"27e235e3","deposit()":"d0e30db0","getBalance(address)":"f8b2cb4f","getContractBalance()":"6f9fb98a","withdraw(uint256)":"2e1a7d4d"}}}}}