{"contracts/VulnerableBank.sol":{"VulnerableBank":{"abi":[{"anonymous":false,"inputs":[{"indexed":true,"internalType":"address","name":"user","type":"address"},{"indexed":false,"internalType":"uint256","name":"amount","type":"uint256"}],"name":"Deposit","type":"event"},{"anonymous":false,"inputs":[{"indexed":true,"internalType":"address","name":"user","type":"address"},{"indexed":false,"internalType":"uint256","name":"amount","type":"uint256"}],"name":"Withdraw","type":"event"},{"inputs":[{"internalType":"address","name":"","type":"address"}],"name":"balances","outputs":[{"internalType":"uint256","name":"","type":"uint256"}],"stateMutability":"view","type":"function"},{"inputs":[],"name":"deposit","outputs":[],"stateMutability":"payable","type":"function"},{"inputs":[],"name":"getBalance","outputs":[{"internalType":"uint256","name":"","type":"uint256"}],"stateMutability":"view","type":"function"},{"inputs":[{"internalType":"address","name":"_user","type":"address"}],"name":"getUserBalance","outputs":[{"internalType":"uint256","name":"","type":"uint256"}],"stateMutability":"view","type":"function"},{"inputs":[{"internalType":"uint256","name":"_amount","type":"uint256"}],"name":"withdraw","outputs":[],"stateMutability":"nonpayable","type":"function"}],"evm":{"bytecode":{"linkReferences":{},"object":"608060405234801561001057600080fd5b5061038d806100206000396000f3fe60806040526004361061004a5760003560e01c806312065fe01461004f57806327e235e3146100705780632e1a7d4d1461009d57806347734892146100bf578063d0e30db0146100f5575b600080fd5b34801561005b57600080fd5b50475b60405190815260200160405180910390f35b34801561007c57600080fd5b5061005e61008b3660046102e7565b60006020819052908152604090205481565b3480156100a957600080fd5b506100bd6100b8366004610317565b6100fd565b005b3480156100cb57600080fd5b5061005e6100da3660046102e7565b6001600160a01b031660009081526020819052604090205490565b6100bd61022e565b336000908152602081905260409020548111156101585760405162461bcd60e51b8152602060048201526014602482015273496e73756666696369656e742062616c616e636560601b60448201526064015b60405180910390fd5b604051600090339083908381818185875af1925050503d806000811461019a576040519150601f19603f3d011682016040523d82523d6000602084013e61019f565b606091505b50509050806101e25760405162461bcd60e51b815260206004820152600f60248201526e151c985b9cd9995c8819985a5b1959608a1b604482015260640161014f565b33600081815260208181526040918290208054869003905590518481527f884edad9ce6fa2440d8a54cc123490eb96d2768479d49ff9c7366125a9424364910160405180910390a25050565b6000341161028c5760405162461bcd60e51b815260206004820152602560248201527f4465706f73697420616d6f756e74206d75737420626520677265617465722074604482015264068616e20360dc1b606482015260840161014f565b33600090815260208190526040812080543492906102ab908490610330565b909155505060405134815233907fe1fffcc4923d04b559f4d29a8bfc6cda04eb5b0d3c460751c2402c5c5cc9109c9060200160405180910390a2565b6000602082840312156102f957600080fd5b81356001600160a01b038116811461031057600080fd5b9392505050565b60006020828403121561032957600080fd5b5035919050565b8082018082111561035157634e487b7160e01b600052601160045260246000fd5b9291505056fea2646970667358221220fb64248da7bb4b1857e0f5a8282db28ccf0fed805575b0965f15e6bcb8e048ce64736f6c63430008140033","opcodes":"PUSH1 0x80 PUSH1 0x40 MSTORE CALLVALUE DUP1 ISZERO PUSH2 0x10 JUMPI PUSH1 0x0 DUP1 REVERT JUMPDEST POP PUSH2 0x38D DUP1 PUSH2 0x20 PUSH1 0x0 CODECOPY PUSH1 0x0 RETURN INVALID PUSH1 0x80 PUSH1 0x40 MSTORE PUSH1 0x4 CALLDATASIZE LT PUSH2 0x4A JUMPI PUSH1 0x0 CALLDATALOAD PUSH1 0xE0 SHR DUP1 PUSH4 0x12065FE0 EQ PUSH2 0x4F JUMPI DUP1 PUSH4 0x27E235E3 EQ PUSH2 0x70 JUMPI DUP1 PUSH4 0x2E1A7D4D EQ PUSH2 0x9D JUMPI DUP1 PUSH4 0x47734892 EQ PUSH2 0xBF JUMPI DUP1 PUSH4 0xD0E30DB0 EQ PUSH2 0xF5 JUMPI JUMPDEST PUSH1 0x0 DUP1 REVERT JUMPDEST CALLVALUE DUP1 ISZERO PUSH2 0x5B JUMPI PUSH1 0x0 DUP1 REVERT JUMPDEST POP SELFBALANCE JUMPDEST PUSH1 0x40 MLOAD SWAP1 DUP2 MSTORE PUSH1 0x20 ADD PUSH1 0x40 MLOAD DUP1 SWAP2 SUB SWAP1 RETURN JUMPDEST CALLVALUE DUP1 ISZERO PUSH2 0x7C JUMPI PUSH1 0x0 DUP1 REVERT JUMPDEST POP PUSH2 0x5E PUSH2 0x8B CALLDATASIZE PUSH1 0x4 PUSH2 0x2E7 JUMP JUMPDEST PUSH1 0x0 PUSH1 0x20 DUP2 SWAP1 MSTORE SWAP1 DUP2 MSTORE PUSH1 0x40 SWAP1 KECCAK256 SLOAD DUP2 JUMP JUMPDEST CALLVALUE DUP1 ISZERO PUSH2 0xA9 JUMPI PUSH1 0x0 DUP1 REVERT JUMPDEST POP PUSH2 0xBD PUSH2 0xB8 CALLDATASIZE PUSH1 0x4 PUSH2 0x317 JUMP JUMPDEST PUSH2 0xFD JUMP JUMPDEST STOP JUMPDEST CALLVALUE DUP1 ISZERO PUSH2 0xCB JUMPI PUSH1 0x0 DUP1 REVERT JUMPDEST POP PUSH2 0x5E PUSH2 0xDA CALLDATASIZE PUSH1 0x4 PUSH2 0x2E7 JUMP JUMPDEST PUSH1 0x1 PUSH1 0x1 PUSH1 0xA0 SHL SUB AND PUSH1 0x0 SWAP1 DUP2 MSTORE PUSH1 0x20 DUP2 SWAP1 MSTORE PUSH1 0x40 SWAP1 KECCAK256 SLOAD SWAP1 JUMP JUMPDEST PUSH2 0xBD PUSH2 0x22E JUMP JUMPDEST CALLER PUSH1 0x0 SWAP1 DUP2 MSTORE PUSH1 0x20 DUP2 SWAP1 MSTORE PUSH1 0x40 SWAP1 KECCAK256 SLOAD DUP2 GT ISZERO PUSH2 0x158 JUMPI PUSH1 0x40 MLOAD PUSH3 0x461BCD PUSH1 0xE5 SHL DUP2 MSTORE PUSH1 0x20 PUSH1 0x4 DUP3 ADD MSTORE PUSH1 0x14 PUSH1 0x24 DUP3 ADD MSTORE PUSH20 0x496E73756666696369656E742062616C616E6365 PUSH1 0x60 SHL PUSH1 0x44 DUP3 ADD MSTORE PUSH1 0x64 ADD JUMPDEST PUSH1 0x40 MLOAD DUP1 SWAP2 SUB SWAP1 REVERT JUMPDEST PUSH1 0x40 MLOAD PUSH1 0x0 SWAP1 CALLER SWAP1 DUP4 SWAP1 DUP4 DUP2 DUP2 DUP2 DUP6 DUP8 GAS CALL SWAP3 POP POP POP RETURNDATASIZE DUP1 PUSH1 0x0 DUP2 EQ PUSH2 0x19A JUMPI PUSH1 0x40 MLOAD SWAP2 POP PUSH1 0x1F NOT PUSH1 0x3F RETURNDATASIZE ADD AND DUP3 ADD PUSH1 0x40 MSTORE RETURNDATASIZE DUP3 MSTORE RETURNDATASIZE PUSH1 0x0 PUSH1 0x20 DUP5 ADD RETURNDATACOPY PUSH2 0x19F JUMP JUMPDEST PUSH1 0x60 SWAP2 POP JUMPDEST POP POP SWAP1 POP DUP1 PUSH2 0x1E2 JUMPI PUSH1 0x40 MLOAD PUSH3 0x461BCD PUSH1 0xE5 SHL DUP2 MSTORE PUSH1 0x20 PUSH1 0x4 DUP3 ADD MSTORE PUSH1 0xF PUSH1 0x24 DUP3 ADD MSTORE PUSH15 0x151C985B9CD9995C8819985A5B1959 PUSH1 0x8A SHL PUSH1 0x44 DUP3 ADD MSTORE PUSH1 0x64 ADD PUSH2 0x14F JUMP JUMPDEST CALLER PUSH1 0x0 DUP2 DUP2 MSTORE PUSH1 0x20 DUP2 DUP2 MSTORE PUSH1 0x40 SWAP2 DUP3 SWAP1 KECCAK256 DUP1 SLOAD DUP7 SWAP1 SUB SWAP1 SSTORE SWAP1 MLOAD DUP5 DUP2 MSTORE PUSH32 0x884EDAD9CE6FA2440D8A54CC123490EB96D2768479D49FF9C7366125A9424364 SWAP2 ADD PUSH1 0x40 MLOAD DUP1 SWAP2 SUB SWAP1 LOG2 POP POP JUMP JUMPDEST PUSH1 0x0 CALLVALUE GT PUSH2 0x28C JUMPI PUSH1 0x40 MLOAD PUSH3 0x461BCD PUSH1 0xE5 SHL DUP2 MSTORE PUSH1 0x20 PUSH1 0x4 DUP3 ADD MSTORE PUSH1 0x25 PUSH1 0x24 DUP3 ADD MSTORE PUSH32 0x4465706F73697420616D6F756E74206D75737420626520677265617465722074 PUSH1 0x44 DUP3 ADD MSTORE PUSH5 0x68616E203 PUSH1 0xDC SHL PUSH1 0x64 DUP3 ADD MSTORE PUSH1 0x84 ADD PUSH2 0x14F JUMP JUMPDEST CALLER PUSH1 0x0 SWAP1 DUP2 MSTORE PUSH1 0x20 DUP2 SWAP1 MSTORE PUSH1 0x40 DUP2 KECCAK256 DUP1 SLOAD CALLVALUE SWAP3 SWAP1 PUSH2 0x2AB SWAP1 DUP5 SWAP1 PUSH2 0x330 JUMP JUMPDEST SWAP1 SWAP2 SSTORE POP POP PUSH1 0x40 MLOAD CALLVALUE DUP2 MSTORE CALLER SWAP1 PUSH32 0xE1FFFCC4923D04B559F4D29A8BFC6CDA04EB5B0D3C460751C2402C5C5CC9109C SWAP1 PUSH1 0x20 ADD PUSH1 0x40 MLOAD DUP1 SWAP2 SUB SWAP1 LOG2 JUMP JUMPDEST PUSH1 0x0 PUSH1 0x20 DUP3 DUP5 SUB SLT ISZERO PUSH2 0x2F9 JUMPI PUSH1 0x0 DUP1 REVERT JUMPDEST DUP2 CALLDATALOAD PUSH1 0x1 PUSH1 0x1 PUSH1 0xA0 SHL SUB DUP2 AND DUP2 EQ PUSH2 0x310 JUMPI PUSH1 0x0 DUP1 REVERT JUMPDEST SWAP4 SWAP3 POP POP POP JUMP JUMPDEST PUSH1 0x0 PUSH1 0x20 DUP3 DUP5 SUB SLT ISZERO PUSH2 0x329 JUMPI PUSH1 0x0 DUP1 REVERT JUMPDEST POP CALLDATALOAD SWAP2 SWAP1 POP JUMP JUMPDEST DUP1 DUP3 ADD DUP1 DUP3 GT ISZERO PUSH2 0x351 JUMPI PUSH4 0x4E487B71 PUSH1 0xE0 SHL PUSH1 0x0 MSTORE PUSH1 0x11 PUSH1 0x4 MSTORE PUSH1 0x24 PUSH1 0x0 REVERT JUMPDEST SWAP3 SWAP2 POP POP JUMP INVALID LOG2 PUSH5 0x6970667358 0x22 SLT KECCAK256 0xFB PUSH5 0x248DA7BB4B XOR JUMPI 0xE0 CREATE2 0xA8 0x28 0x2D 0xB2 DUP13 0xCF 0xF 0xED DUP1 SSTORE PUSH22 0xB0965F15E6BCB8E048CE64736F6C6343000814003300 "},"methodIdentifiers":{"balances(address)":"27e235e3","deposit()":"d0e30db0","getBalance()":"12065fe0","getUserBalance(address)":"47734892","withdraw(uint256)":"2e1a7d4d"}}}}}