{
  "_format": "hh-sol-artifact-1",
  "contractName": "Proxy",
  "sourceName": "contracts/Proxy.sol",
  "abi": [
    {
      "inputs": [
        {
          "internalType": "address",
          "name": "_logicContract",
          "type": "address"
        }
      ],
      "stateMutability": "nonpayable",
      "type": "constructor"
    },
    {
      "stateMutability": "payable",
      "type": "fallback"
    },
    {
      "inputs": [],
      "name": "counter",
      "outputs": [
        {
          "internalType": "uint256",
          "name": "",
          "type": "uint256"
        }
      ],
      "stateMutability": "view",
      "type": "function"
    },
    {
      "inputs": [],
      "name": "logicContract",
      "outputs": [
        {
          "internalType": "address",
          "name": "",
          "type": "address"
        }
      ],
      "stateMutability": "view",
      "type": "function"
    },
    {
      "stateMutability": "payable",
      "type": "receive"
    }
  ],
  "bytecode": "0x608060405234801561001057600080fd5b5060405161018238038061018283398101604081905261002f91610054565b600180546001600160a01b0319166001600160a01b0392909216919091179055610084565b60006020828403121561006657600080fd5b81516001600160a01b038116811461007d57600080fd5b9392505050565b60f0806100926000396000f3fe60806040526004361060295760003560e01c806361bc221a14605e578063cc0e97c914608557602f565b36602f57005b6001546001600160a01b03163660008037600080366000845af43d6000803e8080156059573d6000f35b3d6000fd5b348015606957600080fd5b50607260005481565b6040519081526020015b60405180910390f35b348015609057600080fd5b5060015460a3906001600160a01b031681565b6040516001600160a01b039091168152602001607c56fea2646970667358221220fe1196b82d4102e0a3fe4bff33989212f2df8e1b3aa35d2144427f23cd1304ff64736f6c63430008180033",
  "linkReferences": {},
  "deployedLinkReferences": {}
}