{
  "_format": "hh3-artifact-1",
  "contractName": "MintableERC20",
  "sourceName": "contracts/MintableERC20.sol",
  "abi": [
    {
      "inputs": [
        {
          "internalType": "string",
          "name": "name_",
          "type": "string"
        },
        {
          "internalType": "string",
          "name": "symbol_",
          "type": "string"
        }
      ],
      "stateMutability": "nonpayable",
      "type": "constructor"
    },
    {
      "inputs": [
        {
          "internalType": "address",
          "name": "spender",
          "type": "address"
        },
        {
          "internalType": "uint256",
          "name": "allowance",
          "type": "uint256"
        },
        {
          "internalType": "uint256",
          "name": "needed",
          "type": "uint256"
        }
      ],
      "name": "ERC20InsufficientAllowance",
      "type": "error"
    },
    {
      "inputs": [
        {
          "internalType": "address",
          "name": "sender",
          "type": "address"
        },
        {
          "internalType": "uint256",
          "name": "balance",
          "type": "uint256"
        },
        {
          "internalType": "uint256",
          "name": "needed",
          "type": "uint256"
        }
      ],
      "name": "ERC20InsufficientBalance",
      "type": "error"
    },
    {
      "inputs": [
        {
          "internalType": "address",
          "name": "approver",
          "type": "address"
        }
      ],
      "name": "ERC20InvalidApprover",
      "type": "error"
    },
    {
      "inputs": [
        {
          "internalType": "address",
          "name": "receiver",
          "type": "address"
        }
      ],
      "name": "ERC20InvalidReceiver",
      "type": "error"
    },
    {
      "inputs": [
        {
          "internalType": "address",
          "name": "sender",
          "type": "address"
        }
      ],
      "name": "ERC20InvalidSender",
      "type": "error"
    },
    {
      "inputs": [
        {
          "internalType": "address",
          "name": "spender",
          "type": "address"
        }
      ],
      "name": "ERC20InvalidSpender",
      "type": "error"
    },
    {
      "inputs": [
        {
          "internalType": "address",
          "name": "owner",
          "type": "address"
        }
      ],
      "name": "OwnableInvalidOwner",
      "type": "error"
    },
    {
      "inputs": [
        {
          "internalType": "address",
          "name": "account",
          "type": "address"
        }
      ],
      "name": "OwnableUnauthorizedAccount",
      "type": "error"
    },
    {
      "anonymous": false,
      "inputs": [
        {
          "indexed": true,
          "internalType": "address",
          "name": "owner",
          "type": "address"
        },
        {
          "indexed": true,
          "internalType": "address",
          "name": "spender",
          "type": "address"
        },
        {
          "indexed": false,
          "internalType": "uint256",
          "name": "value",
          "type": "uint256"
        }
      ],
      "name": "Approval",
      "type": "event"
    },
    {
      "anonymous": false,
      "inputs": [
        {
          "indexed": false,
          "internalType": "uint256",
          "name": "oldInterval",
          "type": "uint256"
        },
        {
          "indexed": false,
          "internalType": "uint256",
          "name": "newInterval",
          "type": "uint256"
        }
      ],
      "name": "MintIntervalUpdated",
      "type": "event"
    },
    {
      "anonymous": false,
      "inputs": [
        {
          "indexed": true,
          "internalType": "address",
          "name": "target",
          "type": "address"
        },
        {
          "indexed": false,
          "internalType": "uint256",
          "name": "amount",
          "type": "uint256"
        }
      ],
      "name": "OwnerMint",
      "type": "event"
    },
    {
      "anonymous": false,
      "inputs": [
        {
          "indexed": true,
          "internalType": "address",
          "name": "previousOwner",
          "type": "address"
        },
        {
          "indexed": true,
          "internalType": "address",
          "name": "newOwner",
          "type": "address"
        }
      ],
      "name": "OwnershipTransferred",
      "type": "event"
    },
    {
      "anonymous": false,
      "inputs": [
        {
          "indexed": true,
          "internalType": "address",
          "name": "from",
          "type": "address"
        },
        {
          "indexed": true,
          "internalType": "address",
          "name": "to",
          "type": "address"
        },
        {
          "indexed": false,
          "internalType": "uint256",
          "name": "value",
          "type": "uint256"
        }
      ],
      "name": "Transfer",
      "type": "event"
    },
    {
      "anonymous": false,
      "inputs": [
        {
          "indexed": true,
          "internalType": "address",
          "name": "minter",
          "type": "address"
        },
        {
          "indexed": false,
          "internalType": "uint256",
          "name": "amount",
          "type": "uint256"
        },
        {
          "indexed": false,
          "internalType": "uint256",
          "name": "nextAvailableMint",
          "type": "uint256"
        }
      ],
      "name": "UserMint",
      "type": "event"
    },
    {
      "inputs": [],
      "name": "DEFAULT_MINT_INTERVAL",
      "outputs": [
        {
          "internalType": "uint256",
          "name": "",
          "type": "uint256"
        }
      ],
      "stateMutability": "view",
      "type": "function"
    },
    {
      "inputs": [],
      "name": "INITIAL_SUPPLY",
      "outputs": [
        {
          "internalType": "uint256",
          "name": "",
          "type": "uint256"
        }
      ],
      "stateMutability": "view",
      "type": "function"
    },
    {
      "inputs": [],
      "name": "USER_MINT_AMOUNT",
      "outputs": [
        {
          "internalType": "uint256",
          "name": "",
          "type": "uint256"
        }
      ],
      "stateMutability": "view",
      "type": "function"
    },
    {
      "inputs": [
        {
          "internalType": "address",
          "name": "owner",
          "type": "address"
        },
        {
          "internalType": "address",
          "name": "spender",
          "type": "address"
        }
      ],
      "name": "allowance",
      "outputs": [
        {
          "internalType": "uint256",
          "name": "",
          "type": "uint256"
        }
      ],
      "stateMutability": "view",
      "type": "function"
    },
    {
      "inputs": [
        {
          "internalType": "address",
          "name": "spender",
          "type": "address"
        },
        {
          "internalType": "uint256",
          "name": "value",
          "type": "uint256"
        }
      ],
      "name": "approve",
      "outputs": [
        {
          "internalType": "bool",
          "name": "",
          "type": "bool"
        }
      ],
      "stateMutability": "nonpayable",
      "type": "function"
    },
    {
      "inputs": [
        {
          "internalType": "address",
          "name": "account",
          "type": "address"
        }
      ],
      "name": "balanceOf",
      "outputs": [
        {
          "internalType": "uint256",
          "name": "",
          "type": "uint256"
        }
      ],
      "stateMutability": "view",
      "type": "function"
    },
    {
      "inputs": [
        {
          "internalType": "address",
          "name": "user",
          "type": "address"
        }
      ],
      "name": "canMint",
      "outputs": [
        {
          "internalType": "bool",
          "name": "",
          "type": "bool"
        }
      ],
      "stateMutability": "view",
      "type": "function"
    },
    {
      "inputs": [],
      "name": "decimals",
      "outputs": [
        {
          "internalType": "uint8",
          "name": "",
          "type": "uint8"
        }
      ],
      "stateMutability": "view",
      "type": "function"
    },
    {
      "inputs": [],
      "name": "getTokenInfo",
      "outputs": [
        {
          "internalType": "string",
          "name": "",
          "type": "string"
        },
        {
          "internalType": "string",
          "name": "",
          "type": "string"
        },
        {
          "internalType": "uint256",
          "name": "",
          "type": "uint256"
        },
        {
          "internalType": "uint256",
          "name": "",
          "type": "uint256"
        }
      ],
      "stateMutability": "view",
      "type": "function"
    },
    {
      "inputs": [
        {
          "internalType": "address",
          "name": "user",
          "type": "address"
        }
      ],
      "name": "getUserMintInfo",
      "outputs": [
        {
          "internalType": "uint256",
          "name": "balance",
          "type": "uint256"
        },
        {
          "internalType": "uint256",
          "name": "lastMint",
          "type": "uint256"
        },
        {
          "internalType": "bool",
          "name": "canMintNow",
          "type": "bool"
        },
        {
          "internalType": "uint256",
          "name": "remainingTime",
          "type": "uint256"
        }
      ],
      "stateMutability": "view",
      "type": "function"
    },
    {
      "inputs": [
        {
          "internalType": "address",
          "name": "",
          "type": "address"
        }
      ],
      "name": "lastMintTime",
      "outputs": [
        {
          "internalType": "uint256",
          "name": "",
          "type": "uint256"
        }
      ],
      "stateMutability": "view",
      "type": "function"
    },
    {
      "inputs": [],
      "name": "mintInterval",
      "outputs": [
        {
          "internalType": "uint256",
          "name": "",
          "type": "uint256"
        }
      ],
      "stateMutability": "view",
      "type": "function"
    },
    {
      "inputs": [],
      "name": "mintToken",
      "outputs": [],
      "stateMutability": "nonpayable",
      "type": "function"
    },
    {
      "inputs": [],
      "name": "name",
      "outputs": [
        {
          "internalType": "string",
          "name": "",
          "type": "string"
        }
      ],
      "stateMutability": "view",
      "type": "function"
    },
    {
      "inputs": [
        {
          "internalType": "address",
          "name": "user",
          "type": "address"
        }
      ],
      "name": "nextMintTime",
      "outputs": [
        {
          "internalType": "uint256",
          "name": "",
          "type": "uint256"
        }
      ],
      "stateMutability": "view",
      "type": "function"
    },
    {
      "inputs": [],
      "name": "owner",
      "outputs": [
        {
          "internalType": "address",
          "name": "",
          "type": "address"
        }
      ],
      "stateMutability": "view",
      "type": "function"
    },
    {
      "inputs": [
        {
          "internalType": "address",
          "name": "target",
          "type": "address"
        },
        {
          "internalType": "uint256",
          "name": "amount",
          "type": "uint256"
        }
      ],
      "name": "ownerMint",
      "outputs": [],
      "stateMutability": "nonpayable",
      "type": "function"
    },
    {
      "inputs": [
        {
          "internalType": "address",
          "name": "user",
          "type": "address"
        }
      ],
      "name": "remainingMintTime",
      "outputs": [
        {
          "internalType": "uint256",
          "name": "",
          "type": "uint256"
        }
      ],
      "stateMutability": "view",
      "type": "function"
    },
    {
      "inputs": [],
      "name": "renounceOwnership",
      "outputs": [],
      "stateMutability": "nonpayable",
      "type": "function"
    },
    {
      "inputs": [
        {
          "internalType": "uint256",
          "name": "newInterval",
          "type": "uint256"
        }
      ],
      "name": "setMintInterval",
      "outputs": [],
      "stateMutability": "nonpayable",
      "type": "function"
    },
    {
      "inputs": [],
      "name": "symbol",
      "outputs": [
        {
          "internalType": "string",
          "name": "",
          "type": "string"
        }
      ],
      "stateMutability": "view",
      "type": "function"
    },
    {
      "inputs": [],
      "name": "totalSupply",
      "outputs": [
        {
          "internalType": "uint256",
          "name": "",
          "type": "uint256"
        }
      ],
      "stateMutability": "view",
      "type": "function"
    },
    {
      "inputs": [
        {
          "internalType": "address",
          "name": "to",
          "type": "address"
        },
        {
          "internalType": "uint256",
          "name": "value",
          "type": "uint256"
        }
      ],
      "name": "transfer",
      "outputs": [
        {
          "internalType": "bool",
          "name": "",
          "type": "bool"
        }
      ],
      "stateMutability": "nonpayable",
      "type": "function"
    },
    {
      "inputs": [
        {
          "internalType": "address",
          "name": "from",
          "type": "address"
        },
        {
          "internalType": "address",
          "name": "to",
          "type": "address"
        },
        {
          "internalType": "uint256",
          "name": "value",
          "type": "uint256"
        }
      ],
      "name": "transferFrom",
      "outputs": [
        {
          "internalType": "bool",
          "name": "",
          "type": "bool"
        }
      ],
      "stateMutability": "nonpayable",
      "type": "function"
    },
    {
      "inputs": [
        {
          "internalType": "address",
          "name": "newOwner",
          "type": "address"
        }
      ],
      "name": "transferOwnership",
      "outputs": [],
      "stateMutability": "nonpayable",
      "type": "function"
    }
  ],
  "bytecode": "0x608060405234801561000f575f5ffd5b5060405161138b38038061138b83398101604081905261002e916102f2565b338282600361003d83826103db565b50600461004a82826103db565b5050506001600160a01b03811661007b57604051631e4fbdf760e01b81525f60048201526024015b60405180910390fd5b610084816100a6565b506100993369152d02c7e14af68000006100f7565b5050610e106007556104ba565b600580546001600160a01b038381166001600160a01b0319831681179093556040519116919082907f8be0079c531659141344cd1fd0a4f28419497f9722a3daafe3b4186f6b6457e0905f90a35050565b6001600160a01b0382166101205760405163ec442f0560e01b81525f6004820152602401610072565b61012b5f838361012f565b5050565b6001600160a01b038316610159578060025f82825461014e9190610495565b909155506101c99050565b6001600160a01b0383165f90815260208190526040902054818110156101ab5760405163391434e360e21b81526001600160a01b03851660048201526024810182905260448101839052606401610072565b6001600160a01b0384165f9081526020819052604090209082900390555b6001600160a01b0382166101e557600280548290039055610203565b6001600160a01b0382165f9081526020819052604090208054820190555b816001600160a01b0316836001600160a01b03167fddf252ad1be2c89b69c2b068fc378daa952ba7f163c4a11628f55a4df523b3ef8360405161024891815260200190565b60405180910390a3505050565b634e487b7160e01b5f52604160045260245ffd5b5f82601f830112610278575f5ffd5b81516001600160401b0381111561029157610291610255565b604051601f8201601f19908116603f011681016001600160401b03811182821017156102bf576102bf610255565b6040528181528382016020018510156102d6575f5ffd5b8160208501602083015e5f918101602001919091529392505050565b5f5f60408385031215610303575f5ffd5b82516001600160401b03811115610318575f5ffd5b61032485828601610269565b602085015190935090506001600160401b03811115610341575f5ffd5b61034d85828601610269565b9150509250929050565b600181811c9082168061036b57607f821691505b60208210810361038957634e487b7160e01b5f52602260045260245ffd5b50919050565b601f8211156103d657805f5260205f20601f840160051c810160208510156103b45750805b601f840160051c820191505b818110156103d3575f81556001016103c0565b50505b505050565b81516001600160401b038111156103f4576103f4610255565b610408816104028454610357565b8461038f565b6020601f82116001811461043a575f83156104235750848201515b5f19600385901b1c1916600184901b1784556103d3565b5f84815260208120601f198516915b828110156104695787850151825560209485019460019092019101610449565b508482101561048657868401515f19600387901b60f8161c191681555b50505050600190811b01905550565b808201808211156104b457634e487b7160e01b5f52601160045260245ffd5b92915050565b610ec4806104c75f395ff3fe608060405234801561000f575f5ffd5b506004361061016d575f3560e01c80636d9a8352116100d957806395d89b4111610093578063c2ba47441161006e578063c2ba474414610336578063cada2a1814610349578063dd62ed3e1461035c578063f2fde38b14610394575f5ffd5b806395d89b4114610303578063a9059cbb1461030b578063abb1dc441461031e575f5ffd5b80636d9a83521461026357806370a082311461029c578063715018a6146102c4578063835af1a9146102cc57806384a59dc6146102df5780638da5cb5b146102e8575f5ffd5b80632ff2e9dc1161012a5780632ff2e9dc146101ee578063313ce567146101ff578063484b973c1461020e5780636432f2111461022157806369fd17a1146102345780636aa71d1814610244575f5ffd5b806306fdde0314610171578063095ea7b31461018f5780630e726e6b146101b257806318160ddd146101c95780632004ffd9146101d157806323b872dd146101db575b5f5ffd5b6101796103a7565b6040516101869190610cf4565b60405180910390f35b6101a261019d366004610d21565b610437565b6040519015158152602001610186565b6101bb60075481565b604051908152602001610186565b6002546101bb565b6101d9610450565b005b6101a26101e9366004610d49565b610543565b6101bb69152d02c7e14af680000081565b60405160128152602001610186565b6101d961021c366004610d21565b610566565b6101bb61022f366004610d83565b61068b565b6101bb68056bc75e2d6310000081565b6101bb610252366004610d83565b60066020525f908152604090205481565b610276610271366004610d83565b6106e9565b604080519485526020850193909352901515918301919091526060820152608001610186565b6101bb6102aa366004610d83565b6001600160a01b03165f9081526020819052604090205490565b6101d9610763565b6101bb6102da366004610d83565b610776565b6101bb610e1081565b6005546040516001600160a01b039091168152602001610186565b6101796107b1565b6101a2610319366004610d21565b6107c0565b6103266107cd565b6040516101869493929190610d9c565b6101a2610344366004610d83565b6107f6565b6101d9610357366004610dd4565b610843565b6101bb61036a366004610deb565b6001600160a01b039182165f90815260016020908152604080832093909416825291909152205490565b6101d96103a2366004610d83565b6108f0565b6060600380546103b690610e1c565b80601f01602080910402602001604051908101604052809291908181526020018280546103e290610e1c565b801561042d5780601f106104045761010080835404028352916020019161042d565b820191905f5260205f20905b81548152906001019060200180831161041057829003601f168201915b5050505050905090565b5f3361044481858561092d565b60019150505b92915050565b3361045a816107f6565b6104c05760405162461bcd60e51b815260206004820152602c60248201527f4d696e7461626c6545524332303a204d757374207761697420666f7220636f6f60448201526b1b191bdddb881c195c9a5bd960a21b60648201526084015b60405180910390fd5b6104d38168056bc75e2d6310000061093f565b6001600160a01b0381165f81815260066020526040902042908190556007547f9486b502a37fda6f02dd212bc295995bb65ef449c115d0d7c733186fad3631f19168056bc75e2d631000009161052891610e68565b6040805192835260208301919091520160405180910390a250565b5f33610550858285610977565b61055b8585856109f3565b506001949350505050565b61056e610a50565b6001600160a01b0382166105d75760405162461bcd60e51b815260206004820152602a60248201527f4d696e7461626c6545524332303a2043616e6e6f74206d696e7420746f207a65604482015269726f206164647265737360b01b60648201526084016104b7565b5f811161063a5760405162461bcd60e51b815260206004820152602b60248201527f4d696e7461626c6545524332303a204d696e7420616d6f756e74206d7573742060448201526a626520706f73697469766560a81b60648201526084016104b7565b610644828261093f565b816001600160a01b03167f76dcb19d73dc6c5a49de41d75b9ab52e3d44ca8cd90c330c238bacb4f8b5b4f58260405161067f91815260200190565b60405180910390a25050565b5f610695826107f6565b156106a157505f919050565b6007546001600160a01b0383165f9081526006602052604081205490916106c791610e68565b90508042106106d857505f92915050565b6106e24282610e7b565b9392505050565b5f5f5f5f61070b856001600160a01b03165f9081526020819052604090205490565b6001600160a01b0386165f908152600660205260409020549094509250610731856107f6565b9150811561074057505f61075c565b426007548461074f9190610e68565b6107599190610e7b565b90505b9193509193565b61076b610a50565b6107745f610a7d565b565b5f610780826107f6565b1561078c57505f919050565b6007546001600160a01b0383165f9081526006602052604090205461044a9190610e68565b6060600480546103b690610e1c565b5f336104448185856109f3565b6060805f5f6107da6103a7565b6107e26107b1565b600254600754935093509350935090919293565b6001600160a01b0381165f90815260066020526040812054158061044a57506007546001600160a01b0383165f9081526006602052604090205461083a9190610e68565b42101592915050565b61084b610a50565b5f81116108ab5760405162461bcd60e51b815260206004820152602860248201527f4d696e7461626c6545524332303a20496e74657276616c206d75737420626520604482015267706f73697469766560c01b60648201526084016104b7565b600780549082905560408051828152602081018490527f2a2694ac21af8daae779b176924d10ef3a8f68ccef508140454650b1c06ded89910160405180910390a15050565b6108f8610a50565b6001600160a01b03811661092157604051631e4fbdf760e01b81525f60048201526024016104b7565b61092a81610a7d565b50565b61093a8383836001610ace565b505050565b6001600160a01b0382166109685760405163ec442f0560e01b81525f60048201526024016104b7565b6109735f8383610ba0565b5050565b6001600160a01b038381165f908152600160209081526040808320938616835292905220545f198110156109ed57818110156109df57604051637dc7a0d960e11b81526001600160a01b038416600482015260248101829052604481018390526064016104b7565b6109ed84848484035f610ace565b50505050565b6001600160a01b038316610a1c57604051634b637e8f60e11b81525f60048201526024016104b7565b6001600160a01b038216610a455760405163ec442f0560e01b81525f60048201526024016104b7565b61093a838383610ba0565b6005546001600160a01b031633146107745760405163118cdaa760e01b81523360048201526024016104b7565b600580546001600160a01b038381166001600160a01b0319831681179093556040519116919082907f8be0079c531659141344cd1fd0a4f28419497f9722a3daafe3b4186f6b6457e0905f90a35050565b6001600160a01b038416610af75760405163e602df0560e01b81525f60048201526024016104b7565b6001600160a01b038316610b2057604051634a1406b160e11b81525f60048201526024016104b7565b6001600160a01b038085165f90815260016020908152604080832093871683529290522082905580156109ed57826001600160a01b0316846001600160a01b03167f8c5be1e5ebec7d5bd14f71427d1e84f3dd0314c0f7b2291e5b200ac8c7c3b92584604051610b9291815260200190565b60405180910390a350505050565b6001600160a01b038316610bca578060025f828254610bbf9190610e68565b90915550610c3a9050565b6001600160a01b0383165f9081526020819052604090205481811015610c1c5760405163391434e360e21b81526001600160a01b038516600482015260248101829052604481018390526064016104b7565b6001600160a01b0384165f9081526020819052604090209082900390555b6001600160a01b038216610c5657600280548290039055610c74565b6001600160a01b0382165f9081526020819052604090208054820190555b816001600160a01b0316836001600160a01b03167fddf252ad1be2c89b69c2b068fc378daa952ba7f163c4a11628f55a4df523b3ef83604051610cb991815260200190565b60405180910390a3505050565b5f81518084528060208401602086015e5f602082860101526020601f19601f83011685010191505092915050565b602081525f6106e26020830184610cc6565b80356001600160a01b0381168114610d1c575f5ffd5b919050565b5f5f60408385031215610d32575f5ffd5b610d3b83610d06565b946020939093013593505050565b5f5f5f60608486031215610d5b575f5ffd5b610d6484610d06565b9250610d7260208501610d06565b929592945050506040919091013590565b5f60208284031215610d93575f5ffd5b6106e282610d06565b608081525f610dae6080830187610cc6565b8281036020840152610dc08187610cc6565b604084019590955250506060015292915050565b5f60208284031215610de4575f5ffd5b5035919050565b5f5f60408385031215610dfc575f5ffd5b610e0583610d06565b9150610e1360208401610d06565b90509250929050565b600181811c90821680610e3057607f821691505b602082108103610e4e57634e487b7160e01b5f52602260045260245ffd5b50919050565b634e487b7160e01b5f52601160045260245ffd5b8082018082111561044a5761044a610e54565b8181038181111561044a5761044a610e5456fea2646970667358221220bc69b142898cbcd3e7ab2bb77c1b8fbdd0366c21fc1b10d52712dc940fc18d7564736f6c634300081c0033",
  "linkReferences": {},
  "deployedLinkReferences": {},
  "immutableReferences": {},
  "inputSourceName": "project/contracts/MintableERC20.sol",
  "buildInfoId": "solc-0_8_28-bad249ce7914d6cc1f1079a09f905805d6f74731"
}