{
  "_format": "hh3-artifact-1",
  "contractName": "PolkadotERC20",
  "sourceName": "contracts/PolkadotERC20.sol",
  "abi": [
    {
      "inputs": [
        {
          "internalType": "string",
          "name": "name_",
          "type": "string"
        },
        {
          "internalType": "string",
          "name": "symbol_",
          "type": "string"
        },
        {
          "internalType": "uint8",
          "name": "decimals_",
          "type": "uint8"
        },
        {
          "internalType": "uint256",
          "name": "initialSupply",
          "type": "uint256"
        }
      ],
      "stateMutability": "nonpayable",
      "type": "constructor"
    },
    {
      "anonymous": false,
      "inputs": [
        {
          "indexed": true,
          "internalType": "address",
          "name": "owner",
          "type": "address"
        },
        {
          "indexed": true,
          "internalType": "address",
          "name": "spender",
          "type": "address"
        },
        {
          "indexed": false,
          "internalType": "uint256",
          "name": "value",
          "type": "uint256"
        }
      ],
      "name": "Approval",
      "type": "event"
    },
    {
      "anonymous": false,
      "inputs": [
        {
          "indexed": true,
          "internalType": "address",
          "name": "from",
          "type": "address"
        },
        {
          "indexed": true,
          "internalType": "address",
          "name": "to",
          "type": "address"
        },
        {
          "indexed": false,
          "internalType": "uint256",
          "name": "value",
          "type": "uint256"
        }
      ],
      "name": "Transfer",
      "type": "event"
    },
    {
      "inputs": [
        {
          "internalType": "address",
          "name": "owner",
          "type": "address"
        },
        {
          "internalType": "address",
          "name": "spender",
          "type": "address"
        }
      ],
      "name": "allowance",
      "outputs": [
        {
          "internalType": "uint256",
          "name": "",
          "type": "uint256"
        }
      ],
      "stateMutability": "view",
      "type": "function"
    },
    {
      "inputs": [
        {
          "internalType": "address",
          "name": "spender",
          "type": "address"
        },
        {
          "internalType": "uint256",
          "name": "amount",
          "type": "uint256"
        }
      ],
      "name": "approve",
      "outputs": [
        {
          "internalType": "bool",
          "name": "",
          "type": "bool"
        }
      ],
      "stateMutability": "nonpayable",
      "type": "function"
    },
    {
      "inputs": [
        {
          "internalType": "address",
          "name": "account",
          "type": "address"
        }
      ],
      "name": "balanceOf",
      "outputs": [
        {
          "internalType": "uint256",
          "name": "",
          "type": "uint256"
        }
      ],
      "stateMutability": "view",
      "type": "function"
    },
    {
      "inputs": [
        {
          "internalType": "uint256",
          "name": "amount",
          "type": "uint256"
        }
      ],
      "name": "burn",
      "outputs": [],
      "stateMutability": "nonpayable",
      "type": "function"
    },
    {
      "inputs": [],
      "name": "decimals",
      "outputs": [
        {
          "internalType": "uint8",
          "name": "",
          "type": "uint8"
        }
      ],
      "stateMutability": "view",
      "type": "function"
    },
    {
      "inputs": [
        {
          "internalType": "address",
          "name": "to",
          "type": "address"
        },
        {
          "internalType": "uint256",
          "name": "amount",
          "type": "uint256"
        }
      ],
      "name": "mint",
      "outputs": [],
      "stateMutability": "nonpayable",
      "type": "function"
    },
    {
      "inputs": [],
      "name": "name",
      "outputs": [
        {
          "internalType": "string",
          "name": "",
          "type": "string"
        }
      ],
      "stateMutability": "view",
      "type": "function"
    },
    {
      "inputs": [],
      "name": "owner",
      "outputs": [
        {
          "internalType": "address",
          "name": "",
          "type": "address"
        }
      ],
      "stateMutability": "view",
      "type": "function"
    },
    {
      "inputs": [],
      "name": "symbol",
      "outputs": [
        {
          "internalType": "string",
          "name": "",
          "type": "string"
        }
      ],
      "stateMutability": "view",
      "type": "function"
    },
    {
      "inputs": [],
      "name": "totalSupply",
      "outputs": [
        {
          "internalType": "uint256",
          "name": "",
          "type": "uint256"
        }
      ],
      "stateMutability": "view",
      "type": "function"
    },
    {
      "inputs": [
        {
          "internalType": "address",
          "name": "to",
          "type": "address"
        },
        {
          "internalType": "uint256",
          "name": "amount",
          "type": "uint256"
        }
      ],
      "name": "transfer",
      "outputs": [
        {
          "internalType": "bool",
          "name": "",
          "type": "bool"
        }
      ],
      "stateMutability": "nonpayable",
      "type": "function"
    },
    {
      "inputs": [
        {
          "internalType": "address",
          "name": "from",
          "type": "address"
        },
        {
          "internalType": "address",
          "name": "to",
          "type": "address"
        },
        {
          "internalType": "uint256",
          "name": "amount",
          "type": "uint256"
        }
      ],
      "name": "transferFrom",
      "outputs": [
        {
          "internalType": "bool",
          "name": "",
          "type": "bool"
        }
      ],
      "stateMutability": "nonpayable",
      "type": "function"
    },
    {
      "inputs": [
        {
          "internalType": "address",
          "name": "newOwner",
          "type": "address"
        }
      ],
      "name": "transferOwnership",
      "outputs": [],
      "stateMutability": "nonpayable",
      "type": "function"
    }
  ],
  "bytecode": "0x608060405234801561000f575f5ffd5b50604051610f33380380610f3383398101604081905261002e91610171565b5f6100398582610278565b5060016100468482610278565b506002805460ff841660ff19909116179055600680546001600160a01b0319163317905561007582600a61042b565b61007f9082610440565b6003819055335f81815260046020908152604080832085905551938452919290917fddf252ad1be2c89b69c2b068fc378daa952ba7f163c4a11628f55a4df523b3ef910160405180910390a350505050610457565b634e487b7160e01b5f52604160045260245ffd5b5f82601f8301126100f7575f5ffd5b81516001600160401b03811115610110576101106100d4565b604051601f8201601f19908116603f011681016001600160401b038111828210171561013e5761013e6100d4565b604052818152838201602001851015610155575f5ffd5b8160208501602083015e5f918101602001919091529392505050565b5f5f5f5f60808587031215610184575f5ffd5b84516001600160401b03811115610199575f5ffd5b6101a5878288016100e8565b602087015190955090506001600160401b038111156101c2575f5ffd5b6101ce878288016100e8565b935050604085015160ff811681146101e4575f5ffd5b6060959095015193969295505050565b600181811c9082168061020857607f821691505b60208210810361022657634e487b7160e01b5f52602260045260245ffd5b50919050565b601f82111561027357805f5260205f20601f840160051c810160208510156102515750805b601f840160051c820191505b81811015610270575f815560010161025d565b50505b505050565b81516001600160401b03811115610291576102916100d4565b6102a58161029f84546101f4565b8461022c565b6020601f8211600181146102d7575f83156102c05750848201515b5f19600385901b1c1916600184901b178455610270565b5f84815260208120601f198516915b8281101561030657878501518255602094850194600190920191016102e6565b508482101561032357868401515f19600387901b60f8161c191681555b50505050600190811b01905550565b634e487b7160e01b5f52601160045260245ffd5b6001815b60018411156103815780850481111561036557610365610332565b600184161561037357908102905b60019390931c92800261034a565b935093915050565b5f8261039757506001610425565b816103a357505f610425565b81600181146103b957600281146103c3576103df565b6001915050610425565b60ff8411156103d4576103d4610332565b50506001821b610425565b5060208310610133831016604e8410600b8410161715610402575081810a610425565b61040e5f198484610346565b805f190482111561042157610421610332565b0290505b92915050565b5f61043960ff841683610389565b9392505050565b808202811582820484141761042557610425610332565b610acf806104645f395ff3fe608060405234801561000f575f5ffd5b50600436106100cb575f3560e01c806342966c681161008857806395d89b411161006357806395d89b41146101b5578063a9059cbb146101bd578063dd62ed3e146101d0578063f2fde38b14610208575f5ffd5b806342966c681461015f57806370a08231146101725780638da5cb5b1461019a575f5ffd5b806306fdde03146100cf578063095ea7b3146100ed57806318160ddd1461011057806323b872dd14610122578063313ce5671461013557806340c10f191461014a575b5f5ffd5b6100d761021b565b6040516100e49190610928565b60405180910390f35b6101006100fb366004610978565b6102aa565b60405190151581526020016100e4565b6003545b6040519081526020016100e4565b6101006101303660046109a0565b6102c0565b60025460405160ff90911681526020016100e4565b61015d610158366004610978565b6102e1565b005b61015d61016d3660046109da565b6103ff565b6101146101803660046109f1565b6001600160a01b03165f9081526004602052604090205490565b6006546040516001600160a01b0390911681526020016100e4565b6100d76104c9565b6101006101cb366004610978565b6104d8565b6101146101de366004610a11565b6001600160a01b039182165f90815260056020908152604080832093909416825291909152205490565b61015d6102163660046109f1565b6104e4565b60605f805461022990610a42565b80601f016020809104026020016040519081016040528092919081815260200182805461025590610a42565b80156102a05780601f10610277576101008083540402835291602001916102a0565b820191905f5260205f20905b81548152906001019060200180831161028357829003601f168201915b5050505050905090565b5f6102b63384846105d3565b5060015b92915050565b5f6102cc8433846106ee565b6102d784848461077e565b5060019392505050565b6006546001600160a01b031633146103405760405162461bcd60e51b815260206004820152601a60248201527f45524332303a206f6e6c79206f776e65722063616e206d696e7400000000000060448201526064015b60405180910390fd5b6001600160a01b0382166103965760405162461bcd60e51b815260206004820152601f60248201527f45524332303a206d696e7420746f20746865207a65726f2061646472657373006044820152606401610337565b8060035f8282546103a79190610a7a565b90915550506001600160a01b0382165f818152600460209081526040808320805486019055518481527fddf252ad1be2c89b69c2b068fc378daa952ba7f163c4a11628f55a4df523b3ef910160405180910390a35050565b335f81815260046020526040902054828110156104695760405162461bcd60e51b815260206004820152602260248201527f45524332303a206275726e20616d6f756e7420657863656564732062616c616e604482015261636560f01b6064820152608401610337565b6001600160a01b0382165f8181526004602090815260408083208786039055600380548890039055518681529192917fddf252ad1be2c89b69c2b068fc378daa952ba7f163c4a11628f55a4df523b3ef91015b60405180910390a3505050565b60606001805461022990610a42565b5f6102b633848461077e565b6006546001600160a01b0316331461054f5760405162461bcd60e51b815260206004820152602860248201527f45524332303a206f6e6c79206f776e65722063616e207472616e73666572206f6044820152670776e6572736869760c41b6064820152608401610337565b6001600160a01b0381166105b15760405162461bcd60e51b8152602060048201526024808201527f45524332303a206e6577206f776e657220697320746865207a65726f206164646044820152637265737360e01b6064820152608401610337565b600680546001600160a01b0319166001600160a01b0392909216919091179055565b6001600160a01b0383166106355760405162461bcd60e51b8152602060048201526024808201527f45524332303a20617070726f76652066726f6d20746865207a65726f206164646044820152637265737360e01b6064820152608401610337565b6001600160a01b0382166106965760405162461bcd60e51b815260206004820152602260248201527f45524332303a20617070726f766520746f20746865207a65726f206164647265604482015261737360f01b6064820152608401610337565b6001600160a01b038381165f8181526005602090815260408083209487168084529482529182902085905590518481527f8c5be1e5ebec7d5bd14f71427d1e84f3dd0314c0f7b2291e5b200ac8c7c3b92591016104bc565b6001600160a01b038381165f908152600560209081526040808320938616835292905220545f198114610778578181101561076b5760405162461bcd60e51b815260206004820152601d60248201527f45524332303a20696e73756666696369656e7420616c6c6f77616e63650000006044820152606401610337565b61077884848484036105d3565b50505050565b6001600160a01b0383166107e25760405162461bcd60e51b815260206004820152602560248201527f45524332303a207472616e736665722066726f6d20746865207a65726f206164604482015264647265737360d81b6064820152608401610337565b6001600160a01b0382166108445760405162461bcd60e51b815260206004820152602360248201527f45524332303a207472616e7366657220746f20746865207a65726f206164647260448201526265737360e81b6064820152608401610337565b6001600160a01b0383165f90815260046020526040902054818110156108bb5760405162461bcd60e51b815260206004820152602660248201527f45524332303a207472616e7366657220616d6f756e7420657863656564732062604482015265616c616e636560d01b6064820152608401610337565b6001600160a01b038085165f8181526004602052604080822086860390559286168082529083902080548601905591517fddf252ad1be2c89b69c2b068fc378daa952ba7f163c4a11628f55a4df523b3ef9061091a9086815260200190565b60405180910390a350505050565b602081525f82518060208401528060208501604085015e5f604082850101526040601f19601f83011684010191505092915050565b80356001600160a01b0381168114610973575f5ffd5b919050565b5f5f60408385031215610989575f5ffd5b6109928361095d565b946020939093013593505050565b5f5f5f606084860312156109b2575f5ffd5b6109bb8461095d565b92506109c96020850161095d565b929592945050506040919091013590565b5f602082840312156109ea575f5ffd5b5035919050565b5f60208284031215610a01575f5ffd5b610a0a8261095d565b9392505050565b5f5f60408385031215610a22575f5ffd5b610a2b8361095d565b9150610a396020840161095d565b90509250929050565b600181811c90821680610a5657607f821691505b602082108103610a7457634e487b7160e01b5f52602260045260245ffd5b50919050565b808201808211156102ba57634e487b7160e01b5f52601160045260245ffdfea264697066735822122093dbf4af68c6e4bd07faf7ecb174fb996c8f5c5a545dd60f10ffb7d225a4567a64736f6c634300081c0033",
  "linkReferences": {},
  "deployedLinkReferences": {},
  "immutableReferences": {},
  "inputSourceName": "project/contracts/PolkadotERC20.sol",
  "buildInfoId": "solc-0_8_28-5ae528be67a446374a505138556edad6f63665e3"
}