{"contracts/Logic.sol":{"Logic":{"abi":[{"inputs":[],"name":"counter","outputs":[{"internalType":"uint256","name":"","type":"uint256"}],"stateMutability":"view","type":"function"},{"inputs":[],"name":"getCounter","outputs":[{"internalType":"uint256","name":"","type":"uint256"}],"stateMutability":"view","type":"function"},{"inputs":[],"name":"increment","outputs":[],"stateMutability":"nonpayable","type":"function"},{"inputs":[{"internalType":"uint256","name":"amount","type":"uint256"}],"name":"incrementBy","outputs":[],"stateMutability":"nonpayable","type":"function"},{"inputs":[{"internalType":"uint256","name":"value","type":"uint256"}],"name":"setCounter","outputs":[],"stateMutability":"nonpayable","type":"function"}],"evm":{"bytecode":{"linkReferences":{},"object":"608060405234801561001057600080fd5b50610157806100206000396000f3fe608060405234801561001057600080fd5b50600436106100575760003560e01c806303df179c1461005c57806361bc221a146100715780638ada066e1461008c5780638bb5d9c314610094578063d09de08a146100a7575b600080fd5b61006f61006a3660046100e1565b6100af565b005b61007a60005481565b60405190815260200160405180910390f35b60005461007a565b61006f6100a23660046100e1565b600055565b61006f6100c8565b806000808282546100c091906100fa565b909155505050565b60016000808282546100da91906100fa565b9091555050565b6000602082840312156100f357600080fd5b5035919050565b8082018082111561011b57634e487b7160e01b600052601160045260246000fd5b9291505056fea2646970667358221220735d2241fc5eff15e3a52d9ed7dfce7aa567ff226c32662727b10dabf0497f4364736f6c63430008180033","opcodes":"PUSH1 0x80 PUSH1 0x40 MSTORE CALLVALUE DUP1 ISZERO PUSH2 0x10 JUMPI PUSH1 0x0 DUP1 REVERT JUMPDEST POP PUSH2 0x157 DUP1 PUSH2 0x20 PUSH1 0x0 CODECOPY PUSH1 0x0 RETURN INVALID PUSH1 0x80 PUSH1 0x40 MSTORE CALLVALUE DUP1 ISZERO PUSH2 0x10 JUMPI PUSH1 0x0 DUP1 REVERT JUMPDEST POP PUSH1 0x4 CALLDATASIZE LT PUSH2 0x57 JUMPI PUSH1 0x0 CALLDATALOAD PUSH1 0xE0 SHR DUP1 PUSH4 0x3DF179C EQ PUSH2 0x5C JUMPI DUP1 PUSH4 0x61BC221A EQ PUSH2 0x71 JUMPI DUP1 PUSH4 0x8ADA066E EQ PUSH2 0x8C JUMPI DUP1 PUSH4 0x8BB5D9C3 EQ PUSH2 0x94 JUMPI DUP1 PUSH4 0xD09DE08A EQ PUSH2 0xA7 JUMPI JUMPDEST PUSH1 0x0 DUP1 REVERT JUMPDEST PUSH2 0x6F PUSH2 0x6A CALLDATASIZE PUSH1 0x4 PUSH2 0xE1 JUMP JUMPDEST PUSH2 0xAF JUMP JUMPDEST STOP JUMPDEST PUSH2 0x7A PUSH1 0x0 SLOAD DUP2 JUMP JUMPDEST PUSH1 0x40 MLOAD SWAP1 DUP2 MSTORE PUSH1 0x20 ADD PUSH1 0x40 MLOAD DUP1 SWAP2 SUB SWAP1 RETURN JUMPDEST PUSH1 0x0 SLOAD PUSH2 0x7A JUMP JUMPDEST PUSH2 0x6F PUSH2 0xA2 CALLDATASIZE PUSH1 0x4 PUSH2 0xE1 JUMP JUMPDEST PUSH1 0x0 SSTORE JUMP JUMPDEST PUSH2 0x6F PUSH2 0xC8 JUMP JUMPDEST DUP1 PUSH1 0x0 DUP1 DUP3 DUP3 SLOAD PUSH2 0xC0 SWAP2 SWAP1 PUSH2 0xFA JUMP JUMPDEST SWAP1 SWAP2 SSTORE POP POP POP JUMP JUMPDEST PUSH1 0x1 PUSH1 0x0 DUP1 DUP3 DUP3 SLOAD PUSH2 0xDA SWAP2 SWAP1 PUSH2 0xFA JUMP JUMPDEST SWAP1 SWAP2 SSTORE POP POP JUMP JUMPDEST PUSH1 0x0 PUSH1 0x20 DUP3 DUP5 SUB SLT ISZERO PUSH2 0xF3 JUMPI PUSH1 0x0 DUP1 REVERT JUMPDEST POP CALLDATALOAD SWAP2 SWAP1 POP JUMP JUMPDEST DUP1 DUP3 ADD DUP1 DUP3 GT ISZERO PUSH2 0x11B JUMPI PUSH4 0x4E487B71 PUSH1 0xE0 SHL PUSH1 0x0 MSTORE PUSH1 0x11 PUSH1 0x4 MSTORE PUSH1 0x24 PUSH1 0x0 REVERT JUMPDEST SWAP3 SWAP2 POP POP JUMP INVALID LOG2 PUSH5 0x6970667358 0x22 SLT KECCAK256 PUSH20 0x5D2241FC5EFF15E3A52D9ED7DFCE7AA567FF226C ORIGIN PUSH7 0x2727B10DABF049 PUSH32 0x4364736F6C634300081800330000000000000000000000000000000000000000 "},"methodIdentifiers":{"counter()":"61bc221a","getCounter()":"8ada066e","increment()":"d09de08a","incrementBy(uint256)":"03df179c","setCounter(uint256)":"8bb5d9c3"}}}}}