{
  "_format": "hh-sol-artifact-1",
  "contractName": "MyERC20",
  "sourceName": "contracts/MyERC20.sol",
  "abi": [
    {
      "inputs": [
        {
          "internalType": "string",
          "name": "name_",
          "type": "string"
        },
        {
          "internalType": "string",
          "name": "symbol_",
          "type": "string"
        },
        {
          "internalType": "uint8",
          "name": "decimals_",
          "type": "uint8"
        },
        {
          "internalType": "uint256",
          "name": "initialSupply_",
          "type": "uint256"
        }
      ],
      "stateMutability": "nonpayable",
      "type": "constructor"
    },
    {
      "anonymous": false,
      "inputs": [
        {
          "indexed": true,
          "internalType": "address",
          "name": "owner",
          "type": "address"
        },
        {
          "indexed": true,
          "internalType": "address",
          "name": "spender",
          "type": "address"
        },
        {
          "indexed": false,
          "internalType": "uint256",
          "name": "value",
          "type": "uint256"
        }
      ],
      "name": "Approval",
      "type": "event"
    },
    {
      "anonymous": false,
      "inputs": [
        {
          "indexed": true,
          "internalType": "address",
          "name": "from",
          "type": "address"
        },
        {
          "indexed": true,
          "internalType": "address",
          "name": "to",
          "type": "address"
        },
        {
          "indexed": false,
          "internalType": "uint256",
          "name": "value",
          "type": "uint256"
        }
      ],
      "name": "Transfer",
      "type": "event"
    },
    {
      "inputs": [
        {
          "internalType": "address",
          "name": "owner",
          "type": "address"
        },
        {
          "internalType": "address",
          "name": "spender",
          "type": "address"
        }
      ],
      "name": "allowance",
      "outputs": [
        {
          "internalType": "uint256",
          "name": "",
          "type": "uint256"
        }
      ],
      "stateMutability": "view",
      "type": "function"
    },
    {
      "inputs": [
        {
          "internalType": "address",
          "name": "spender",
          "type": "address"
        },
        {
          "internalType": "uint256",
          "name": "amount",
          "type": "uint256"
        }
      ],
      "name": "approve",
      "outputs": [
        {
          "internalType": "bool",
          "name": "",
          "type": "bool"
        }
      ],
      "stateMutability": "nonpayable",
      "type": "function"
    },
    {
      "inputs": [
        {
          "internalType": "address",
          "name": "account",
          "type": "address"
        }
      ],
      "name": "balanceOf",
      "outputs": [
        {
          "internalType": "uint256",
          "name": "",
          "type": "uint256"
        }
      ],
      "stateMutability": "view",
      "type": "function"
    },
    {
      "inputs": [],
      "name": "cap",
      "outputs": [
        {
          "internalType": "uint256",
          "name": "",
          "type": "uint256"
        }
      ],
      "stateMutability": "view",
      "type": "function"
    },
    {
      "inputs": [],
      "name": "decimals",
      "outputs": [
        {
          "internalType": "uint8",
          "name": "",
          "type": "uint8"
        }
      ],
      "stateMutability": "view",
      "type": "function"
    },
    {
      "inputs": [
        {
          "internalType": "uint256",
          "name": "amount",
          "type": "uint256"
        }
      ],
      "name": "mint",
      "outputs": [
        {
          "internalType": "bool",
          "name": "",
          "type": "bool"
        }
      ],
      "stateMutability": "nonpayable",
      "type": "function"
    },
    {
      "inputs": [],
      "name": "name",
      "outputs": [
        {
          "internalType": "string",
          "name": "",
          "type": "string"
        }
      ],
      "stateMutability": "view",
      "type": "function"
    },
    {
      "inputs": [],
      "name": "symbol",
      "outputs": [
        {
          "internalType": "string",
          "name": "",
          "type": "string"
        }
      ],
      "stateMutability": "view",
      "type": "function"
    },
    {
      "inputs": [],
      "name": "totalSupply",
      "outputs": [
        {
          "internalType": "uint256",
          "name": "",
          "type": "uint256"
        }
      ],
      "stateMutability": "view",
      "type": "function"
    },
    {
      "inputs": [
        {
          "internalType": "address",
          "name": "to",
          "type": "address"
        },
        {
          "internalType": "uint256",
          "name": "amount",
          "type": "uint256"
        }
      ],
      "name": "transfer",
      "outputs": [
        {
          "internalType": "bool",
          "name": "",
          "type": "bool"
        }
      ],
      "stateMutability": "nonpayable",
      "type": "function"
    },
    {
      "inputs": [
        {
          "internalType": "address",
          "name": "from",
          "type": "address"
        },
        {
          "internalType": "address",
          "name": "to",
          "type": "address"
        },
        {
          "internalType": "uint256",
          "name": "amount",
          "type": "uint256"
        }
      ],
      "name": "transferFrom",
      "outputs": [
        {
          "internalType": "bool",
          "name": "",
          "type": "bool"
        }
      ],
      "stateMutability": "nonpayable",
      "type": "function"
    }
  ],
  "bytecode": "0x60806040523480156200001157600080fd5b50604051620010d1380380620010d183398101604081905262000034916200030b565b600062000042858262000427565b50600162000051848262000427565b506002805460ff191660ff84169081179091556200007190600a62000608565b62000081906301406f406200061d565b6004819055811115620000e55760405162461bcd60e51b815260206004820152602160248201527f45524332303a20696e697469616c20737570706c7920657863656564732063616044820152600760fc1b60648201526084015b60405180910390fd5b620000f13382620000fb565b505050506200064d565b6001600160a01b038216620001535760405162461bcd60e51b815260206004820152601360248201527f45524332303a206d696e7420746f207a65726f000000000000000000000000006044820152606401620000dc565b6004548160035462000166919062000637565b1115620001b65760405162461bcd60e51b815260206004820152601360248201527f45524332303a20636170206578636565646564000000000000000000000000006044820152606401620000dc565b8060036000828254620001ca919062000637565b90915550506001600160a01b03821660009081526005602052604081208054839290620001f990849062000637565b90915550506040518181526001600160a01b038316906000907fddf252ad1be2c89b69c2b068fc378daa952ba7f163c4a11628f55a4df523b3ef9060200160405180910390a35050565b634e487b7160e01b600052604160045260246000fd5b600082601f8301126200026b57600080fd5b81516001600160401b038082111562000288576200028862000243565b604051601f8301601f19908116603f01168101908282118183101715620002b357620002b362000243565b8160405283815260209250866020858801011115620002d157600080fd5b600091505b83821015620002f55785820183015181830184015290820190620002d6565b6000602085830101528094505050505092915050565b600080600080608085870312156200032257600080fd5b84516001600160401b03808211156200033a57600080fd5b620003488883890162000259565b955060208701519150808211156200035f57600080fd5b506200036e8782880162000259565b935050604085015160ff811681146200038657600080fd5b6060959095015193969295505050565b600181811c90821680620003ab57607f821691505b602082108103620003cc57634e487b7160e01b600052602260045260246000fd5b50919050565b601f82111562000422576000816000526020600020601f850160051c81016020861015620003fd5750805b601f850160051c820191505b818110156200041e5782815560010162000409565b5050505b505050565b81516001600160401b0381111562000443576200044362000243565b6200045b8162000454845462000396565b84620003d2565b602080601f8311600181146200049357600084156200047a5750858301515b600019600386901b1c1916600185901b1785556200041e565b600085815260208120601f198616915b82811015620004c457888601518255948401946001909101908401620004a3565b5085821015620004e35787850151600019600388901b60f8161c191681555b5050505050600190811b01905550565b634e487b7160e01b600052601160045260246000fd5b600181815b808511156200054a5781600019048211156200052e576200052e620004f3565b808516156200053c57918102915b93841c93908002906200050e565b509250929050565b600082620005635750600162000602565b81620005725750600062000602565b81600181146200058b57600281146200059657620005b6565b600191505062000602565b60ff841115620005aa57620005aa620004f3565b50506001821b62000602565b5060208310610133831016604e8410600b8410161715620005db575081810a62000602565b620005e7838362000509565b8060001904821115620005fe57620005fe620004f3565b0290505b92915050565b600062000616838362000552565b9392505050565b8082028115828204841417620006025762000602620004f3565b80820180821115620006025762000602620004f3565b610a74806200065d6000396000f3fe608060405234801561001057600080fd5b50600436106100a95760003560e01c8063355274ea11610071578063355274ea1461012957806370a082311461013157806395d89b411461015a578063a0712d6814610162578063a9059cbb14610175578063dd62ed3e1461018857600080fd5b806306fdde03146100ae578063095ea7b3146100cc57806318160ddd146100ef57806323b872dd14610101578063313ce56714610114575b600080fd5b6100b66101c1565b6040516100c39190610795565b60405180910390f35b6100df6100da366004610800565b610253565b60405190151581526020016100c3565b6003545b6040519081526020016100c3565b6100df61010f36600461082a565b61026a565b60025460405160ff90911681526020016100c3565b6004546100f3565b6100f361013f366004610866565b6001600160a01b031660009081526005602052604090205490565b6100b6610306565b6100df610170366004610888565b610315565b6100df610183366004610800565b6103d5565b6100f36101963660046108a1565b6001600160a01b03918216600090815260066020908152604080832093909416825291909152205490565b6060600080546101d0906108d4565b80601f01602080910402602001604051908101604052809291908181526020018280546101fc906108d4565b80156102495780601f1061021e57610100808354040283529160200191610249565b820191906000526020600020905b81548152906001019060200180831161022c57829003601f168201915b5050505050905090565b60006102603384846103e2565b5060015b92915050565b6001600160a01b0383166000908152600660209081526040808320338452909152812054828110156102e35760405162461bcd60e51b815260206004820152601d60248201527f45524332303a20696e73756666696369656e7420616c6c6f77616e636500000060448201526064015b60405180910390fd5b6102f085338584036103e2565b6102fb8585856104e8565b506001949350505050565b6060600180546101d0906108d4565b60008082116103595760405162461bcd60e51b815260206004820152601060248201526f45524332303a206d696e74207a65726f60801b60448201526064016102da565b60025460009061036d9060ff16600a610a08565b610379906103e8610a14565b9050808311156103cb5760405162461bcd60e51b815260206004820152601a60248201527f45524332303a206578636565647320313030302070657220747800000000000060448201526064016102da565b610260338461066b565b60006102603384846104e8565b6001600160a01b0383166104385760405162461bcd60e51b815260206004820152601860248201527f45524332303a20617070726f76652066726f6d207a65726f000000000000000060448201526064016102da565b6001600160a01b0382166104875760405162461bcd60e51b815260206004820152601660248201527545524332303a20617070726f766520746f207a65726f60501b60448201526064016102da565b6001600160a01b0383811660008181526006602090815260408083209487168084529482529182902085905590518481527f8c5be1e5ebec7d5bd14f71427d1e84f3dd0314c0f7b2291e5b200ac8c7c3b925910160405180910390a3505050565b6001600160a01b03831661053e5760405162461bcd60e51b815260206004820152601960248201527f45524332303a207472616e736665722066726f6d207a65726f0000000000000060448201526064016102da565b6001600160a01b0382166105945760405162461bcd60e51b815260206004820152601760248201527f45524332303a207472616e7366657220746f207a65726f00000000000000000060448201526064016102da565b6001600160a01b038316600090815260056020526040902054818110156105fd5760405162461bcd60e51b815260206004820152601f60248201527f45524332303a207472616e7366657220657863656564732062616c616e63650060448201526064016102da565b6001600160a01b0380851660008181526005602052604080822086860390559286168082529083902080548601905591517fddf252ad1be2c89b69c2b068fc378daa952ba7f163c4a11628f55a4df523b3ef9061065d9086815260200190565b60405180910390a350505050565b6001600160a01b0382166106b75760405162461bcd60e51b815260206004820152601360248201527245524332303a206d696e7420746f207a65726f60681b60448201526064016102da565b600454816003546106c89190610a2b565b111561070c5760405162461bcd60e51b8152602060048201526013602482015272115490cc8c0e8818d85c08195e18d959591959606a1b60448201526064016102da565b806003600082825461071e9190610a2b565b90915550506001600160a01b0382166000908152600560205260408120805483929061074b908490610a2b565b90915550506040518181526001600160a01b038316906000907fddf252ad1be2c89b69c2b068fc378daa952ba7f163c4a11628f55a4df523b3ef9060200160405180910390a35050565b60006020808352835180602085015260005b818110156107c3578581018301518582016040015282016107a7565b506000604082860101526040601f19601f8301168501019250505092915050565b80356001600160a01b03811681146107fb57600080fd5b919050565b6000806040838503121561081357600080fd5b61081c836107e4565b946020939093013593505050565b60008060006060848603121561083f57600080fd5b610848846107e4565b9250610856602085016107e4565b9150604084013590509250925092565b60006020828403121561087857600080fd5b610881826107e4565b9392505050565b60006020828403121561089a57600080fd5b5035919050565b600080604083850312156108b457600080fd5b6108bd836107e4565b91506108cb602084016107e4565b90509250929050565b600181811c908216806108e857607f821691505b60208210810361090857634e487b7160e01b600052602260045260246000fd5b50919050565b634e487b7160e01b600052601160045260246000fd5b600181815b8085111561095f5781600019048211156109455761094561090e565b8085161561095257918102915b93841c9390800290610929565b509250929050565b60008261097657506001610264565b8161098357506000610264565b816001811461099957600281146109a3576109bf565b6001915050610264565b60ff8411156109b4576109b461090e565b50506001821b610264565b5060208310610133831016604e8410600b84101617156109e2575081810a610264565b6109ec8383610924565b8060001904821115610a0057610a0061090e565b029392505050565b60006108818383610967565b80820281158282048414176102645761026461090e565b808201808211156102645761026461090e56fea2646970667358221220502c008f65668629f6648163b3c92aa13741684d010d442721b712ace9991b6964736f6c63430008180033",
  "linkReferences": {},
  "deployedLinkReferences": {}
}