{
  "_format": "hh-sol-artifact-1",
  "contractName": "ReentrancyVulnerableBank",
  "sourceName": "contracts/ReentrancyA.sol",
  "abi": [
    {
      "inputs": [],
      "name": "deposit",
      "outputs": [],
      "stateMutability": "payable",
      "type": "function"
    },
    {
      "inputs": [],
      "name": "getBalance",
      "outputs": [
        {
          "internalType": "uint256",
          "name": "",
          "type": "uint256"
        }
      ],
      "stateMutability": "view",
      "type": "function"
    },
    {
      "inputs": [],
      "name": "getContractBalance",
      "outputs": [
        {
          "internalType": "uint256",
          "name": "",
          "type": "uint256"
        }
      ],
      "stateMutability": "view",
      "type": "function"
    },
    {
      "inputs": [
        {
          "internalType": "uint256",
          "name": "amount",
          "type": "uint256"
        }
      ],
      "name": "withdraw",
      "outputs": [],
      "stateMutability": "nonpayable",
      "type": "function"
    }
  ],
  "bytecode": "0x608060405234801561001057600080fd5b50610586806100206000396000f3fe60806040526004361061003f5760003560e01c806312065fe0146100445780632e1a7d4d1461006f5780636f9fb98a14610098578063d0e30db0146100c3575b600080fd5b34801561005057600080fd5b506100596100cd565b6040516100669190610311565b60405180910390f35b34801561007b57600080fd5b506100966004803603810190610091919061035d565b610113565b005b3480156100a457600080fd5b506100ad610299565b6040516100ba9190610311565b60405180910390f35b6100cb6102a1565b005b60008060003373ffffffffffffffffffffffffffffffffffffffff1673ffffffffffffffffffffffffffffffffffffffff16815260200190815260200160002054905090565b806000803373ffffffffffffffffffffffffffffffffffffffff1673ffffffffffffffffffffffffffffffffffffffff168152602001908152602001600020541015610194576040517f08c379a000000000000000000000000000000000000000000000000000000000815260040161018b906103e7565b60405180910390fd5b60003373ffffffffffffffffffffffffffffffffffffffff16826040516101ba90610438565b60006040518083038185875af1925050503d80600081146101f7576040519150601f19603f3d011682016040523d82523d6000602084013e6101fc565b606091505b5050905080610240576040517f08c379a000000000000000000000000000000000000000000000000000000000815260040161023790610499565b60405180910390fd5b816000803373ffffffffffffffffffffffffffffffffffffffff1673ffffffffffffffffffffffffffffffffffffffff168152602001908152602001600020600082825461028e91906104e8565b925050819055505050565b600047905090565b346000803373ffffffffffffffffffffffffffffffffffffffff1673ffffffffffffffffffffffffffffffffffffffff16815260200190815260200160002060008282546102ef919061051c565b92505081905550565b6000819050919050565b61030b816102f8565b82525050565b60006020820190506103266000830184610302565b92915050565b600080fd5b61033a816102f8565b811461034557600080fd5b50565b60008135905061035781610331565b92915050565b6000602082840312156103735761037261032c565b5b600061038184828501610348565b91505092915050565b600082825260208201905092915050565b7f496e73756666696369656e742062616c616e6365000000000000000000000000600082015250565b60006103d160148361038a565b91506103dc8261039b565b602082019050919050565b60006020820190508181036000830152610400816103c4565b9050919050565b600081905092915050565b50565b6000610422600083610407565b915061042d82610412565b600082019050919050565b600061044382610415565b9150819050919050565b7f4661696c656420746f2073656e64204574686572000000000000000000000000600082015250565b600061048360148361038a565b915061048e8261044d565b602082019050919050565b600060208201905081810360008301526104b281610476565b9050919050565b7f4e487b7100000000000000000000000000000000000000000000000000000000600052601160045260246000fd5b60006104f3826102f8565b91506104fe836102f8565b9250828203905081811115610516576105156104b9565b5b92915050565b6000610527826102f8565b9150610532836102f8565b925082820190508082111561054a576105496104b9565b5b9291505056fea26469706673582212203b5acd64d8eea6aba753648c19ed864f01bd7cffee5e39a39335f202be52cde064736f6c63430008130033",
  "linkReferences": {},
  "deployedLinkReferences": {}
}