{
  "_format": "hh3-artifact-1",
  "contractName": "MintableERC20",
  "sourceName": "contracts/MintableERC20.sol",
  "abi": [
    {
      "inputs": [
        {
          "internalType": "string",
          "name": "_name",
          "type": "string"
        },
        {
          "internalType": "string",
          "name": "_symbol",
          "type": "string"
        }
      ],
      "stateMutability": "nonpayable",
      "type": "constructor"
    },
    {
      "inputs": [
        {
          "internalType": "address",
          "name": "spender",
          "type": "address"
        },
        {
          "internalType": "uint256",
          "name": "allowance",
          "type": "uint256"
        },
        {
          "internalType": "uint256",
          "name": "needed",
          "type": "uint256"
        }
      ],
      "name": "ERC20InsufficientAllowance",
      "type": "error"
    },
    {
      "inputs": [
        {
          "internalType": "address",
          "name": "sender",
          "type": "address"
        },
        {
          "internalType": "uint256",
          "name": "balance",
          "type": "uint256"
        },
        {
          "internalType": "uint256",
          "name": "needed",
          "type": "uint256"
        }
      ],
      "name": "ERC20InsufficientBalance",
      "type": "error"
    },
    {
      "inputs": [
        {
          "internalType": "address",
          "name": "approver",
          "type": "address"
        }
      ],
      "name": "ERC20InvalidApprover",
      "type": "error"
    },
    {
      "inputs": [
        {
          "internalType": "address",
          "name": "receiver",
          "type": "address"
        }
      ],
      "name": "ERC20InvalidReceiver",
      "type": "error"
    },
    {
      "inputs": [
        {
          "internalType": "address",
          "name": "sender",
          "type": "address"
        }
      ],
      "name": "ERC20InvalidSender",
      "type": "error"
    },
    {
      "inputs": [
        {
          "internalType": "address",
          "name": "spender",
          "type": "address"
        }
      ],
      "name": "ERC20InvalidSpender",
      "type": "error"
    },
    {
      "anonymous": false,
      "inputs": [
        {
          "indexed": true,
          "internalType": "address",
          "name": "owner",
          "type": "address"
        },
        {
          "indexed": true,
          "internalType": "address",
          "name": "spender",
          "type": "address"
        },
        {
          "indexed": false,
          "internalType": "uint256",
          "name": "value",
          "type": "uint256"
        }
      ],
      "name": "Approval",
      "type": "event"
    },
    {
      "anonymous": false,
      "inputs": [
        {
          "indexed": true,
          "internalType": "address",
          "name": "from",
          "type": "address"
        },
        {
          "indexed": true,
          "internalType": "address",
          "name": "to",
          "type": "address"
        },
        {
          "indexed": false,
          "internalType": "uint256",
          "name": "value",
          "type": "uint256"
        }
      ],
      "name": "Transfer",
      "type": "event"
    },
    {
      "inputs": [
        {
          "internalType": "address",
          "name": "owner",
          "type": "address"
        },
        {
          "internalType": "address",
          "name": "spender",
          "type": "address"
        }
      ],
      "name": "allowance",
      "outputs": [
        {
          "internalType": "uint256",
          "name": "",
          "type": "uint256"
        }
      ],
      "stateMutability": "view",
      "type": "function"
    },
    {
      "inputs": [
        {
          "internalType": "address",
          "name": "spender",
          "type": "address"
        },
        {
          "internalType": "uint256",
          "name": "value",
          "type": "uint256"
        }
      ],
      "name": "approve",
      "outputs": [
        {
          "internalType": "bool",
          "name": "",
          "type": "bool"
        }
      ],
      "stateMutability": "nonpayable",
      "type": "function"
    },
    {
      "inputs": [
        {
          "internalType": "address",
          "name": "account",
          "type": "address"
        }
      ],
      "name": "balanceOf",
      "outputs": [
        {
          "internalType": "uint256",
          "name": "",
          "type": "uint256"
        }
      ],
      "stateMutability": "view",
      "type": "function"
    },
    {
      "inputs": [
        {
          "internalType": "address",
          "name": "_address",
          "type": "address"
        }
      ],
      "name": "canMint",
      "outputs": [
        {
          "internalType": "bool",
          "name": "",
          "type": "bool"
        }
      ],
      "stateMutability": "view",
      "type": "function"
    },
    {
      "inputs": [],
      "name": "decimals",
      "outputs": [
        {
          "internalType": "uint8",
          "name": "",
          "type": "uint8"
        }
      ],
      "stateMutability": "view",
      "type": "function"
    },
    {
      "inputs": [],
      "name": "interval",
      "outputs": [
        {
          "internalType": "uint256",
          "name": "",
          "type": "uint256"
        }
      ],
      "stateMutability": "view",
      "type": "function"
    },
    {
      "inputs": [
        {
          "internalType": "address",
          "name": "",
          "type": "address"
        }
      ],
      "name": "lastMintTime",
      "outputs": [
        {
          "internalType": "uint256",
          "name": "",
          "type": "uint256"
        }
      ],
      "stateMutability": "view",
      "type": "function"
    },
    {
      "inputs": [],
      "name": "mintToken",
      "outputs": [],
      "stateMutability": "nonpayable",
      "type": "function"
    },
    {
      "inputs": [],
      "name": "name",
      "outputs": [
        {
          "internalType": "string",
          "name": "",
          "type": "string"
        }
      ],
      "stateMutability": "view",
      "type": "function"
    },
    {
      "inputs": [
        {
          "internalType": "address",
          "name": "_target",
          "type": "address"
        },
        {
          "internalType": "uint256",
          "name": "_amount",
          "type": "uint256"
        }
      ],
      "name": "ownerMint",
      "outputs": [],
      "stateMutability": "nonpayable",
      "type": "function"
    },
    {
      "inputs": [
        {
          "internalType": "uint256",
          "name": "_newInterval",
          "type": "uint256"
        }
      ],
      "name": "setInterval",
      "outputs": [],
      "stateMutability": "nonpayable",
      "type": "function"
    },
    {
      "inputs": [],
      "name": "symbol",
      "outputs": [
        {
          "internalType": "string",
          "name": "",
          "type": "string"
        }
      ],
      "stateMutability": "view",
      "type": "function"
    },
    {
      "inputs": [],
      "name": "totalSupply",
      "outputs": [
        {
          "internalType": "uint256",
          "name": "",
          "type": "uint256"
        }
      ],
      "stateMutability": "view",
      "type": "function"
    },
    {
      "inputs": [
        {
          "internalType": "address",
          "name": "to",
          "type": "address"
        },
        {
          "internalType": "uint256",
          "name": "value",
          "type": "uint256"
        }
      ],
      "name": "transfer",
      "outputs": [
        {
          "internalType": "bool",
          "name": "",
          "type": "bool"
        }
      ],
      "stateMutability": "nonpayable",
      "type": "function"
    },
    {
      "inputs": [
        {
          "internalType": "address",
          "name": "from",
          "type": "address"
        },
        {
          "internalType": "address",
          "name": "to",
          "type": "address"
        },
        {
          "internalType": "uint256",
          "name": "value",
          "type": "uint256"
        }
      ],
      "name": "transferFrom",
      "outputs": [
        {
          "internalType": "bool",
          "name": "",
          "type": "bool"
        }
      ],
      "stateMutability": "nonpayable",
      "type": "function"
    }
  ],
  "bytecode": "0x608060405234801561000f575f5ffd5b50604051611cda380380611cda833981810160405281019061003191906104a8565b81818160039081610042919061072e565b508060049081610052919061072e565b50505061006d33670de0b6b3a76400006100bd60201b60201c565b3360075f6101000a81548173ffffffffffffffffffffffffffffffffffffffff021916908373ffffffffffffffffffffffffffffffffffffffff160217905550610e106006819055505050610912565b5f73ffffffffffffffffffffffffffffffffffffffff168273ffffffffffffffffffffffffffffffffffffffff160361012d575f6040517fec442f05000000000000000000000000000000000000000000000000000000008152600401610124919061083c565b60405180910390fd5b61013e5f838361014260201b60201c565b5050565b5f73ffffffffffffffffffffffffffffffffffffffff168373ffffffffffffffffffffffffffffffffffffffff1603610192578060025f8282546101869190610882565b92505081905550610260565b5f5f5f8573ffffffffffffffffffffffffffffffffffffffff1673ffffffffffffffffffffffffffffffffffffffff1681526020019081526020015f205490508181101561021b578381836040517fe450d38c000000000000000000000000000000000000000000000000000000008152600401610212939291906108c4565b60405180910390fd5b8181035f5f8673ffffffffffffffffffffffffffffffffffffffff1673ffffffffffffffffffffffffffffffffffffffff1681526020019081526020015f2081905550505b5f73ffffffffffffffffffffffffffffffffffffffff168273ffffffffffffffffffffffffffffffffffffffff16036102a7578060025f82825403925050819055506102f1565b805f5f8473ffffffffffffffffffffffffffffffffffffffff1673ffffffffffffffffffffffffffffffffffffffff1681526020019081526020015f205f82825401925050819055505b8173ffffffffffffffffffffffffffffffffffffffff168373ffffffffffffffffffffffffffffffffffffffff167fddf252ad1be2c89b69c2b068fc378daa952ba7f163c4a11628f55a4df523b3ef8360405161034e91906108f9565b60405180910390a3505050565b5f604051905090565b5f5ffd5b5f5ffd5b5f5ffd5b5f5ffd5b5f601f19601f8301169050919050565b7f4e487b71000000000000000000000000000000000000000000000000000000005f52604160045260245ffd5b6103ba82610374565b810181811067ffffffffffffffff821117156103d9576103d8610384565b5b80604052505050565b5f6103eb61035b565b90506103f782826103b1565b919050565b5f67ffffffffffffffff82111561041657610415610384565b5b61041f82610374565b9050602081019050919050565b8281835e5f83830152505050565b5f61044c610447846103fc565b6103e2565b90508281526020810184848401111561046857610467610370565b5b61047384828561042c565b509392505050565b5f82601f83011261048f5761048e61036c565b5b815161049f84826020860161043a565b91505092915050565b5f5f604083850312156104be576104bd610364565b5b5f83015167ffffffffffffffff8111156104db576104da610368565b5b6104e78582860161047b565b925050602083015167ffffffffffffffff81111561050857610507610368565b5b6105148582860161047b565b9150509250929050565b5f81519050919050565b7f4e487b71000000000000000000000000000000000000000000000000000000005f52602260045260245ffd5b5f600282049050600182168061056c57607f821691505b60208210810361057f5761057e610528565b5b50919050565b5f819050815f5260205f209050919050565b5f6020601f8301049050919050565b5f82821b905092915050565b5f600883026105e17fffffffffffffffffffffffffffffffffffffffffffffffffffffffffffffffff826105a6565b6105eb86836105a6565b95508019841693508086168417925050509392505050565b5f819050919050565b5f819050919050565b5f61062f61062a61062584610603565b61060c565b610603565b9050919050565b5f819050919050565b61064883610615565b61065c61065482610636565b8484546105b2565b825550505050565b5f5f905090565b610673610664565b61067e81848461063f565b505050565b5b818110156106a1576106965f8261066b565b600181019050610684565b5050565b601f8211156106e6576106b781610585565b6106c084610597565b810160208510156106cf578190505b6106e36106db85610597565b830182610683565b50505b505050565b5f82821c905092915050565b5f6107065f19846008026106eb565b1980831691505092915050565b5f61071e83836106f7565b9150826002028217905092915050565b6107378261051e565b67ffffffffffffffff8111156107505761074f610384565b5b61075a8254610555565b6107658282856106a5565b5f60209050601f831160018114610796575f8415610784578287015190505b61078e8582610713565b8655506107f5565b601f1984166107a486610585565b5f5b828110156107cb578489015182556001820191506020850194506020810190506107a6565b868310156107e857848901516107e4601f8916826106f7565b8355505b6001600288020188555050505b505050505050565b5f73ffffffffffffffffffffffffffffffffffffffff82169050919050565b5f610826826107fd565b9050919050565b6108368161081c565b82525050565b5f60208201905061084f5f83018461082d565b92915050565b7f4e487b71000000000000000000000000000000000000000000000000000000005f52601160045260245ffd5b5f61088c82610603565b915061089783610603565b92508282019050808211156108af576108ae610855565b5b92915050565b6108be81610603565b82525050565b5f6060820190506108d75f83018661082d565b6108e460208301856108b5565b6108f160408301846108b5565b949350505050565b5f60208201905061090c5f8301846108b5565b92915050565b6113bb8061091f5f395ff3fe608060405234801561000f575f5ffd5b50600436106100f3575f3560e01c8063484b973c1161009557806395d89b411161006457806395d89b4114610271578063a9059cbb1461028f578063c2ba4744146102bf578063dd62ed3e146102ef576100f3565b8063484b973c146101d75780636aa71d18146101f357806370a0823114610223578063947a36fb14610253576100f3565b80632004ffd9116100d15780632004ffd91461016357806322a900821461016d57806323b872dd14610189578063313ce567146101b9576100f3565b806306fdde03146100f7578063095ea7b31461011557806318160ddd14610145575b5f5ffd5b6100ff61031f565b60405161010c9190610f13565b60405180910390f35b61012f600480360381019061012a9190610fc4565b6103af565b60405161013c919061101c565b60405180910390f35b61014d6103d1565b60405161015a9190611044565b60405180910390f35b61016b6103da565b005b6101876004803603810190610182919061105d565b610504565b005b6101a3600480360381019061019e9190611088565b61059d565b6040516101b0919061101c565b60405180910390f35b6101c16105cb565b6040516101ce91906110f3565b60405180910390f35b6101f160048036038101906101ec9190610fc4565b6105d3565b005b61020d6004803603810190610208919061110c565b610670565b60405161021a9190611044565b60405180910390f35b61023d6004803603810190610238919061110c565b610685565b60405161024a9190611044565b60405180910390f35b61025b6106ca565b6040516102689190611044565b60405180910390f35b6102796106d0565b6040516102869190610f13565b60405180910390f35b6102a960048036038101906102a49190610fc4565b610760565b6040516102b6919061101c565b60405180910390f35b6102d960048036038101906102d4919061110c565b610782565b6040516102e6919061101c565b60405180910390f35b61030960048036038101906103049190611137565b61081e565b6040516103169190611044565b60405180910390f35b60606003805461032e906111a2565b80601f016020809104026020016040519081016040528092919081815260200182805461035a906111a2565b80156103a55780601f1061037c576101008083540402835291602001916103a5565b820191905f5260205f20905b81548152906001019060200180831161038857829003601f168201915b5050505050905090565b5f5f6103b96108a0565b90506103c68185856108a7565b600191505092915050565b5f600254905090565b5f60055f3373ffffffffffffffffffffffffffffffffffffffff1673ffffffffffffffffffffffffffffffffffffffff1681526020019081526020015f2054148061046e575060065460055f3373ffffffffffffffffffffffffffffffffffffffff1673ffffffffffffffffffffffffffffffffffffffff1681526020019081526020015f205461046b91906111ff565b42115b6104ad576040517f08c379a00000000000000000000000000000000000000000000000000000000081526004016104a4906112a2565b60405180910390fd5b6104c03368056bc75e2d631000006108b9565b4260055f3373ffffffffffffffffffffffffffffffffffffffff1673ffffffffffffffffffffffffffffffffffffffff1681526020019081526020015f2081905550565b60075f9054906101000a900473ffffffffffffffffffffffffffffffffffffffff1673ffffffffffffffffffffffffffffffffffffffff163373ffffffffffffffffffffffffffffffffffffffff1614610593576040517f08c379a000000000000000000000000000000000000000000000000000000000815260040161058a9061130a565b60405180910390fd5b8060068190555050565b5f5f6105a76108a0565b90506105b4858285610938565b6105bf8585856109cb565b60019150509392505050565b5f6012905090565b60075f9054906101000a900473ffffffffffffffffffffffffffffffffffffffff1673ffffffffffffffffffffffffffffffffffffffff163373ffffffffffffffffffffffffffffffffffffffff1614610662576040517f08c379a00000000000000000000000000000000000000000000000000000000081526004016106599061130a565b60405180910390fd5b61066c82826108b9565b5050565b6005602052805f5260405f205f915090505481565b5f5f5f8373ffffffffffffffffffffffffffffffffffffffff1673ffffffffffffffffffffffffffffffffffffffff1681526020019081526020015f20549050919050565b60065481565b6060600480546106df906111a2565b80601f016020809104026020016040519081016040528092919081815260200182805461070b906111a2565b80156107565780601f1061072d57610100808354040283529160200191610756565b820191905f5260205f20905b81548152906001019060200180831161073957829003601f168201915b5050505050905090565b5f5f61076a6108a0565b90506107778185856109cb565b600191505092915050565b5f5f60055f8473ffffffffffffffffffffffffffffffffffffffff1673ffffffffffffffffffffffffffffffffffffffff1681526020019081526020015f20541480610817575060065460055f8473ffffffffffffffffffffffffffffffffffffffff1673ffffffffffffffffffffffffffffffffffffffff1681526020019081526020015f205461081491906111ff565b42115b9050919050565b5f60015f8473ffffffffffffffffffffffffffffffffffffffff1673ffffffffffffffffffffffffffffffffffffffff1681526020019081526020015f205f8373ffffffffffffffffffffffffffffffffffffffff1673ffffffffffffffffffffffffffffffffffffffff1681526020019081526020015f2054905092915050565b5f33905090565b6108b48383836001610abb565b505050565b5f73ffffffffffffffffffffffffffffffffffffffff168273ffffffffffffffffffffffffffffffffffffffff1603610929575f6040517fec442f050000000000000000000000000000000000000000000000000000000081526004016109209190611337565b60405180910390fd5b6109345f8383610c8a565b5050565b5f610943848461081e565b90507fffffffffffffffffffffffffffffffffffffffffffffffffffffffffffffffff8110156109c557818110156109b6578281836040517ffb8f41b20000000000000000000000000000000000000000000000000000000081526004016109ad93929190611350565b60405180910390fd5b6109c484848484035f610abb565b5b50505050565b5f73ffffffffffffffffffffffffffffffffffffffff168373ffffffffffffffffffffffffffffffffffffffff1603610a3b575f6040517f96c6fd1e000000000000000000000000000000000000000000000000000000008152600401610a329190611337565b60405180910390fd5b5f73ffffffffffffffffffffffffffffffffffffffff168273ffffffffffffffffffffffffffffffffffffffff1603610aab575f6040517fec442f05000000000000000000000000000000000000000000000000000000008152600401610aa29190611337565b60405180910390fd5b610ab6838383610c8a565b505050565b5f73ffffffffffffffffffffffffffffffffffffffff168473ffffffffffffffffffffffffffffffffffffffff1603610b2b575f6040517fe602df05000000000000000000000000000000000000000000000000000000008152600401610b229190611337565b60405180910390fd5b5f73ffffffffffffffffffffffffffffffffffffffff168373ffffffffffffffffffffffffffffffffffffffff1603610b9b575f6040517f94280d62000000000000000000000000000000000000000000000000000000008152600401610b929190611337565b60405180910390fd5b8160015f8673ffffffffffffffffffffffffffffffffffffffff1673ffffffffffffffffffffffffffffffffffffffff1681526020019081526020015f205f8573ffffffffffffffffffffffffffffffffffffffff1673ffffffffffffffffffffffffffffffffffffffff1681526020019081526020015f20819055508015610c84578273ffffffffffffffffffffffffffffffffffffffff168473ffffffffffffffffffffffffffffffffffffffff167f8c5be1e5ebec7d5bd14f71427d1e84f3dd0314c0f7b2291e5b200ac8c7c3b92584604051610c7b9190611044565b60405180910390a35b50505050565b5f73ffffffffffffffffffffffffffffffffffffffff168373ffffffffffffffffffffffffffffffffffffffff1603610cda578060025f828254610cce91906111ff565b92505081905550610da8565b5f5f5f8573ffffffffffffffffffffffffffffffffffffffff1673ffffffffffffffffffffffffffffffffffffffff1681526020019081526020015f2054905081811015610d63578381836040517fe450d38c000000000000000000000000000000000000000000000000000000008152600401610d5a93929190611350565b60405180910390fd5b8181035f5f8673ffffffffffffffffffffffffffffffffffffffff1673ffffffffffffffffffffffffffffffffffffffff1681526020019081526020015f2081905550505b5f73ffffffffffffffffffffffffffffffffffffffff168273ffffffffffffffffffffffffffffffffffffffff1603610def578060025f8282540392505081905550610e39565b805f5f8473ffffffffffffffffffffffffffffffffffffffff1673ffffffffffffffffffffffffffffffffffffffff1681526020019081526020015f205f82825401925050819055505b8173ffffffffffffffffffffffffffffffffffffffff168373ffffffffffffffffffffffffffffffffffffffff167fddf252ad1be2c89b69c2b068fc378daa952ba7f163c4a11628f55a4df523b3ef83604051610e969190611044565b60405180910390a3505050565b5f81519050919050565b5f82825260208201905092915050565b8281835e5f83830152505050565b5f601f19601f8301169050919050565b5f610ee582610ea3565b610eef8185610ead565b9350610eff818560208601610ebd565b610f0881610ecb565b840191505092915050565b5f6020820190508181035f830152610f2b8184610edb565b905092915050565b5f5ffd5b5f73ffffffffffffffffffffffffffffffffffffffff82169050919050565b5f610f6082610f37565b9050919050565b610f7081610f56565b8114610f7a575f5ffd5b50565b5f81359050610f8b81610f67565b92915050565b5f819050919050565b610fa381610f91565b8114610fad575f5ffd5b50565b5f81359050610fbe81610f9a565b92915050565b5f5f60408385031215610fda57610fd9610f33565b5b5f610fe785828601610f7d565b9250506020610ff885828601610fb0565b9150509250929050565b5f8115159050919050565b61101681611002565b82525050565b5f60208201905061102f5f83018461100d565b92915050565b61103e81610f91565b82525050565b5f6020820190506110575f830184611035565b92915050565b5f6020828403121561107257611071610f33565b5b5f61107f84828501610fb0565b91505092915050565b5f5f5f6060848603121561109f5761109e610f33565b5b5f6110ac86828701610f7d565b93505060206110bd86828701610f7d565b92505060406110ce86828701610fb0565b9150509250925092565b5f60ff82169050919050565b6110ed816110d8565b82525050565b5f6020820190506111065f8301846110e4565b92915050565b5f6020828403121561112157611120610f33565b5b5f61112e84828501610f7d565b91505092915050565b5f5f6040838503121561114d5761114c610f33565b5b5f61115a85828601610f7d565b925050602061116b85828601610f7d565b9150509250929050565b7f4e487b71000000000000000000000000000000000000000000000000000000005f52602260045260245ffd5b5f60028204905060018216806111b957607f821691505b6020821081036111cc576111cb611175565b5b50919050565b7f4e487b71000000000000000000000000000000000000000000000000000000005f52601160045260245ffd5b5f61120982610f91565b915061121483610f91565b925082820190508082111561122c5761122b6111d2565b5b92915050565b7f596f75206e65656420746f207761697420616e20686f7572206265747765656e5f8201527f206d696e74730000000000000000000000000000000000000000000000000000602082015250565b5f61128c602683610ead565b915061129782611232565b604082019050919050565b5f6020820190508181035f8301526112b981611280565b9050919050565b7f4e6f74206f776e657200000000000000000000000000000000000000000000005f82015250565b5f6112f4600983610ead565b91506112ff826112c0565b602082019050919050565b5f6020820190508181035f830152611321816112e8565b9050919050565b61133181610f56565b82525050565b5f60208201905061134a5f830184611328565b92915050565b5f6060820190506113635f830186611328565b6113706020830185611035565b61137d6040830184611035565b94935050505056fea2646970667358221220a1ccca47c8144633c338b3729f301f30d301a7351b2f4025360d249e0aab02c464736f6c634300081c0033",
  "linkReferences": {},
  "deployedLinkReferences": {},
  "immutableReferences": {},
  "inputSourceName": "project/contracts/MintableERC20.sol",
  "buildInfoId": "solc-0_8_28-392b93ca671cf07af7c8b2fb3176f3641911120f"
}