{
  "_format": "hh-sol-artifact-1",
  "contractName": "ProxyContract",
  "sourceName": "contracts/ProxyContract.sol",
  "abi": [
    {
      "inputs": [
        {
          "internalType": "address",
          "name": "_logicContract",
          "type": "address"
        }
      ],
      "stateMutability": "nonpayable",
      "type": "constructor"
    },
    {
      "inputs": [],
      "name": "callIncrement",
      "outputs": [],
      "stateMutability": "nonpayable",
      "type": "function"
    },
    {
      "inputs": [],
      "name": "counter",
      "outputs": [
        {
          "internalType": "uint256",
          "name": "",
          "type": "uint256"
        }
      ],
      "stateMutability": "view",
      "type": "function"
    },
    {
      "inputs": [],
      "name": "logicContract",
      "outputs": [
        {
          "internalType": "address",
          "name": "",
          "type": "address"
        }
      ],
      "stateMutability": "view",
      "type": "function"
    }
  ],
  "bytecode": "0x608060405234801561001057600080fd5b506040516104e13803806104e18339818101604052810190610032919061008e565b80600160006101000a81548173ffffffffffffffffffffffffffffffffffffffff021916908373ffffffffffffffffffffffffffffffffffffffff16021790555050610100565b600081519050610088816100e9565b92915050565b6000602082840312156100a057600080fd5b60006100ae84828501610079565b91505092915050565b60006100c2826100c9565b9050919050565b600073ffffffffffffffffffffffffffffffffffffffff82169050919050565b6100f2816100b7565b81146100fd57600080fd5b50565b6103d28061010f6000396000f3fe608060405234801561001057600080fd5b50600436106100415760003560e01c806338cd26de1461004657806361bc221a14610050578063cc0e97c91461006e575b600080fd5b61004e61008c565b005b6100586101de565b60405161006591906102eb565b60405180910390f35b6100766101e4565b60405161008391906102b0565b60405180910390f35b6000600160009054906101000a900473ffffffffffffffffffffffffffffffffffffffff1673ffffffffffffffffffffffffffffffffffffffff166040516024016040516020818303038152906040527fd09de08a000000000000000000000000000000000000000000000000000000007bffffffffffffffffffffffffffffffffffffffffffffffffffffffff19166020820180517bffffffffffffffffffffffffffffffffffffffffffffffffffffffff83818316178352505050506040516101579190610299565b600060405180830381855af49150503d8060008114610192576040519150601f19603f3d011682016040523d82523d6000602084013e610197565b606091505b50509050806101db576040517f08c379a00000000000000000000000000000000000000000000000000000000081526004016101d2906102cb565b60405180910390fd5b50565b60005481565b600160009054906101000a900473ffffffffffffffffffffffffffffffffffffffff1681565b6102138161032d565b82525050565b600061022482610306565b61022e8185610311565b935061023e818560208601610369565b80840191505092915050565b600061025760138361031c565b91507f44656c656761746563616c6c206661696c6564000000000000000000000000006000830152602082019050919050565b6102938161035f565b82525050565b60006102a58284610219565b915081905092915050565b60006020820190506102c5600083018461020a565b92915050565b600060208201905081810360008301526102e48161024a565b9050919050565b6000602082019050610300600083018461028a565b92915050565b600081519050919050565b600081905092915050565b600082825260208201905092915050565b60006103388261033f565b9050919050565b600073ffffffffffffffffffffffffffffffffffffffff82169050919050565b6000819050919050565b60005b8381101561038757808201518184015260208101905061036c565b83811115610396576000848401525b5050505056fea2646970667358221220bb292bb57647cd9a1d10e6fabc7bd5941fb48279c806a3bdc5e0f112509faa2864736f6c63430008000033",
  "linkReferences": {},
  "deployedLinkReferences": {}
}