{
  "_format": "hh-sol-artifact-1",
  "contractName": "MintableERC20",
  "sourceName": "contracts/MintableERC20.sol",
  "abi": [
    {
      "inputs": [
        {
          "internalType": "string",
          "name": "name",
          "type": "string"
        },
        {
          "internalType": "string",
          "name": "symbol",
          "type": "string"
        }
      ],
      "stateMutability": "nonpayable",
      "type": "constructor"
    },
    {
      "inputs": [
        {
          "internalType": "address",
          "name": "spender",
          "type": "address"
        },
        {
          "internalType": "uint256",
          "name": "allowance",
          "type": "uint256"
        },
        {
          "internalType": "uint256",
          "name": "needed",
          "type": "uint256"
        }
      ],
      "name": "ERC20InsufficientAllowance",
      "type": "error"
    },
    {
      "inputs": [
        {
          "internalType": "address",
          "name": "sender",
          "type": "address"
        },
        {
          "internalType": "uint256",
          "name": "balance",
          "type": "uint256"
        },
        {
          "internalType": "uint256",
          "name": "needed",
          "type": "uint256"
        }
      ],
      "name": "ERC20InsufficientBalance",
      "type": "error"
    },
    {
      "inputs": [
        {
          "internalType": "address",
          "name": "approver",
          "type": "address"
        }
      ],
      "name": "ERC20InvalidApprover",
      "type": "error"
    },
    {
      "inputs": [
        {
          "internalType": "address",
          "name": "receiver",
          "type": "address"
        }
      ],
      "name": "ERC20InvalidReceiver",
      "type": "error"
    },
    {
      "inputs": [
        {
          "internalType": "address",
          "name": "sender",
          "type": "address"
        }
      ],
      "name": "ERC20InvalidSender",
      "type": "error"
    },
    {
      "inputs": [
        {
          "internalType": "address",
          "name": "spender",
          "type": "address"
        }
      ],
      "name": "ERC20InvalidSpender",
      "type": "error"
    },
    {
      "anonymous": false,
      "inputs": [
        {
          "indexed": true,
          "internalType": "address",
          "name": "owner",
          "type": "address"
        },
        {
          "indexed": true,
          "internalType": "address",
          "name": "spender",
          "type": "address"
        },
        {
          "indexed": false,
          "internalType": "uint256",
          "name": "value",
          "type": "uint256"
        }
      ],
      "name": "Approval",
      "type": "event"
    },
    {
      "anonymous": false,
      "inputs": [
        {
          "indexed": false,
          "internalType": "uint256",
          "name": "oldInterval",
          "type": "uint256"
        },
        {
          "indexed": false,
          "internalType": "uint256",
          "name": "newInterval",
          "type": "uint256"
        }
      ],
      "name": "IntervalUpdated",
      "type": "event"
    },
    {
      "anonymous": false,
      "inputs": [
        {
          "indexed": true,
          "internalType": "address",
          "name": "user",
          "type": "address"
        },
        {
          "indexed": false,
          "internalType": "uint256",
          "name": "amount",
          "type": "uint256"
        },
        {
          "indexed": false,
          "internalType": "uint256",
          "name": "timestamp",
          "type": "uint256"
        }
      ],
      "name": "TokenMinted",
      "type": "event"
    },
    {
      "anonymous": false,
      "inputs": [
        {
          "indexed": true,
          "internalType": "address",
          "name": "from",
          "type": "address"
        },
        {
          "indexed": true,
          "internalType": "address",
          "name": "to",
          "type": "address"
        },
        {
          "indexed": false,
          "internalType": "uint256",
          "name": "value",
          "type": "uint256"
        }
      ],
      "name": "Transfer",
      "type": "event"
    },
    {
      "inputs": [],
      "name": "MINT_AMOUNT",
      "outputs": [
        {
          "internalType": "uint256",
          "name": "",
          "type": "uint256"
        }
      ],
      "stateMutability": "view",
      "type": "function"
    },
    {
      "inputs": [
        {
          "internalType": "address",
          "name": "owner",
          "type": "address"
        },
        {
          "internalType": "address",
          "name": "spender",
          "type": "address"
        }
      ],
      "name": "allowance",
      "outputs": [
        {
          "internalType": "uint256",
          "name": "",
          "type": "uint256"
        }
      ],
      "stateMutability": "view",
      "type": "function"
    },
    {
      "inputs": [
        {
          "internalType": "address",
          "name": "spender",
          "type": "address"
        },
        {
          "internalType": "uint256",
          "name": "value",
          "type": "uint256"
        }
      ],
      "name": "approve",
      "outputs": [
        {
          "internalType": "bool",
          "name": "",
          "type": "bool"
        }
      ],
      "stateMutability": "nonpayable",
      "type": "function"
    },
    {
      "inputs": [
        {
          "internalType": "address",
          "name": "account",
          "type": "address"
        }
      ],
      "name": "balanceOf",
      "outputs": [
        {
          "internalType": "uint256",
          "name": "",
          "type": "uint256"
        }
      ],
      "stateMutability": "view",
      "type": "function"
    },
    {
      "inputs": [
        {
          "internalType": "address",
          "name": "user",
          "type": "address"
        }
      ],
      "name": "canMint",
      "outputs": [
        {
          "internalType": "bool",
          "name": "",
          "type": "bool"
        }
      ],
      "stateMutability": "view",
      "type": "function"
    },
    {
      "inputs": [],
      "name": "decimals",
      "outputs": [
        {
          "internalType": "uint8",
          "name": "",
          "type": "uint8"
        }
      ],
      "stateMutability": "view",
      "type": "function"
    },
    {
      "inputs": [
        {
          "internalType": "address",
          "name": "user",
          "type": "address"
        }
      ],
      "name": "getRemainingTime",
      "outputs": [
        {
          "internalType": "uint256",
          "name": "",
          "type": "uint256"
        }
      ],
      "stateMutability": "view",
      "type": "function"
    },
    {
      "inputs": [],
      "name": "interval",
      "outputs": [
        {
          "internalType": "uint256",
          "name": "",
          "type": "uint256"
        }
      ],
      "stateMutability": "view",
      "type": "function"
    },
    {
      "inputs": [
        {
          "internalType": "address",
          "name": "",
          "type": "address"
        }
      ],
      "name": "lastMintTimestamp",
      "outputs": [
        {
          "internalType": "uint256",
          "name": "",
          "type": "uint256"
        }
      ],
      "stateMutability": "view",
      "type": "function"
    },
    {
      "inputs": [],
      "name": "mintToken",
      "outputs": [],
      "stateMutability": "nonpayable",
      "type": "function"
    },
    {
      "inputs": [],
      "name": "name",
      "outputs": [
        {
          "internalType": "string",
          "name": "",
          "type": "string"
        }
      ],
      "stateMutability": "view",
      "type": "function"
    },
    {
      "inputs": [],
      "name": "owner",
      "outputs": [
        {
          "internalType": "address",
          "name": "",
          "type": "address"
        }
      ],
      "stateMutability": "view",
      "type": "function"
    },
    {
      "inputs": [
        {
          "internalType": "uint256",
          "name": "newInterval",
          "type": "uint256"
        }
      ],
      "name": "setInterval",
      "outputs": [],
      "stateMutability": "nonpayable",
      "type": "function"
    },
    {
      "inputs": [],
      "name": "symbol",
      "outputs": [
        {
          "internalType": "string",
          "name": "",
          "type": "string"
        }
      ],
      "stateMutability": "view",
      "type": "function"
    },
    {
      "inputs": [],
      "name": "totalSupply",
      "outputs": [
        {
          "internalType": "uint256",
          "name": "",
          "type": "uint256"
        }
      ],
      "stateMutability": "view",
      "type": "function"
    },
    {
      "inputs": [
        {
          "internalType": "address",
          "name": "to",
          "type": "address"
        },
        {
          "internalType": "uint256",
          "name": "value",
          "type": "uint256"
        }
      ],
      "name": "transfer",
      "outputs": [
        {
          "internalType": "bool",
          "name": "",
          "type": "bool"
        }
      ],
      "stateMutability": "nonpayable",
      "type": "function"
    },
    {
      "inputs": [
        {
          "internalType": "address",
          "name": "from",
          "type": "address"
        },
        {
          "internalType": "address",
          "name": "to",
          "type": "address"
        },
        {
          "internalType": "uint256",
          "name": "value",
          "type": "uint256"
        }
      ],
      "name": "transferFrom",
      "outputs": [
        {
          "internalType": "bool",
          "name": "",
          "type": "bool"
        }
      ],
      "stateMutability": "nonpayable",
      "type": "function"
    },
    {
      "inputs": [
        {
          "internalType": "address",
          "name": "newOwner",
          "type": "address"
        }
      ],
      "name": "transferOwnership",
      "outputs": [],
      "stateMutability": "nonpayable",
      "type": "function"
    }
  ],
  "bytecode": "0x608060405234801561001057600080fd5b50604051610ee0380380610ee083398101604081905261002f91610125565b8181600361003d8382610217565b50600461004a8282610217565b5050610e106006555050600780546001600160a01b03191633179055506102d5565b634e487b7160e01b600052604160045260246000fd5b600082601f83011261009357600080fd5b81516001600160401b038111156100ac576100ac61006c565b604051601f8201601f19908116603f011681016001600160401b03811182821017156100da576100da61006c565b6040528181528382016020018510156100f257600080fd5b60005b82811015610111576020818601810151838301820152016100f5565b506000918101602001919091529392505050565b6000806040838503121561013857600080fd5b82516001600160401b0381111561014e57600080fd5b61015a85828601610082565b602085015190935090506001600160401b0381111561017857600080fd5b61018485828601610082565b9150509250929050565b600181811c908216806101a257607f821691505b6020821081036101c257634e487b7160e01b600052602260045260246000fd5b50919050565b601f82111561021257806000526020600020601f840160051c810160208510156101ef5750805b601f840160051c820191505b8181101561020f57600081556001016101fb565b50505b505050565b81516001600160401b038111156102305761023061006c565b6102448161023e845461018e565b846101c8565b6020601f82116001811461027857600083156102605750848201515b600019600385901b1c1916600184901b17845561020f565b600084815260208120601f198516915b828110156102a85787850151825560209485019460019092019101610288565b50848210156102c65786840151600019600387901b60f8161c191681555b50505050600190811b01905550565b610bfc806102e46000396000f3fe608060405234801561001057600080fd5b50600436106101165760003560e01c806370a08231116100a2578063a9059cbb11610071578063a9059cbb14610238578063be13197b1461024b578063c2ba47441461026b578063dd62ed3e1461027e578063f2fde38b146102b757600080fd5b806370a08231146101d35780638da5cb5b146101fc578063947a36fb1461022757806395d89b411461023057600080fd5b80632004ffd9116100e95780632004ffd91461018557806322a900821461018f57806323b872dd146101a2578063313ce567146101b55780635427789c146101c457600080fd5b806306fdde031461011b578063095ea7b3146101395780630e85117a1461015c57806318160ddd1461017d575b600080fd5b6101236102ca565b6040516101309190610a11565b60405180910390f35b61014c610147366004610a7b565b61035c565b6040519015158152602001610130565b61016f61016a366004610aa5565b610376565b604051908152602001610130565b60025461016f565b61018d6103bf565b005b61018d61019d366004610ac7565b61048d565b61014c6101b0366004610ae0565b61057c565b60405160128152602001610130565b61016f670de0b6b3a764000081565b61016f6101e1366004610aa5565b6001600160a01b031660009081526020819052604090205490565b60075461020f906001600160a01b031681565b6040516001600160a01b039091168152602001610130565b61016f60065481565b6101236105a0565b61014c610246366004610a7b565b6105af565b61016f610259366004610aa5565b60056020526000908152604090205481565b61014c610279366004610aa5565b6105bd565b61016f61028c366004610b1d565b6001600160a01b03918216600090815260016020908152604080832093909416825291909152205490565b61018d6102c5366004610aa5565b61060c565b6060600380546102d990610b50565b80601f016020809104026020016040519081016040528092919081815260200182805461030590610b50565b80156103525780601f1061032757610100808354040283529160200191610352565b820191906000526020600020905b81548152906001019060200180831161033557829003601f168201915b5050505050905090565b60003361036a8185856106e8565b60019150505b92915050565b6000610381826105bd565b1561038e57506000919050565b6006546001600160a01b03831660009081526005602052604090205442916103b591610ba0565b6103709190610bb3565b6103c8336105bd565b6104255760405162461bcd60e51b8152602060048201526024808201527f4d696e74696e6720746f6f206672657175656e746c79202d20706c65617365206044820152631dd85a5d60e21b60648201526084015b60405180910390fd5b33600081815260056020526040902042905561044990670de0b6b3a76400006106fa565b60408051670de0b6b3a7640000815242602082015233917f96234cb3d6c373a1aaa06497a540bc166d4b0359243a088eaf95e21d7253d0be910160405180910390a2565b6007546001600160a01b031633146104e75760405162461bcd60e51b815260206004820152601b60248201527f4f6e6c79206f776e65722063616e2073657420696e74657276616c0000000000604482015260640161041c565b600081116105375760405162461bcd60e51b815260206004820152601f60248201527f496e74657276616c206d7573742062652067726561746572207468616e203000604482015260640161041c565b600680549082905560408051828152602081018490527ffb31078e997942f210196a5b038941d4f606fd4dedf556c577cfc90b92f8068c910160405180910390a15050565b60003361058a858285610734565b6105958585856107b3565b506001949350505050565b6060600480546102d990610b50565b60003361036a8185856107b3565b6001600160a01b038116600090815260056020526040812054158061037057506006546001600160a01b0383166000908152600560205260409020546106039190610ba0565b42101592915050565b6007546001600160a01b031633146106705760405162461bcd60e51b815260206004820152602160248201527f4f6e6c79206f776e65722063616e207472616e73666572206f776e65727368696044820152600760fc1b606482015260840161041c565b6001600160a01b0381166106c65760405162461bcd60e51b815260206004820181905260248201527f4e6577206f776e65722063616e6e6f74206265207a65726f2061646472657373604482015260640161041c565b600780546001600160a01b0319166001600160a01b0392909216919091179055565b6106f58383836001610812565b505050565b6001600160a01b0382166107245760405163ec442f0560e01b81526000600482015260240161041c565b610730600083836108e7565b5050565b6001600160a01b038381166000908152600160209081526040808320938616835292905220546000198110156107ad578181101561079e57604051637dc7a0d960e11b81526001600160a01b0384166004820152602481018290526044810183905260640161041c565b6107ad84848484036000610812565b50505050565b6001600160a01b0383166107dd57604051634b637e8f60e11b81526000600482015260240161041c565b6001600160a01b0382166108075760405163ec442f0560e01b81526000600482015260240161041c565b6106f58383836108e7565b6001600160a01b03841661083c5760405163e602df0560e01b81526000600482015260240161041c565b6001600160a01b03831661086657604051634a1406b160e11b81526000600482015260240161041c565b6001600160a01b03808516600090815260016020908152604080832093871683529290522082905580156107ad57826001600160a01b0316846001600160a01b03167f8c5be1e5ebec7d5bd14f71427d1e84f3dd0314c0f7b2291e5b200ac8c7c3b925846040516108d991815260200190565b60405180910390a350505050565b6001600160a01b0383166109125780600260008282546109079190610ba0565b909155506109849050565b6001600160a01b038316600090815260208190526040902054818110156109655760405163391434e360e21b81526001600160a01b0385166004820152602481018290526044810183905260640161041c565b6001600160a01b03841660009081526020819052604090209082900390555b6001600160a01b0382166109a0576002805482900390556109bf565b6001600160a01b03821660009081526020819052604090208054820190555b816001600160a01b0316836001600160a01b03167fddf252ad1be2c89b69c2b068fc378daa952ba7f163c4a11628f55a4df523b3ef83604051610a0491815260200190565b60405180910390a3505050565b602081526000825180602084015260005b81811015610a3f5760208186018101516040868401015201610a22565b506000604082850101526040601f19601f83011684010191505092915050565b80356001600160a01b0381168114610a7657600080fd5b919050565b60008060408385031215610a8e57600080fd5b610a9783610a5f565b946020939093013593505050565b600060208284031215610ab757600080fd5b610ac082610a5f565b9392505050565b600060208284031215610ad957600080fd5b5035919050565b600080600060608486031215610af557600080fd5b610afe84610a5f565b9250610b0c60208501610a5f565b929592945050506040919091013590565b60008060408385031215610b3057600080fd5b610b3983610a5f565b9150610b4760208401610a5f565b90509250929050565b600181811c90821680610b6457607f821691505b602082108103610b8457634e487b7160e01b600052602260045260246000fd5b50919050565b634e487b7160e01b600052601160045260246000fd5b8082018082111561037057610370610b8a565b8181038181111561037057610370610b8a56fea2646970667358221220875e5c9a747566379bfef69dba63c6f9a6093e4a90bee204ad368a2a29cbf43b64736f6c634300081c0033",
  "linkReferences": {},
  "deployedLinkReferences": {}
}