{
  "_format": "hh-sol-artifact-1",
  "contractName": "SecureBank",
  "sourceName": "contracts/SecureBank.sol",
  "abi": [
    {
      "inputs": [],
      "name": "ReentrancyGuardReentrantCall",
      "type": "error"
    },
    {
      "anonymous": false,
      "inputs": [
        {
          "indexed": true,
          "internalType": "address",
          "name": "user",
          "type": "address"
        },
        {
          "indexed": false,
          "internalType": "uint256",
          "name": "amount",
          "type": "uint256"
        }
      ],
      "name": "Deposit",
      "type": "event"
    },
    {
      "anonymous": false,
      "inputs": [
        {
          "indexed": true,
          "internalType": "address",
          "name": "user",
          "type": "address"
        },
        {
          "indexed": false,
          "internalType": "uint256",
          "name": "amount",
          "type": "uint256"
        }
      ],
      "name": "Withdraw",
      "type": "event"
    },
    {
      "inputs": [
        {
          "internalType": "address",
          "name": "",
          "type": "address"
        }
      ],
      "name": "balances",
      "outputs": [
        {
          "internalType": "uint256",
          "name": "",
          "type": "uint256"
        }
      ],
      "stateMutability": "view",
      "type": "function"
    },
    {
      "inputs": [],
      "name": "deposit",
      "outputs": [],
      "stateMutability": "payable",
      "type": "function"
    },
    {
      "inputs": [],
      "name": "getBalance",
      "outputs": [
        {
          "internalType": "uint256",
          "name": "",
          "type": "uint256"
        }
      ],
      "stateMutability": "view",
      "type": "function"
    },
    {
      "inputs": [
        {
          "internalType": "address",
          "name": "_user",
          "type": "address"
        }
      ],
      "name": "getUserBalance",
      "outputs": [
        {
          "internalType": "uint256",
          "name": "",
          "type": "uint256"
        }
      ],
      "stateMutability": "view",
      "type": "function"
    },
    {
      "inputs": [
        {
          "internalType": "uint256",
          "name": "_amount",
          "type": "uint256"
        }
      ],
      "name": "withdrawCEI",
      "outputs": [],
      "stateMutability": "nonpayable",
      "type": "function"
    },
    {
      "inputs": [
        {
          "internalType": "uint256",
          "name": "_amount",
          "type": "uint256"
        }
      ],
      "name": "withdrawWithGuard",
      "outputs": [],
      "stateMutability": "nonpayable",
      "type": "function"
    },
    {
      "inputs": [
        {
          "internalType": "uint256",
          "name": "_amount",
          "type": "uint256"
        }
      ],
      "name": "withdrawWithTransfer",
      "outputs": [],
      "stateMutability": "nonpayable",
      "type": "function"
    }
  ],
  "bytecode": "0x608060405234801561001057600080fd5b506001600055610635806100256000396000f3fe6080604052600436106100705760003560e01c8063477348921161004e57806347734892146100e55780635435a7bd1461011b578063996c8ce31461013b578063d0e30db01461015b57600080fd5b806312065fe01461007557806327e235e3146100965780632f51c4f0146100c3575b600080fd5b34801561008157600080fd5b50475b60405190815260200160405180910390f35b3480156100a257600080fd5b506100846100b1366004610546565b60016020526000908152604090205481565b3480156100cf57600080fd5b506100e36100de366004610576565b610163565b005b3480156100f157600080fd5b50610084610100366004610546565b6001600160a01b031660009081526001602052604090205490565b34801561012757600080fd5b506100e3610136366004610576565b610282565b34801561014757600080fd5b506100e3610156366004610576565b61033b565b6100e3610463565b3360009081526001602052604090205481111561019b5760405162461bcd60e51b81526004016101929061058f565b60405180910390fd5b33600090815260016020526040812080548392906101ba9084906105d3565b9091555050604051600090339083908381818185875af1925050503d8060008114610201576040519150601f19603f3d011682016040523d82523d6000602084013e610206565b606091505b50509050806102495760405162461bcd60e51b815260206004820152600f60248201526e151c985b9cd9995c8819985a5b1959608a1b6044820152606401610192565b60405182815233907f884edad9ce6fa2440d8a54cc123490eb96d2768479d49ff9c7366125a94243649060200160405180910390a25050565b336000908152600160205260409020548111156102b15760405162461bcd60e51b81526004016101929061058f565b33600090815260016020526040812080548392906102d09084906105d3565b9091555050604051339082156108fc029083906000818181858888f19350505050158015610302573d6000803e3d6000fd5b5060405181815233907f884edad9ce6fa2440d8a54cc123490eb96d2768479d49ff9c7366125a94243649060200160405180910390a250565b61034361051c565b336000908152600160205260409020548111156103725760405162461bcd60e51b81526004016101929061058f565b604051600090339083908381818185875af1925050503d80600081146103b4576040519150601f19603f3d011682016040523d82523d6000602084013e6103b9565b606091505b50509050806103fc5760405162461bcd60e51b815260206004820152600f60248201526e151c985b9cd9995c8819985a5b1959608a1b6044820152606401610192565b336000908152600160205260408120805484929061041b9084906105d3565b909155505060405182815233907f884edad9ce6fa2440d8a54cc123490eb96d2768479d49ff9c7366125a94243649060200160405180910390a2506104606001600055565b50565b600034116104c15760405162461bcd60e51b815260206004820152602560248201527f4465706f73697420616d6f756e74206d75737420626520677265617465722074604482015264068616e20360dc1b6064820152608401610192565b33600090815260016020526040812080543492906104e09084906105ec565b909155505060405134815233907fe1fffcc4923d04b559f4d29a8bfc6cda04eb5b0d3c460751c2402c5c5cc9109c9060200160405180910390a2565b60026000540361053f57604051633ee5aeb560e01b815260040160405180910390fd5b6002600055565b60006020828403121561055857600080fd5b81356001600160a01b038116811461056f57600080fd5b9392505050565b60006020828403121561058857600080fd5b5035919050565b602080825260149082015273496e73756666696369656e742062616c616e636560601b604082015260600190565b634e487b7160e01b600052601160045260246000fd5b818103818111156105e6576105e66105bd565b92915050565b808201808211156105e6576105e66105bd56fea2646970667358221220292aa4e0e2e10bb86df5cc0fc3d864950a9c3975730ddbc0d3e1cf45722bd7ee64736f6c63430008140033",
  "linkReferences": {},
  "deployedLinkReferences": {}
}