{
  "_format": "hh-sol-artifact-1",
  "contractName": "Logic",
  "sourceName": "contracts/Logic.sol",
  "abi": [
    {
      "inputs": [],
      "name": "counter",
      "outputs": [
        {
          "internalType": "uint256",
          "name": "",
          "type": "uint256"
        }
      ],
      "stateMutability": "view",
      "type": "function"
    },
    {
      "inputs": [],
      "name": "getCounter",
      "outputs": [
        {
          "internalType": "uint256",
          "name": "",
          "type": "uint256"
        }
      ],
      "stateMutability": "view",
      "type": "function"
    },
    {
      "inputs": [],
      "name": "increment",
      "outputs": [],
      "stateMutability": "nonpayable",
      "type": "function"
    },
    {
      "inputs": [
        {
          "internalType": "uint256",
          "name": "amount",
          "type": "uint256"
        }
      ],
      "name": "incrementBy",
      "outputs": [],
      "stateMutability": "nonpayable",
      "type": "function"
    },
    {
      "inputs": [
        {
          "internalType": "uint256",
          "name": "value",
          "type": "uint256"
        }
      ],
      "name": "setCounter",
      "outputs": [],
      "stateMutability": "nonpayable",
      "type": "function"
    }
  ],
  "bytecode": "0x608060405234801561001057600080fd5b50610157806100206000396000f3fe608060405234801561001057600080fd5b50600436106100575760003560e01c806303df179c1461005c57806361bc221a146100715780638ada066e1461008c5780638bb5d9c314610094578063d09de08a146100a7575b600080fd5b61006f61006a3660046100e1565b6100af565b005b61007a60005481565b60405190815260200160405180910390f35b60005461007a565b61006f6100a23660046100e1565b600055565b61006f6100c8565b806000808282546100c091906100fa565b909155505050565b60016000808282546100da91906100fa565b9091555050565b6000602082840312156100f357600080fd5b5035919050565b8082018082111561011b57634e487b7160e01b600052601160045260246000fd5b9291505056fea2646970667358221220735d2241fc5eff15e3a52d9ed7dfce7aa567ff226c32662727b10dabf0497f4364736f6c63430008180033",
  "linkReferences": {},
  "deployedLinkReferences": {}
}