{
  "_format": "hh-sol-artifact-1",
  "contractName": "VulnerableBank",
  "sourceName": "contracts/VulnerableBank.sol",
  "abi": [
    {
      "anonymous": false,
      "inputs": [
        {
          "indexed": true,
          "internalType": "address",
          "name": "user",
          "type": "address"
        },
        {
          "indexed": false,
          "internalType": "uint256",
          "name": "amount",
          "type": "uint256"
        }
      ],
      "name": "Deposit",
      "type": "event"
    },
    {
      "anonymous": false,
      "inputs": [
        {
          "indexed": true,
          "internalType": "address",
          "name": "user",
          "type": "address"
        },
        {
          "indexed": false,
          "internalType": "uint256",
          "name": "amount",
          "type": "uint256"
        }
      ],
      "name": "Withdraw",
      "type": "event"
    },
    {
      "inputs": [
        {
          "internalType": "address",
          "name": "",
          "type": "address"
        }
      ],
      "name": "balances",
      "outputs": [
        {
          "internalType": "uint256",
          "name": "",
          "type": "uint256"
        }
      ],
      "stateMutability": "view",
      "type": "function"
    },
    {
      "inputs": [],
      "name": "deposit",
      "outputs": [],
      "stateMutability": "payable",
      "type": "function"
    },
    {
      "inputs": [],
      "name": "getBalance",
      "outputs": [
        {
          "internalType": "uint256",
          "name": "",
          "type": "uint256"
        }
      ],
      "stateMutability": "view",
      "type": "function"
    },
    {
      "inputs": [
        {
          "internalType": "address",
          "name": "_user",
          "type": "address"
        }
      ],
      "name": "getUserBalance",
      "outputs": [
        {
          "internalType": "uint256",
          "name": "",
          "type": "uint256"
        }
      ],
      "stateMutability": "view",
      "type": "function"
    },
    {
      "inputs": [
        {
          "internalType": "uint256",
          "name": "_amount",
          "type": "uint256"
        }
      ],
      "name": "withdraw",
      "outputs": [],
      "stateMutability": "nonpayable",
      "type": "function"
    }
  ],
  "bytecode": "0x608060405234801561001057600080fd5b5061038d806100206000396000f3fe60806040526004361061004a5760003560e01c806312065fe01461004f57806327e235e3146100705780632e1a7d4d1461009d57806347734892146100bf578063d0e30db0146100f5575b600080fd5b34801561005b57600080fd5b50475b60405190815260200160405180910390f35b34801561007c57600080fd5b5061005e61008b3660046102e7565b60006020819052908152604090205481565b3480156100a957600080fd5b506100bd6100b8366004610317565b6100fd565b005b3480156100cb57600080fd5b5061005e6100da3660046102e7565b6001600160a01b031660009081526020819052604090205490565b6100bd61022e565b336000908152602081905260409020548111156101585760405162461bcd60e51b8152602060048201526014602482015273496e73756666696369656e742062616c616e636560601b60448201526064015b60405180910390fd5b604051600090339083908381818185875af1925050503d806000811461019a576040519150601f19603f3d011682016040523d82523d6000602084013e61019f565b606091505b50509050806101e25760405162461bcd60e51b815260206004820152600f60248201526e151c985b9cd9995c8819985a5b1959608a1b604482015260640161014f565b33600081815260208181526040918290208054869003905590518481527f884edad9ce6fa2440d8a54cc123490eb96d2768479d49ff9c7366125a9424364910160405180910390a25050565b6000341161028c5760405162461bcd60e51b815260206004820152602560248201527f4465706f73697420616d6f756e74206d75737420626520677265617465722074604482015264068616e20360dc1b606482015260840161014f565b33600090815260208190526040812080543492906102ab908490610330565b909155505060405134815233907fe1fffcc4923d04b559f4d29a8bfc6cda04eb5b0d3c460751c2402c5c5cc9109c9060200160405180910390a2565b6000602082840312156102f957600080fd5b81356001600160a01b038116811461031057600080fd5b9392505050565b60006020828403121561032957600080fd5b5035919050565b8082018082111561035157634e487b7160e01b600052601160045260246000fd5b9291505056fea2646970667358221220fb64248da7bb4b1857e0f5a8282db28ccf0fed805575b0965f15e6bcb8e048ce64736f6c63430008140033",
  "linkReferences": {},
  "deployedLinkReferences": {}
}