{"contracts/MyERC20.sol":{"MyERC20":{"abi":[{"inputs":[{"internalType":"string","name":"name_","type":"string"},{"internalType":"string","name":"symbol_","type":"string"},{"internalType":"uint8","name":"decimals_","type":"uint8"},{"internalType":"uint256","name":"initialSupply_","type":"uint256"}],"stateMutability":"nonpayable","type":"constructor"},{"anonymous":false,"inputs":[{"indexed":true,"internalType":"address","name":"owner","type":"address"},{"indexed":true,"internalType":"address","name":"spender","type":"address"},{"indexed":false,"internalType":"uint256","name":"value","type":"uint256"}],"name":"Approval","type":"event"},{"anonymous":false,"inputs":[{"indexed":true,"internalType":"address","name":"from","type":"address"},{"indexed":true,"internalType":"address","name":"to","type":"address"},{"indexed":false,"internalType":"uint256","name":"value","type":"uint256"}],"name":"Transfer","type":"event"},{"inputs":[{"internalType":"address","name":"owner","type":"address"},{"internalType":"address","name":"spender","type":"address"}],"name":"allowance","outputs":[{"internalType":"uint256","name":"","type":"uint256"}],"stateMutability":"view","type":"function"},{"inputs":[{"internalType":"address","name":"spender","type":"address"},{"internalType":"uint256","name":"amount","type":"uint256"}],"name":"approve","outputs":[{"internalType":"bool","name":"","type":"bool"}],"stateMutability":"nonpayable","type":"function"},{"inputs":[{"internalType":"address","name":"account","type":"address"}],"name":"balanceOf","outputs":[{"internalType":"uint256","name":"","type":"uint256"}],"stateMutability":"view","type":"function"},{"inputs":[],"name":"cap","outputs":[{"internalType":"uint256","name":"","type":"uint256"}],"stateMutability":"view","type":"function"},{"inputs":[],"name":"decimals","outputs":[{"internalType":"uint8","name":"","type":"uint8"}],"stateMutability":"view","type":"function"},{"inputs":[{"internalType":"uint256","name":"amount","type":"uint256"}],"name":"mint","outputs":[{"internalType":"bool","name":"","type":"bool"}],"stateMutability":"nonpayable","type":"function"},{"inputs":[],"name":"name","outputs":[{"internalType":"string","name":"","type":"string"}],"stateMutability":"view","type":"function"},{"inputs":[],"name":"symbol","outputs":[{"internalType":"string","name":"","type":"string"}],"stateMutability":"view","type":"function"},{"inputs":[],"name":"totalSupply","outputs":[{"internalType":"uint256","name":"","type":"uint256"}],"stateMutability":"view","type":"function"},{"inputs":[{"internalType":"address","name":"to","type":"address"},{"internalType":"uint256","name":"amount","type":"uint256"}],"name":"transfer","outputs":[{"internalType":"bool","name":"","type":"bool"}],"stateMutability":"nonpayable","type":"function"},{"inputs":[{"internalType":"address","name":"from","type":"address"},{"internalType":"address","name":"to","type":"address"},{"internalType":"uint256","name":"amount","type":"uint256"}],"name":"transferFrom","outputs":[{"internalType":"bool","name":"","type":"bool"}],"stateMutability":"nonpayable","type":"function"}],"evm":{"bytecode":{"linkReferences":{},"object":"60806040523480156200001157600080fd5b50604051620010d1380380620010d183398101604081905262000034916200030b565b600062000042858262000427565b50600162000051848262000427565b506002805460ff191660ff84169081179091556200007190600a62000608565b62000081906301406f406200061d565b6004819055811115620000e55760405162461bcd60e51b815260206004820152602160248201527f45524332303a20696e697469616c20737570706c7920657863656564732063616044820152600760fc1b60648201526084015b60405180910390fd5b620000f13382620000fb565b505050506200064d565b6001600160a01b038216620001535760405162461bcd60e51b815260206004820152601360248201527f45524332303a206d696e7420746f207a65726f000000000000000000000000006044820152606401620000dc565b6004548160035462000166919062000637565b1115620001b65760405162461bcd60e51b815260206004820152601360248201527f45524332303a20636170206578636565646564000000000000000000000000006044820152606401620000dc565b8060036000828254620001ca919062000637565b90915550506001600160a01b03821660009081526005602052604081208054839290620001f990849062000637565b90915550506040518181526001600160a01b038316906000907fddf252ad1be2c89b69c2b068fc378daa952ba7f163c4a11628f55a4df523b3ef9060200160405180910390a35050565b634e487b7160e01b600052604160045260246000fd5b600082601f8301126200026b57600080fd5b81516001600160401b038082111562000288576200028862000243565b604051601f8301601f19908116603f01168101908282118183101715620002b357620002b362000243565b8160405283815260209250866020858801011115620002d157600080fd5b600091505b83821015620002f55785820183015181830184015290820190620002d6565b6000602085830101528094505050505092915050565b600080600080608085870312156200032257600080fd5b84516001600160401b03808211156200033a57600080fd5b620003488883890162000259565b955060208701519150808211156200035f57600080fd5b506200036e8782880162000259565b935050604085015160ff811681146200038657600080fd5b6060959095015193969295505050565b600181811c90821680620003ab57607f821691505b602082108103620003cc57634e487b7160e01b600052602260045260246000fd5b50919050565b601f82111562000422576000816000526020600020601f850160051c81016020861015620003fd5750805b601f850160051c820191505b818110156200041e5782815560010162000409565b5050505b505050565b81516001600160401b0381111562000443576200044362000243565b6200045b8162000454845462000396565b84620003d2565b602080601f8311600181146200049357600084156200047a5750858301515b600019600386901b1c1916600185901b1785556200041e565b600085815260208120601f198616915b82811015620004c457888601518255948401946001909101908401620004a3565b5085821015620004e35787850151600019600388901b60f8161c191681555b5050505050600190811b01905550565b634e487b7160e01b600052601160045260246000fd5b600181815b808511156200054a5781600019048211156200052e576200052e620004f3565b808516156200053c57918102915b93841c93908002906200050e565b509250929050565b600082620005635750600162000602565b81620005725750600062000602565b81600181146200058b57600281146200059657620005b6565b600191505062000602565b60ff841115620005aa57620005aa620004f3565b50506001821b62000602565b5060208310610133831016604e8410600b8410161715620005db575081810a62000602565b620005e7838362000509565b8060001904821115620005fe57620005fe620004f3565b0290505b92915050565b600062000616838362000552565b9392505050565b8082028115828204841417620006025762000602620004f3565b80820180821115620006025762000602620004f3565b610a74806200065d6000396000f3fe608060405234801561001057600080fd5b50600436106100a95760003560e01c8063355274ea11610071578063355274ea1461012957806370a082311461013157806395d89b411461015a578063a0712d6814610162578063a9059cbb14610175578063dd62ed3e1461018857600080fd5b806306fdde03146100ae578063095ea7b3146100cc57806318160ddd146100ef57806323b872dd14610101578063313ce56714610114575b600080fd5b6100b66101c1565b6040516100c39190610795565b60405180910390f35b6100df6100da366004610800565b610253565b60405190151581526020016100c3565b6003545b6040519081526020016100c3565b6100df61010f36600461082a565b61026a565b60025460405160ff90911681526020016100c3565b6004546100f3565b6100f361013f366004610866565b6001600160a01b031660009081526005602052604090205490565b6100b6610306565b6100df610170366004610888565b610315565b6100df610183366004610800565b6103d5565b6100f36101963660046108a1565b6001600160a01b03918216600090815260066020908152604080832093909416825291909152205490565b6060600080546101d0906108d4565b80601f01602080910402602001604051908101604052809291908181526020018280546101fc906108d4565b80156102495780601f1061021e57610100808354040283529160200191610249565b820191906000526020600020905b81548152906001019060200180831161022c57829003601f168201915b5050505050905090565b60006102603384846103e2565b5060015b92915050565b6001600160a01b0383166000908152600660209081526040808320338452909152812054828110156102e35760405162461bcd60e51b815260206004820152601d60248201527f45524332303a20696e73756666696369656e7420616c6c6f77616e636500000060448201526064015b60405180910390fd5b6102f085338584036103e2565b6102fb8585856104e8565b506001949350505050565b6060600180546101d0906108d4565b60008082116103595760405162461bcd60e51b815260206004820152601060248201526f45524332303a206d696e74207a65726f60801b60448201526064016102da565b60025460009061036d9060ff16600a610a08565b610379906103e8610a14565b9050808311156103cb5760405162461bcd60e51b815260206004820152601a60248201527f45524332303a206578636565647320313030302070657220747800000000000060448201526064016102da565b610260338461066b565b60006102603384846104e8565b6001600160a01b0383166104385760405162461bcd60e51b815260206004820152601860248201527f45524332303a20617070726f76652066726f6d207a65726f000000000000000060448201526064016102da565b6001600160a01b0382166104875760405162461bcd60e51b815260206004820152601660248201527545524332303a20617070726f766520746f207a65726f60501b60448201526064016102da565b6001600160a01b0383811660008181526006602090815260408083209487168084529482529182902085905590518481527f8c5be1e5ebec7d5bd14f71427d1e84f3dd0314c0f7b2291e5b200ac8c7c3b925910160405180910390a3505050565b6001600160a01b03831661053e5760405162461bcd60e51b815260206004820152601960248201527f45524332303a207472616e736665722066726f6d207a65726f0000000000000060448201526064016102da565b6001600160a01b0382166105945760405162461bcd60e51b815260206004820152601760248201527f45524332303a207472616e7366657220746f207a65726f00000000000000000060448201526064016102da565b6001600160a01b038316600090815260056020526040902054818110156105fd5760405162461bcd60e51b815260206004820152601f60248201527f45524332303a207472616e7366657220657863656564732062616c616e63650060448201526064016102da565b6001600160a01b0380851660008181526005602052604080822086860390559286168082529083902080548601905591517fddf252ad1be2c89b69c2b068fc378daa952ba7f163c4a11628f55a4df523b3ef9061065d9086815260200190565b60405180910390a350505050565b6001600160a01b0382166106b75760405162461bcd60e51b815260206004820152601360248201527245524332303a206d696e7420746f207a65726f60681b60448201526064016102da565b600454816003546106c89190610a2b565b111561070c5760405162461bcd60e51b8152602060048201526013602482015272115490cc8c0e8818d85c08195e18d959591959606a1b60448201526064016102da565b806003600082825461071e9190610a2b565b90915550506001600160a01b0382166000908152600560205260408120805483929061074b908490610a2b565b90915550506040518181526001600160a01b038316906000907fddf252ad1be2c89b69c2b068fc378daa952ba7f163c4a11628f55a4df523b3ef9060200160405180910390a35050565b60006020808352835180602085015260005b818110156107c3578581018301518582016040015282016107a7565b506000604082860101526040601f19601f8301168501019250505092915050565b80356001600160a01b03811681146107fb57600080fd5b919050565b6000806040838503121561081357600080fd5b61081c836107e4565b946020939093013593505050565b60008060006060848603121561083f57600080fd5b610848846107e4565b9250610856602085016107e4565b9150604084013590509250925092565b60006020828403121561087857600080fd5b610881826107e4565b9392505050565b60006020828403121561089a57600080fd5b5035919050565b600080604083850312156108b457600080fd5b6108bd836107e4565b91506108cb602084016107e4565b90509250929050565b600181811c908216806108e857607f821691505b60208210810361090857634e487b7160e01b600052602260045260246000fd5b50919050565b634e487b7160e01b600052601160045260246000fd5b600181815b8085111561095f5781600019048211156109455761094561090e565b8085161561095257918102915b93841c9390800290610929565b509250929050565b60008261097657506001610264565b8161098357506000610264565b816001811461099957600281146109a3576109bf565b6001915050610264565b60ff8411156109b4576109b461090e565b50506001821b610264565b5060208310610133831016604e8410600b84101617156109e2575081810a610264565b6109ec8383610924565b8060001904821115610a0057610a0061090e565b029392505050565b60006108818383610967565b80820281158282048414176102645761026461090e565b808201808211156102645761026461090e56fea2646970667358221220502c008f65668629f6648163b3c92aa13741684d010d442721b712ace9991b6964736f6c63430008180033","opcodes":"PUSH1 0x80 PUSH1 0x40 MSTORE CALLVALUE DUP1 ISZERO PUSH3 0x11 JUMPI PUSH1 0x0 DUP1 REVERT JUMPDEST POP PUSH1 0x40 MLOAD PUSH3 0x10D1 CODESIZE SUB DUP1 PUSH3 0x10D1 DUP4 CODECOPY DUP2 ADD PUSH1 0x40 DUP2 SWAP1 MSTORE PUSH3 0x34 SWAP2 PUSH3 0x30B JUMP JUMPDEST PUSH1 0x0 PUSH3 0x42 DUP6 DUP3 PUSH3 0x427 JUMP JUMPDEST POP PUSH1 0x1 PUSH3 0x51 DUP5 DUP3 PUSH3 0x427 JUMP JUMPDEST POP PUSH1 0x2 DUP1 SLOAD PUSH1 0xFF NOT AND PUSH1 0xFF DUP5 AND SWAP1 DUP2 OR SWAP1 SWAP2 SSTORE PUSH3 0x71 SWAP1 PUSH1 0xA PUSH3 0x608 JUMP JUMPDEST PUSH3 0x81 SWAP1 PUSH4 0x1406F40 PUSH3 0x61D JUMP JUMPDEST PUSH1 0x4 DUP2 SWAP1 SSTORE DUP2 GT ISZERO PUSH3 0xE5 JUMPI PUSH1 0x40 MLOAD PUSH3 0x461BCD PUSH1 0xE5 SHL DUP2 MSTORE PUSH1 0x20 PUSH1 0x4 DUP3 ADD MSTORE PUSH1 0x21 PUSH1 0x24 DUP3 ADD MSTORE PUSH32 0x45524332303A20696E697469616C20737570706C792065786365656473206361 PUSH1 0x44 DUP3 ADD MSTORE PUSH1 0x7 PUSH1 0xFC SHL PUSH1 0x64 DUP3 ADD MSTORE PUSH1 0x84 ADD JUMPDEST PUSH1 0x40 MLOAD DUP1 SWAP2 SUB SWAP1 REVERT JUMPDEST PUSH3 0xF1 CALLER DUP3 PUSH3 0xFB JUMP JUMPDEST POP POP POP POP PUSH3 0x64D JUMP JUMPDEST PUSH1 0x1 PUSH1 0x1 PUSH1 0xA0 SHL SUB DUP3 AND PUSH3 0x153 JUMPI PUSH1 0x40 MLOAD PUSH3 0x461BCD PUSH1 0xE5 SHL DUP2 MSTORE PUSH1 0x20 PUSH1 0x4 DUP3 ADD MSTORE PUSH1 0x13 PUSH1 0x24 DUP3 ADD MSTORE PUSH32 0x45524332303A206D696E7420746F207A65726F00000000000000000000000000 PUSH1 0x44 DUP3 ADD MSTORE PUSH1 0x64 ADD PUSH3 0xDC JUMP JUMPDEST PUSH1 0x4 SLOAD DUP2 PUSH1 0x3 SLOAD PUSH3 0x166 SWAP2 SWAP1 PUSH3 0x637 JUMP JUMPDEST GT ISZERO PUSH3 0x1B6 JUMPI PUSH1 0x40 MLOAD PUSH3 0x461BCD PUSH1 0xE5 SHL DUP2 MSTORE PUSH1 0x20 PUSH1 0x4 DUP3 ADD MSTORE PUSH1 0x13 PUSH1 0x24 DUP3 ADD MSTORE PUSH32 0x45524332303A2063617020657863656564656400000000000000000000000000 PUSH1 0x44 DUP3 ADD MSTORE PUSH1 0x64 ADD PUSH3 0xDC JUMP JUMPDEST DUP1 PUSH1 0x3 PUSH1 0x0 DUP3 DUP3 SLOAD PUSH3 0x1CA SWAP2 SWAP1 PUSH3 0x637 JUMP JUMPDEST SWAP1 SWAP2 SSTORE POP POP PUSH1 0x1 PUSH1 0x1 PUSH1 0xA0 SHL SUB DUP3 AND PUSH1 0x0 SWAP1 DUP2 MSTORE PUSH1 0x5 PUSH1 0x20 MSTORE PUSH1 0x40 DUP2 KECCAK256 DUP1 SLOAD DUP4 SWAP3 SWAP1 PUSH3 0x1F9 SWAP1 DUP5 SWAP1 PUSH3 0x637 JUMP JUMPDEST SWAP1 SWAP2 SSTORE POP POP PUSH1 0x40 MLOAD DUP2 DUP2 MSTORE PUSH1 0x1 PUSH1 0x1 PUSH1 0xA0 SHL SUB DUP4 AND SWAP1 PUSH1 0x0 SWAP1 PUSH32 0xDDF252AD1BE2C89B69C2B068FC378DAA952BA7F163C4A11628F55A4DF523B3EF SWAP1 PUSH1 0x20 ADD PUSH1 0x40 MLOAD DUP1 SWAP2 SUB SWAP1 LOG3 POP POP JUMP JUMPDEST PUSH4 0x4E487B71 PUSH1 0xE0 SHL PUSH1 0x0 MSTORE PUSH1 0x41 PUSH1 0x4 MSTORE PUSH1 0x24 PUSH1 0x0 REVERT JUMPDEST PUSH1 0x0 DUP3 PUSH1 0x1F DUP4 ADD SLT PUSH3 0x26B JUMPI PUSH1 0x0 DUP1 REVERT JUMPDEST DUP2 MLOAD PUSH1 0x1 PUSH1 0x1 PUSH1 0x40 SHL SUB DUP1 DUP3 GT ISZERO PUSH3 0x288 JUMPI PUSH3 0x288 PUSH3 0x243 JUMP JUMPDEST PUSH1 0x40 MLOAD PUSH1 0x1F DUP4 ADD PUSH1 0x1F NOT SWAP1 DUP2 AND PUSH1 0x3F ADD AND DUP2 ADD SWAP1 DUP3 DUP3 GT DUP2 DUP4 LT OR ISZERO PUSH3 0x2B3 JUMPI PUSH3 0x2B3 PUSH3 0x243 JUMP JUMPDEST DUP2 PUSH1 0x40 MSTORE DUP4 DUP2 MSTORE PUSH1 0x20 SWAP3 POP DUP7 PUSH1 0x20 DUP6 DUP9 ADD ADD GT ISZERO PUSH3 0x2D1 JUMPI PUSH1 0x0 DUP1 REVERT JUMPDEST PUSH1 0x0 SWAP2 POP JUMPDEST DUP4 DUP3 LT ISZERO PUSH3 0x2F5 JUMPI DUP6 DUP3 ADD DUP4 ADD MLOAD DUP2 DUP4 ADD DUP5 ADD MSTORE SWAP1 DUP3 ADD SWAP1 PUSH3 0x2D6 JUMP JUMPDEST PUSH1 0x0 PUSH1 0x20 DUP6 DUP4 ADD ADD MSTORE DUP1 SWAP5 POP POP POP POP POP SWAP3 SWAP2 POP POP JUMP JUMPDEST PUSH1 0x0 DUP1 PUSH1 0x0 DUP1 PUSH1 0x80 DUP6 DUP8 SUB SLT ISZERO PUSH3 0x322 JUMPI PUSH1 0x0 DUP1 REVERT JUMPDEST DUP5 MLOAD PUSH1 0x1 PUSH1 0x1 PUSH1 0x40 SHL SUB DUP1 DUP3 GT ISZERO PUSH3 0x33A JUMPI PUSH1 0x0 DUP1 REVERT JUMPDEST PUSH3 0x348 DUP9 DUP4 DUP10 ADD PUSH3 0x259 JUMP JUMPDEST SWAP6 POP PUSH1 0x20 DUP8 ADD MLOAD SWAP2 POP DUP1 DUP3 GT ISZERO PUSH3 0x35F JUMPI PUSH1 0x0 DUP1 REVERT JUMPDEST POP PUSH3 0x36E DUP8 DUP3 DUP9 ADD PUSH3 0x259 JUMP JUMPDEST SWAP4 POP POP PUSH1 0x40 DUP6 ADD MLOAD PUSH1 0xFF DUP2 AND DUP2 EQ PUSH3 0x386 JUMPI PUSH1 0x0 DUP1 REVERT JUMPDEST PUSH1 0x60 SWAP6 SWAP1 SWAP6 ADD MLOAD SWAP4 SWAP7 SWAP3 SWAP6 POP POP POP JUMP JUMPDEST PUSH1 0x1 DUP2 DUP2 SHR SWAP1 DUP3 AND DUP1 PUSH3 0x3AB JUMPI PUSH1 0x7F DUP3 AND SWAP2 POP JUMPDEST PUSH1 0x20 DUP3 LT DUP2 SUB PUSH3 0x3CC JUMPI PUSH4 0x4E487B71 PUSH1 0xE0 SHL PUSH1 0x0 MSTORE PUSH1 0x22 PUSH1 0x4 MSTORE PUSH1 0x24 PUSH1 0x0 REVERT JUMPDEST POP SWAP2 SWAP1 POP JUMP JUMPDEST PUSH1 0x1F DUP3 GT ISZERO PUSH3 0x422 JUMPI PUSH1 0x0 DUP2 PUSH1 0x0 MSTORE PUSH1 0x20 PUSH1 0x0 KECCAK256 PUSH1 0x1F DUP6 ADD PUSH1 0x5 SHR DUP2 ADD PUSH1 0x20 DUP7 LT ISZERO PUSH3 0x3FD JUMPI POP DUP1 JUMPDEST PUSH1 0x1F DUP6 ADD PUSH1 0x5 SHR DUP3 ADD SWAP2 POP JUMPDEST DUP2 DUP2 LT ISZERO PUSH3 0x41E JUMPI DUP3 DUP2 SSTORE PUSH1 0x1 ADD PUSH3 0x409 JUMP JUMPDEST POP POP POP JUMPDEST POP POP POP JUMP JUMPDEST DUP2 MLOAD PUSH1 0x1 PUSH1 0x1 PUSH1 0x40 SHL SUB DUP2 GT ISZERO PUSH3 0x443 JUMPI PUSH3 0x443 PUSH3 0x243 JUMP JUMPDEST PUSH3 0x45B DUP2 PUSH3 0x454 DUP5 SLOAD PUSH3 0x396 JUMP JUMPDEST DUP5 PUSH3 0x3D2 JUMP JUMPDEST PUSH1 0x20 DUP1 PUSH1 0x1F DUP4 GT PUSH1 0x1 DUP2 EQ PUSH3 0x493 JUMPI PUSH1 0x0 DUP5 ISZERO PUSH3 0x47A JUMPI POP DUP6 DUP4 ADD MLOAD JUMPDEST PUSH1 0x0 NOT PUSH1 0x3 DUP7 SWAP1 SHL SHR NOT AND PUSH1 0x1 DUP6 SWAP1 SHL OR DUP6 SSTORE PUSH3 0x41E JUMP JUMPDEST PUSH1 0x0 DUP6 DUP2 MSTORE PUSH1 0x20 DUP2 KECCAK256 PUSH1 0x1F NOT DUP7 AND SWAP2 JUMPDEST DUP3 DUP2 LT ISZERO PUSH3 0x4C4 JUMPI DUP9 DUP7 ADD MLOAD DUP3 SSTORE SWAP5 DUP5 ADD SWAP5 PUSH1 0x1 SWAP1 SWAP2 ADD SWAP1 DUP5 ADD PUSH3 0x4A3 JUMP JUMPDEST POP DUP6 DUP3 LT ISZERO PUSH3 0x4E3 JUMPI DUP8 DUP6 ADD MLOAD PUSH1 0x0 NOT PUSH1 0x3 DUP9 SWAP1 SHL PUSH1 0xF8 AND SHR NOT AND DUP2 SSTORE JUMPDEST POP POP POP POP POP PUSH1 0x1 SWAP1 DUP2 SHL ADD SWAP1 SSTORE POP JUMP JUMPDEST PUSH4 0x4E487B71 PUSH1 0xE0 SHL PUSH1 0x0 MSTORE PUSH1 0x11 PUSH1 0x4 MSTORE PUSH1 0x24 PUSH1 0x0 REVERT JUMPDEST PUSH1 0x1 DUP2 DUP2 JUMPDEST DUP1 DUP6 GT ISZERO PUSH3 0x54A JUMPI DUP2 PUSH1 0x0 NOT DIV DUP3 GT ISZERO PUSH3 0x52E JUMPI PUSH3 0x52E PUSH3 0x4F3 JUMP JUMPDEST DUP1 DUP6 AND ISZERO PUSH3 0x53C JUMPI SWAP2 DUP2 MUL SWAP2 JUMPDEST SWAP4 DUP5 SHR SWAP4 SWAP1 DUP1 MUL SWAP1 PUSH3 0x50E JUMP JUMPDEST POP SWAP3 POP SWAP3 SWAP1 POP JUMP JUMPDEST PUSH1 0x0 DUP3 PUSH3 0x563 JUMPI POP PUSH1 0x1 PUSH3 0x602 JUMP JUMPDEST DUP2 PUSH3 0x572 JUMPI POP PUSH1 0x0 PUSH3 0x602 JUMP JUMPDEST DUP2 PUSH1 0x1 DUP2 EQ PUSH3 0x58B JUMPI PUSH1 0x2 DUP2 EQ PUSH3 0x596 JUMPI PUSH3 0x5B6 JUMP JUMPDEST PUSH1 0x1 SWAP2 POP POP PUSH3 0x602 JUMP JUMPDEST PUSH1 0xFF DUP5 GT ISZERO PUSH3 0x5AA JUMPI PUSH3 0x5AA PUSH3 0x4F3 JUMP JUMPDEST POP POP PUSH1 0x1 DUP3 SHL PUSH3 0x602 JUMP JUMPDEST POP PUSH1 0x20 DUP4 LT PUSH2 0x133 DUP4 LT AND PUSH1 0x4E DUP5 LT PUSH1 0xB DUP5 LT AND OR ISZERO PUSH3 0x5DB JUMPI POP DUP2 DUP2 EXP PUSH3 0x602 JUMP JUMPDEST PUSH3 0x5E7 DUP4 DUP4 PUSH3 0x509 JUMP JUMPDEST DUP1 PUSH1 0x0 NOT DIV DUP3 GT ISZERO PUSH3 0x5FE JUMPI PUSH3 0x5FE PUSH3 0x4F3 JUMP JUMPDEST MUL SWAP1 POP JUMPDEST SWAP3 SWAP2 POP POP JUMP JUMPDEST PUSH1 0x0 PUSH3 0x616 DUP4 DUP4 PUSH3 0x552 JUMP JUMPDEST SWAP4 SWAP3 POP POP POP JUMP JUMPDEST DUP1 DUP3 MUL DUP2 ISZERO DUP3 DUP3 DIV DUP5 EQ OR PUSH3 0x602 JUMPI PUSH3 0x602 PUSH3 0x4F3 JUMP JUMPDEST DUP1 DUP3 ADD DUP1 DUP3 GT ISZERO PUSH3 0x602 JUMPI PUSH3 0x602 PUSH3 0x4F3 JUMP JUMPDEST PUSH2 0xA74 DUP1 PUSH3 0x65D PUSH1 0x0 CODECOPY PUSH1 0x0 RETURN INVALID PUSH1 0x80 PUSH1 0x40 MSTORE CALLVALUE DUP1 ISZERO PUSH2 0x10 JUMPI PUSH1 0x0 DUP1 REVERT JUMPDEST POP PUSH1 0x4 CALLDATASIZE LT PUSH2 0xA9 JUMPI PUSH1 0x0 CALLDATALOAD PUSH1 0xE0 SHR DUP1 PUSH4 0x355274EA GT PUSH2 0x71 JUMPI DUP1 PUSH4 0x355274EA EQ PUSH2 0x129 JUMPI DUP1 PUSH4 0x70A08231 EQ PUSH2 0x131 JUMPI DUP1 PUSH4 0x95D89B41 EQ PUSH2 0x15A JUMPI DUP1 PUSH4 0xA0712D68 EQ PUSH2 0x162 JUMPI DUP1 PUSH4 0xA9059CBB EQ PUSH2 0x175 JUMPI DUP1 PUSH4 0xDD62ED3E EQ PUSH2 0x188 JUMPI PUSH1 0x0 DUP1 REVERT JUMPDEST DUP1 PUSH4 0x6FDDE03 EQ PUSH2 0xAE JUMPI DUP1 PUSH4 0x95EA7B3 EQ PUSH2 0xCC JUMPI DUP1 PUSH4 0x18160DDD EQ PUSH2 0xEF JUMPI DUP1 PUSH4 0x23B872DD EQ PUSH2 0x101 JUMPI DUP1 PUSH4 0x313CE567 EQ PUSH2 0x114 JUMPI JUMPDEST PUSH1 0x0 DUP1 REVERT JUMPDEST PUSH2 0xB6 PUSH2 0x1C1 JUMP JUMPDEST PUSH1 0x40 MLOAD PUSH2 0xC3 SWAP2 SWAP1 PUSH2 0x795 JUMP JUMPDEST PUSH1 0x40 MLOAD DUP1 SWAP2 SUB SWAP1 RETURN JUMPDEST PUSH2 0xDF PUSH2 0xDA CALLDATASIZE PUSH1 0x4 PUSH2 0x800 JUMP JUMPDEST PUSH2 0x253 JUMP JUMPDEST PUSH1 0x40 MLOAD SWAP1 ISZERO ISZERO DUP2 MSTORE PUSH1 0x20 ADD PUSH2 0xC3 JUMP JUMPDEST PUSH1 0x3 SLOAD JUMPDEST PUSH1 0x40 MLOAD SWAP1 DUP2 MSTORE PUSH1 0x20 ADD PUSH2 0xC3 JUMP JUMPDEST PUSH2 0xDF PUSH2 0x10F CALLDATASIZE PUSH1 0x4 PUSH2 0x82A JUMP JUMPDEST PUSH2 0x26A JUMP JUMPDEST PUSH1 0x2 SLOAD PUSH1 0x40 MLOAD PUSH1 0xFF SWAP1 SWAP2 AND DUP2 MSTORE PUSH1 0x20 ADD PUSH2 0xC3 JUMP JUMPDEST PUSH1 0x4 SLOAD PUSH2 0xF3 JUMP JUMPDEST PUSH2 0xF3 PUSH2 0x13F CALLDATASIZE PUSH1 0x4 PUSH2 0x866 JUMP JUMPDEST PUSH1 0x1 PUSH1 0x1 PUSH1 0xA0 SHL SUB AND PUSH1 0x0 SWAP1 DUP2 MSTORE PUSH1 0x5 PUSH1 0x20 MSTORE PUSH1 0x40 SWAP1 KECCAK256 SLOAD SWAP1 JUMP JUMPDEST PUSH2 0xB6 PUSH2 0x306 JUMP JUMPDEST PUSH2 0xDF PUSH2 0x170 CALLDATASIZE PUSH1 0x4 PUSH2 0x888 JUMP JUMPDEST PUSH2 0x315 JUMP JUMPDEST PUSH2 0xDF PUSH2 0x183 CALLDATASIZE PUSH1 0x4 PUSH2 0x800 JUMP JUMPDEST PUSH2 0x3D5 JUMP JUMPDEST PUSH2 0xF3 PUSH2 0x196 CALLDATASIZE PUSH1 0x4 PUSH2 0x8A1 JUMP JUMPDEST PUSH1 0x1 PUSH1 0x1 PUSH1 0xA0 SHL SUB SWAP2 DUP3 AND PUSH1 0x0 SWAP1 DUP2 MSTORE PUSH1 0x6 PUSH1 0x20 SWAP1 DUP2 MSTORE PUSH1 0x40 DUP1 DUP4 KECCAK256 SWAP4 SWAP1 SWAP5 AND DUP3 MSTORE SWAP2 SWAP1 SWAP2 MSTORE KECCAK256 SLOAD SWAP1 JUMP JUMPDEST PUSH1 0x60 PUSH1 0x0 DUP1 SLOAD PUSH2 0x1D0 SWAP1 PUSH2 0x8D4 JUMP JUMPDEST DUP1 PUSH1 0x1F ADD PUSH1 0x20 DUP1 SWAP2 DIV MUL PUSH1 0x20 ADD PUSH1 0x40 MLOAD SWAP1 DUP2 ADD PUSH1 0x40 MSTORE DUP1 SWAP3 SWAP2 SWAP1 DUP2 DUP2 MSTORE PUSH1 0x20 ADD DUP3 DUP1 SLOAD PUSH2 0x1FC SWAP1 PUSH2 0x8D4 JUMP JUMPDEST DUP1 ISZERO PUSH2 0x249 JUMPI DUP1 PUSH1 0x1F LT PUSH2 0x21E JUMPI PUSH2 0x100 DUP1 DUP4 SLOAD DIV MUL DUP4 MSTORE SWAP2 PUSH1 0x20 ADD SWAP2 PUSH2 0x249 JUMP JUMPDEST DUP3 ADD SWAP2 SWAP1 PUSH1 0x0 MSTORE PUSH1 0x20 PUSH1 0x0 KECCAK256 SWAP1 JUMPDEST DUP2 SLOAD DUP2 MSTORE SWAP1 PUSH1 0x1 ADD SWAP1 PUSH1 0x20 ADD DUP1 DUP4 GT PUSH2 0x22C JUMPI DUP3 SWAP1 SUB PUSH1 0x1F AND DUP3 ADD SWAP2 JUMPDEST POP POP POP POP POP SWAP1 POP SWAP1 JUMP JUMPDEST PUSH1 0x0 PUSH2 0x260 CALLER DUP5 DUP5 PUSH2 0x3E2 JUMP JUMPDEST POP PUSH1 0x1 JUMPDEST SWAP3 SWAP2 POP POP JUMP JUMPDEST PUSH1 0x1 PUSH1 0x1 PUSH1 0xA0 SHL SUB DUP4 AND PUSH1 0x0 SWAP1 DUP2 MSTORE PUSH1 0x6 PUSH1 0x20 SWAP1 DUP2 MSTORE PUSH1 0x40 DUP1 DUP4 KECCAK256 CALLER DUP5 MSTORE SWAP1 SWAP2 MSTORE DUP2 KECCAK256 SLOAD DUP3 DUP2 LT ISZERO PUSH2 0x2E3 JUMPI PUSH1 0x40 MLOAD PUSH3 0x461BCD PUSH1 0xE5 SHL DUP2 MSTORE PUSH1 0x20 PUSH1 0x4 DUP3 ADD MSTORE PUSH1 0x1D PUSH1 0x24 DUP3 ADD MSTORE PUSH32 0x45524332303A20696E73756666696369656E7420616C6C6F77616E6365000000 PUSH1 0x44 DUP3 ADD MSTORE PUSH1 0x64 ADD JUMPDEST PUSH1 0x40 MLOAD DUP1 SWAP2 SUB SWAP1 REVERT JUMPDEST PUSH2 0x2F0 DUP6 CALLER DUP6 DUP5 SUB PUSH2 0x3E2 JUMP JUMPDEST PUSH2 0x2FB DUP6 DUP6 DUP6 PUSH2 0x4E8 JUMP JUMPDEST POP PUSH1 0x1 SWAP5 SWAP4 POP POP POP POP JUMP JUMPDEST PUSH1 0x60 PUSH1 0x1 DUP1 SLOAD PUSH2 0x1D0 SWAP1 PUSH2 0x8D4 JUMP JUMPDEST PUSH1 0x0 DUP1 DUP3 GT PUSH2 0x359 JUMPI PUSH1 0x40 MLOAD PUSH3 0x461BCD PUSH1 0xE5 SHL DUP2 MSTORE PUSH1 0x20 PUSH1 0x4 DUP3 ADD MSTORE PUSH1 0x10 PUSH1 0x24 DUP3 ADD MSTORE PUSH16 0x45524332303A206D696E74207A65726F PUSH1 0x80 SHL PUSH1 0x44 DUP3 ADD MSTORE PUSH1 0x64 ADD PUSH2 0x2DA JUMP JUMPDEST PUSH1 0x2 SLOAD PUSH1 0x0 SWAP1 PUSH2 0x36D SWAP1 PUSH1 0xFF AND PUSH1 0xA PUSH2 0xA08 JUMP JUMPDEST PUSH2 0x379 SWAP1 PUSH2 0x3E8 PUSH2 0xA14 JUMP JUMPDEST SWAP1 POP DUP1 DUP4 GT ISZERO PUSH2 0x3CB JUMPI PUSH1 0x40 MLOAD PUSH3 0x461BCD PUSH1 0xE5 SHL DUP2 MSTORE PUSH1 0x20 PUSH1 0x4 DUP3 ADD MSTORE PUSH1 0x1A PUSH1 0x24 DUP3 ADD MSTORE PUSH32 0x45524332303A2065786365656473203130303020706572207478000000000000 PUSH1 0x44 DUP3 ADD MSTORE PUSH1 0x64 ADD PUSH2 0x2DA JUMP JUMPDEST PUSH2 0x260 CALLER DUP5 PUSH2 0x66B JUMP JUMPDEST PUSH1 0x0 PUSH2 0x260 CALLER DUP5 DUP5 PUSH2 0x4E8 JUMP JUMPDEST PUSH1 0x1 PUSH1 0x1 PUSH1 0xA0 SHL SUB DUP4 AND PUSH2 0x438 JUMPI PUSH1 0x40 MLOAD PUSH3 0x461BCD PUSH1 0xE5 SHL DUP2 MSTORE PUSH1 0x20 PUSH1 0x4 DUP3 ADD MSTORE PUSH1 0x18 PUSH1 0x24 DUP3 ADD MSTORE PUSH32 0x45524332303A20617070726F76652066726F6D207A65726F0000000000000000 PUSH1 0x44 DUP3 ADD MSTORE PUSH1 0x64 ADD PUSH2 0x2DA JUMP JUMPDEST PUSH1 0x1 PUSH1 0x1 PUSH1 0xA0 SHL SUB DUP3 AND PUSH2 0x487 JUMPI PUSH1 0x40 MLOAD PUSH3 0x461BCD PUSH1 0xE5 SHL DUP2 MSTORE PUSH1 0x20 PUSH1 0x4 DUP3 ADD MSTORE PUSH1 0x16 PUSH1 0x24 DUP3 ADD MSTORE PUSH22 0x45524332303A20617070726F766520746F207A65726F PUSH1 0x50 SHL PUSH1 0x44 DUP3 ADD MSTORE PUSH1 0x64 ADD PUSH2 0x2DA JUMP JUMPDEST PUSH1 0x1 PUSH1 0x1 PUSH1 0xA0 SHL SUB DUP4 DUP2 AND PUSH1 0x0 DUP2 DUP2 MSTORE PUSH1 0x6 PUSH1 0x20 SWAP1 DUP2 MSTORE PUSH1 0x40 DUP1 DUP4 KECCAK256 SWAP5 DUP8 AND DUP1 DUP5 MSTORE SWAP5 DUP3 MSTORE SWAP2 DUP3 SWAP1 KECCAK256 DUP6 SWAP1 SSTORE SWAP1 MLOAD DUP5 DUP2 MSTORE PUSH32 0x8C5BE1E5EBEC7D5BD14F71427D1E84F3DD0314C0F7B2291E5B200AC8C7C3B925 SWAP2 ADD PUSH1 0x40 MLOAD DUP1 SWAP2 SUB SWAP1 LOG3 POP POP POP JUMP JUMPDEST PUSH1 0x1 PUSH1 0x1 PUSH1 0xA0 SHL SUB DUP4 AND PUSH2 0x53E JUMPI PUSH1 0x40 MLOAD PUSH3 0x461BCD PUSH1 0xE5 SHL DUP2 MSTORE PUSH1 0x20 PUSH1 0x4 DUP3 ADD MSTORE PUSH1 0x19 PUSH1 0x24 DUP3 ADD MSTORE PUSH32 0x45524332303A207472616E736665722066726F6D207A65726F00000000000000 PUSH1 0x44 DUP3 ADD MSTORE PUSH1 0x64 ADD PUSH2 0x2DA JUMP JUMPDEST PUSH1 0x1 PUSH1 0x1 PUSH1 0xA0 SHL SUB DUP3 AND PUSH2 0x594 JUMPI PUSH1 0x40 MLOAD PUSH3 0x461BCD PUSH1 0xE5 SHL DUP2 MSTORE PUSH1 0x20 PUSH1 0x4 DUP3 ADD MSTORE PUSH1 0x17 PUSH1 0x24 DUP3 ADD MSTORE PUSH32 0x45524332303A207472616E7366657220746F207A65726F000000000000000000 PUSH1 0x44 DUP3 ADD MSTORE PUSH1 0x64 ADD PUSH2 0x2DA JUMP JUMPDEST PUSH1 0x1 PUSH1 0x1 PUSH1 0xA0 SHL SUB DUP4 AND PUSH1 0x0 SWAP1 DUP2 MSTORE PUSH1 0x5 PUSH1 0x20 MSTORE PUSH1 0x40 SWAP1 KECCAK256 SLOAD DUP2 DUP2 LT ISZERO PUSH2 0x5FD JUMPI PUSH1 0x40 MLOAD PUSH3 0x461BCD PUSH1 0xE5 SHL DUP2 MSTORE PUSH1 0x20 PUSH1 0x4 DUP3 ADD MSTORE PUSH1 0x1F PUSH1 0x24 DUP3 ADD MSTORE PUSH32 0x45524332303A207472616E7366657220657863656564732062616C616E636500 PUSH1 0x44 DUP3 ADD MSTORE PUSH1 0x64 ADD PUSH2 0x2DA JUMP JUMPDEST PUSH1 0x1 PUSH1 0x1 PUSH1 0xA0 SHL SUB DUP1 DUP6 AND PUSH1 0x0 DUP2 DUP2 MSTORE PUSH1 0x5 PUSH1 0x20 MSTORE PUSH1 0x40 DUP1 DUP3 KECCAK256 DUP7 DUP7 SUB SWAP1 SSTORE SWAP3 DUP7 AND DUP1 DUP3 MSTORE SWAP1 DUP4 SWAP1 KECCAK256 DUP1 SLOAD DUP7 ADD SWAP1 SSTORE SWAP2 MLOAD PUSH32 0xDDF252AD1BE2C89B69C2B068FC378DAA952BA7F163C4A11628F55A4DF523B3EF SWAP1 PUSH2 0x65D SWAP1 DUP7 DUP2 MSTORE PUSH1 0x20 ADD SWAP1 JUMP JUMPDEST PUSH1 0x40 MLOAD DUP1 SWAP2 SUB SWAP1 LOG3 POP POP POP POP JUMP JUMPDEST PUSH1 0x1 PUSH1 0x1 PUSH1 0xA0 SHL SUB DUP3 AND PUSH2 0x6B7 JUMPI PUSH1 0x40 MLOAD PUSH3 0x461BCD PUSH1 0xE5 SHL DUP2 MSTORE PUSH1 0x20 PUSH1 0x4 DUP3 ADD MSTORE PUSH1 0x13 PUSH1 0x24 DUP3 ADD MSTORE PUSH19 0x45524332303A206D696E7420746F207A65726F PUSH1 0x68 SHL PUSH1 0x44 DUP3 ADD MSTORE PUSH1 0x64 ADD PUSH2 0x2DA JUMP JUMPDEST PUSH1 0x4 SLOAD DUP2 PUSH1 0x3 SLOAD PUSH2 0x6C8 SWAP2 SWAP1 PUSH2 0xA2B JUMP JUMPDEST GT ISZERO PUSH2 0x70C JUMPI PUSH1 0x40 MLOAD PUSH3 0x461BCD PUSH1 0xE5 SHL DUP2 MSTORE PUSH1 0x20 PUSH1 0x4 DUP3 ADD MSTORE PUSH1 0x13 PUSH1 0x24 DUP3 ADD MSTORE PUSH19 0x115490CC8C0E8818D85C08195E18D959591959 PUSH1 0x6A SHL PUSH1 0x44 DUP3 ADD MSTORE PUSH1 0x64 ADD PUSH2 0x2DA JUMP JUMPDEST DUP1 PUSH1 0x3 PUSH1 0x0 DUP3 DUP3 SLOAD PUSH2 0x71E SWAP2 SWAP1 PUSH2 0xA2B JUMP JUMPDEST SWAP1 SWAP2 SSTORE POP POP PUSH1 0x1 PUSH1 0x1 PUSH1 0xA0 SHL SUB DUP3 AND PUSH1 0x0 SWAP1 DUP2 MSTORE PUSH1 0x5 PUSH1 0x20 MSTORE PUSH1 0x40 DUP2 KECCAK256 DUP1 SLOAD DUP4 SWAP3 SWAP1 PUSH2 0x74B SWAP1 DUP5 SWAP1 PUSH2 0xA2B JUMP JUMPDEST SWAP1 SWAP2 SSTORE POP POP PUSH1 0x40 MLOAD DUP2 DUP2 MSTORE PUSH1 0x1 PUSH1 0x1 PUSH1 0xA0 SHL SUB DUP4 AND SWAP1 PUSH1 0x0 SWAP1 PUSH32 0xDDF252AD1BE2C89B69C2B068FC378DAA952BA7F163C4A11628F55A4DF523B3EF SWAP1 PUSH1 0x20 ADD PUSH1 0x40 MLOAD DUP1 SWAP2 SUB SWAP1 LOG3 POP POP JUMP JUMPDEST PUSH1 0x0 PUSH1 0x20 DUP1 DUP4 MSTORE DUP4 MLOAD DUP1 PUSH1 0x20 DUP6 ADD MSTORE PUSH1 0x0 JUMPDEST DUP2 DUP2 LT ISZERO PUSH2 0x7C3 JUMPI DUP6 DUP2 ADD DUP4 ADD MLOAD DUP6 DUP3 ADD PUSH1 0x40 ADD MSTORE DUP3 ADD PUSH2 0x7A7 JUMP JUMPDEST POP PUSH1 0x0 PUSH1 0x40 DUP3 DUP7 ADD ADD MSTORE PUSH1 0x40 PUSH1 0x1F NOT PUSH1 0x1F DUP4 ADD AND DUP6 ADD ADD SWAP3 POP POP POP SWAP3 SWAP2 POP POP JUMP JUMPDEST DUP1 CALLDATALOAD PUSH1 0x1 PUSH1 0x1 PUSH1 0xA0 SHL SUB DUP2 AND DUP2 EQ PUSH2 0x7FB JUMPI PUSH1 0x0 DUP1 REVERT JUMPDEST SWAP2 SWAP1 POP JUMP JUMPDEST PUSH1 0x0 DUP1 PUSH1 0x40 DUP4 DUP6 SUB SLT ISZERO PUSH2 0x813 JUMPI PUSH1 0x0 DUP1 REVERT JUMPDEST PUSH2 0x81C DUP4 PUSH2 0x7E4 JUMP JUMPDEST SWAP5 PUSH1 0x20 SWAP4 SWAP1 SWAP4 ADD CALLDATALOAD SWAP4 POP POP POP JUMP JUMPDEST PUSH1 0x0 DUP1 PUSH1 0x0 PUSH1 0x60 DUP5 DUP7 SUB SLT ISZERO PUSH2 0x83F JUMPI PUSH1 0x0 DUP1 REVERT JUMPDEST PUSH2 0x848 DUP5 PUSH2 0x7E4 JUMP JUMPDEST SWAP3 POP PUSH2 0x856 PUSH1 0x20 DUP6 ADD PUSH2 0x7E4 JUMP JUMPDEST SWAP2 POP PUSH1 0x40 DUP5 ADD CALLDATALOAD SWAP1 POP SWAP3 POP SWAP3 POP SWAP3 JUMP JUMPDEST PUSH1 0x0 PUSH1 0x20 DUP3 DUP5 SUB SLT ISZERO PUSH2 0x878 JUMPI PUSH1 0x0 DUP1 REVERT JUMPDEST PUSH2 0x881 DUP3 PUSH2 0x7E4 JUMP JUMPDEST SWAP4 SWAP3 POP POP POP JUMP JUMPDEST PUSH1 0x0 PUSH1 0x20 DUP3 DUP5 SUB SLT ISZERO PUSH2 0x89A JUMPI PUSH1 0x0 DUP1 REVERT JUMPDEST POP CALLDATALOAD SWAP2 SWAP1 POP JUMP JUMPDEST PUSH1 0x0 DUP1 PUSH1 0x40 DUP4 DUP6 SUB SLT ISZERO PUSH2 0x8B4 JUMPI PUSH1 0x0 DUP1 REVERT JUMPDEST PUSH2 0x8BD DUP4 PUSH2 0x7E4 JUMP JUMPDEST SWAP2 POP PUSH2 0x8CB PUSH1 0x20 DUP5 ADD PUSH2 0x7E4 JUMP JUMPDEST SWAP1 POP SWAP3 POP SWAP3 SWAP1 POP JUMP JUMPDEST PUSH1 0x1 DUP2 DUP2 SHR SWAP1 DUP3 AND DUP1 PUSH2 0x8E8 JUMPI PUSH1 0x7F DUP3 AND SWAP2 POP JUMPDEST PUSH1 0x20 DUP3 LT DUP2 SUB PUSH2 0x908 JUMPI PUSH4 0x4E487B71 PUSH1 0xE0 SHL PUSH1 0x0 MSTORE PUSH1 0x22 PUSH1 0x4 MSTORE PUSH1 0x24 PUSH1 0x0 REVERT JUMPDEST POP SWAP2 SWAP1 POP JUMP JUMPDEST PUSH4 0x4E487B71 PUSH1 0xE0 SHL PUSH1 0x0 MSTORE PUSH1 0x11 PUSH1 0x4 MSTORE PUSH1 0x24 PUSH1 0x0 REVERT JUMPDEST PUSH1 0x1 DUP2 DUP2 JUMPDEST DUP1 DUP6 GT ISZERO PUSH2 0x95F JUMPI DUP2 PUSH1 0x0 NOT DIV DUP3 GT ISZERO PUSH2 0x945 JUMPI PUSH2 0x945 PUSH2 0x90E JUMP JUMPDEST DUP1 DUP6 AND ISZERO PUSH2 0x952 JUMPI SWAP2 DUP2 MUL SWAP2 JUMPDEST SWAP4 DUP5 SHR SWAP4 SWAP1 DUP1 MUL SWAP1 PUSH2 0x929 JUMP JUMPDEST POP SWAP3 POP SWAP3 SWAP1 POP JUMP JUMPDEST PUSH1 0x0 DUP3 PUSH2 0x976 JUMPI POP PUSH1 0x1 PUSH2 0x264 JUMP JUMPDEST DUP2 PUSH2 0x983 JUMPI POP PUSH1 0x0 PUSH2 0x264 JUMP JUMPDEST DUP2 PUSH1 0x1 DUP2 EQ PUSH2 0x999 JUMPI PUSH1 0x2 DUP2 EQ PUSH2 0x9A3 JUMPI PUSH2 0x9BF JUMP JUMPDEST PUSH1 0x1 SWAP2 POP POP PUSH2 0x264 JUMP JUMPDEST PUSH1 0xFF DUP5 GT ISZERO PUSH2 0x9B4 JUMPI PUSH2 0x9B4 PUSH2 0x90E JUMP JUMPDEST POP POP PUSH1 0x1 DUP3 SHL PUSH2 0x264 JUMP JUMPDEST POP PUSH1 0x20 DUP4 LT PUSH2 0x133 DUP4 LT AND PUSH1 0x4E DUP5 LT PUSH1 0xB DUP5 LT AND OR ISZERO PUSH2 0x9E2 JUMPI POP DUP2 DUP2 EXP PUSH2 0x264 JUMP JUMPDEST PUSH2 0x9EC DUP4 DUP4 PUSH2 0x924 JUMP JUMPDEST DUP1 PUSH1 0x0 NOT DIV DUP3 GT ISZERO PUSH2 0xA00 JUMPI PUSH2 0xA00 PUSH2 0x90E JUMP JUMPDEST MUL SWAP4 SWAP3 POP POP POP JUMP JUMPDEST PUSH1 0x0 PUSH2 0x881 DUP4 DUP4 PUSH2 0x967 JUMP JUMPDEST DUP1 DUP3 MUL DUP2 ISZERO DUP3 DUP3 DIV DUP5 EQ OR PUSH2 0x264 JUMPI PUSH2 0x264 PUSH2 0x90E JUMP JUMPDEST DUP1 DUP3 ADD DUP1 DUP3 GT ISZERO PUSH2 0x264 JUMPI PUSH2 0x264 PUSH2 0x90E JUMP INVALID LOG2 PUSH5 0x6970667358 0x22 SLT KECCAK256 POP 0x2C STOP DUP16 PUSH6 0x668629F66481 PUSH4 0xB3C92AA1 CALLDATACOPY COINBASE PUSH9 0x4D010D442721B712AC 0xE9 SWAP10 SHL PUSH10 0x64736F6C634300081800 CALLER "},"methodIdentifiers":{"allowance(address,address)":"dd62ed3e","approve(address,uint256)":"095ea7b3","balanceOf(address)":"70a08231","cap()":"355274ea","decimals()":"313ce567","mint(uint256)":"a0712d68","name()":"06fdde03","symbol()":"95d89b41","totalSupply()":"18160ddd","transfer(address,uint256)":"a9059cbb","transferFrom(address,address,uint256)":"23b872dd"}}}}}